:020000040800F2
:10000000D80C0020890100087F2B00084725000834
:100010007D2B0008B3060008853D000800000000A5
:10002000000000000000000000000000D9310008BE
:10003000B506000800000000C93000083132000891
:10004000A3010008A3010008A3010008A301000800
:10005000A3010008A3010008A3010008A3010008F0
:10006000A3010008A3010008A3010008A3010008E0
:10007000A3010008A3010008A3010008A3010008D0
:10008000A3010008A3010008A3010008A3010008C0
:10009000A3010008A3010008A3010008A3010008B0
:1000A000A3010008A3010008A3010008A3010008A0
:1000B000A3010008A3010008A3010008A301000890
:1000C000A3010008A3010008A3010008A301000880
:1000D000A3010008A3010008A3010008793D00085E
:1000E000A3010008A3010008A301000800F002F822
:1000F00000F03AF80AA090E8000C82448344AAF188
:100100000107DA4501D100F02FF8AFF2090EBAE885
:100110000F0013F0010F18BFFB1A43F0010318473B
:100120001457000034570000103A24BF78C878C133
:10013000FAD8520724BF30C830C144BF04680C60ED
:10014000704700000023002400250026103A28BF35
:1001500078C1FBD8520728BF30C148BF0B60704739
:100160001FB51FBD10B510BD00F0E2F81146FFF736
:10017000F7FF03F019FE00F000F903B4FFF7F2FFF8
:1001800003BC00F007F90000094880470948004710
:10019000FEE7FEE7FEE7FEE7FEE7FEE7FEE7FEE737
:1001A000FEE7FEE704480549054A064B7047000094
:1001B00093320008ED000008D8060020D80C00207B
:1001C000D8080020D8080020B2F120030AD5C2F1D7
:1001D000200320FA02F001FA03F321FA02F140EAC7
:1001E0000300704721FA03F04FF000017047032A23
:1001F00040F2308010F0030C00F0158011F8013B44
:10020000BCF1020F624498BF11F801CB00F8013B2A
:1002100038BF11F8013BA2F1040298BF00F801CBEE
:1002200038BF00F8013B11F0030300F04F80083A9B
:10023000C0F0088051F8043B083A51F804CBA0E81C
:100240000810F5E7121D5CBF51F8043B40F8043B71
:10025000AFF30080D20724BF11F8013B11F801CBA6
:1002600048BF11F8012B24BF00F8013B00F801CB77
:1002700048BF00F8012B70474FF0000200B513464D
:1002800094469646203922BFA0E80C50A0E80C50B6
:10029000B1F12001BFF4F7AF090728BFA0E80C5067
:1002A00048BF0CC05DF804EB890028BF40F8042B60
:1002B00008BF704748BF20F8022B11F0804F18BFCD
:1002C00000F8012B704770477047704710B5203A0F
:1002D000C0F00B80B1E81850203AA0E81850B1E8FF
:1002E0001850A0E81850BFF4F5AF5FEA027C24BFB5
:1002F000B1E81850A0E8185044BF18C918C0BDE8AC
:1003000010405FEA827C24BF51F8043B40F8043B74
:1003100008BF7047D20728BF31F8023B48BF11F829
:10032000012B28BF20F8023B48BF00F8012B704783
:10033000754600F02BF8AE4605006946534620F09E
:100340000700854618B020B5FFF72CFFBDE8204018
:100350004FF000064FF000074FF000084FF0000B81
:1003600021F00701AC46ACE8C009ACE8C009ACE834
:10037000C009ACE8C0098D46704710B50446AFF31C
:1003800000802046BDE81040FFF7F7BE00487047E8
:100390007806002001491820ABBEFEE726000200C7
:1003A000704700B58BB0020A8DF824208DF8250027
:1003B000080A8DF826000AA88DF82710009001ABD6
:1003C000042209A90C2000F0E9F838B9BDF828008A
:1003D0000B2803D39DF80D000BB000BDFF20FBE7F9
:1003E00010B5044600F036F800281BD1012000F0BB
:1003F0001AF8002816D14FF4FA6001F017F800F04F
:1004000029F800280ED1022000F00DF8002809D1AB
:1004100000F080F8002805D12146BDE810400120F9
:1004200000F016B910BD00B58BB001AB8DF82400FB
:100430000AA80090012209A9022000F0AFF838B9FB
:10044000BDF828000B2803D39DF80D000BB000BDAC
:10045000FF20FBE700B58BB009A80022009001AB9C
:100460001146012000F09AF838B9BDF824000B2895
:1004700003D39DF80D000BB000BDFF20FBE710B5C6
:1004800002F058FB4FF47A7000F0D0FF642000F0C7
:10049000CDFF4FF4FA74204600F0C8FF2046BDE8B7
:1004A000104000F0C3BF00002DE9F04789468246A6
:1004B00001F07AF9154C002605462680DFF85080B9
:1004C00041F288371AE02088A8B12088092812D381
:1004D000B8F80700218840BA093081420BD322883E
:1004E0000B495046FFF783FE2188A9F800102680AB
:1004F0000020BDE8F087012000F098FF01F054F9DA
:10050000401BB842DFD32680FF20F2E71400002012
:100510007805002000B58BB009A80022009001AB3F
:100520001146052000F03AF838B9BDF824000B2830
:1005300003D39DF80D000BB000BDFF20FBE730B5E5
:100540008DB01C46109D8DF80400080A8DF805003A
:100550008DF80610100A8DF807000BA88DF80820FA
:10056000009003AB052201A9042000F017F890B910
:10057000BDF82C000F280ED39DF8150038B9BDF832
:10058000160040BA2080BDF8180040BA28809DF8B7
:1005900015000DB030BDFF20FBE70000F0B5C1B085
:1005A000140002464FF0EF00469F8DF800001E46F3
:1005B00025484FF001038DF8013040686D464FEA41
:1005C000106C8DF802C04FEA104C8DF803C04FEA52
:1005D000102C8DF804C08DF8050004F103008DF88F
:1005E00006304FEA10238DF808008DF807308DF89B
:1005F00009204FF00A0006D005F10A002246FFF755
:10060000F6FD0A34A0B20022062104E06B5C491C0E
:100610001A4492B289B28142F8D3110A2954401C7B
:1006200080B241F288332A54401C82B2694607489E
:1006300001F038FF36B12FB139463046FFF734FFAD
:1006400041B0F0BD0020FBE7140000208C0000202A
:1006500000B58BB001AB8DF82400080A8DF8250099
:100660000AA88DF826100090032209A90620FFF79A
:1006700095FF38B9BDF828000B2803D39DF80D006D
:100680000BB000BDFF20FBE738B50C460546FFF771
:10069000E1FE00280CD10120FFF7C5FE002807D19C
:1006A0002B464FF49672002101200094FFF747FF7C
:1006B00038BDFEE77047000038B502F061FA01244A
:1006C0000021082327A20846009402F006FC082314
:1006D00027A219460020009402F0FFFB082328A25D
:1006E00010210020009402F0F8FB082327A2182113
:1006F0000020009402F0F1FB082327A22021002013
:10070000009402F0EAFB082326A22821002000948E
:1007100002F0E3FB25488079052810D2DFE800F0DD
:10072000030813181D00082321A21946009403E0B2
:1007300008231FA210210094782002F0CEFBBDE810
:10074000384002F0BFBA082319A218210094F3E739
:10075000082317A220210094EEE7082314A22821E1
:100760000094E9E741646D696E204D656E753A004D
:10077000312E4D6F646966792050494E00000000AB
:10078000322E456E726F6C6C20465000332E4465DD
:100790006C65746520465000342E44656C204E46CE
:1007A00043000000352E4578697400001C000020CD
:1007B0003C0000002DE9F04F99B002F0E1F94FF054
:1007C0000109002108235AA20846CDF8009002F042
:1007D00084FB02A800F022FD060011D00327B01C04
:1007E00090FBF7F0C0B21790554800250DF1080BAB
:1007F00080784FF0080A00EB400000F0FF085BE053
:10080000082350A210210020CDF8009002F065FBD3
:1008100079E0102101EB0511C9B2C4B2CDE900A9FC
:1008200016910123621C0020169902F01FFB082379
:1008300047A2CDF800901846169902F04EFB0BEB3C
:10084000C400007901286BD002284FF00803CDF8CE
:1008500000906AD03FA21020169902F03EFBCDE92D
:1008600000A95BF834000223020E2020169902F042
:10087000CFFACDE900A95BF834000223C0F30742A8
:100880003020169902F0C4FACDE900A93BF83400F3
:100890000223C0F307224020169902F0B9FACDE9ED
:1008A00000A91BF8342002235020169902F0B0FA58
:1008B0006D1CEDB2BD4203D208EB0500B042A8D3D7
:1008C0004C46082324A238210020CDF8009002F0E5
:1008D00004FB1B48CDE900A482785546012338214A
:1008E0002820521C02F0C2FA08231DA23821302011
:1008F000009402F0F2FACDE90054382101230846B1
:10090000179A02F0B3FA082316A238215820CDF81E
:10091000009002F0E2FA02F0D5F919B0BDE8F08FCC
:10092000082313A2CDF8009095E712A293E70000E8
:100930004E46432043617264204C6973743A000050
:100940001C0000204E6F2063617264732100000060
:100950003A0000003F3A0000506167653A0000002D
:100960002F0000004B4559383A4578697400000063
:10097000443A0000503A00001CB502F001F901248D
:100980000021082313A20846009402F0A6FA0823C7
:1009900015A210210020009402F09FFA0820CDE952
:1009A00000041248032310214289182002F05EFA45
:1009B00008230FA228210020009402F08EFA0823B9
:1009C0000FA238210020009402F087FABDE81C40F5
:1009D00002F078B944656C6574652046696E676598
:1009E000727072696E74000049443A001C00002065
:1009F0004B455931363A44656C657465000000001A
:100A00004B4559383A4261636B0000002DE9F04FC5
:100A100097B002F0B5F84FF001080021082345A275
:100A20000846CDF8008002F058FA02A800F0F6FB64
:100A300006000AD0434800250DF1080A80784FF0DF
:100A4000080900EB4000C7B259E008233EA2182174
:100A5000CDF800805BE000BF05EB4501182202EBFA
:100A60008101C4B2CDE9009801F0FF0B0123621CA3
:100A70005946002002F0FAF9082336A259461846D2
:100A8000CDF8008002F029FA0AEBC4004FF0080309
:100A90000079CDF80080012849D02FA259461020B6
:100AA00002F01BFACDE900985AF834000223020E36
:100AB00059461C2002F0ACF9CDE900985AF83400F0
:100AC0000223C0F3074259462C2002F0A1F9CDE9D8
:100AD00000983AF834000223C0F3072259463C201C
:100AE00002F096F9CDE900981AF83420022359460D
:100AF0004C2002F08DF96D1CEDB2032D02D2781955
:100B0000B042A9D3082315A23821CDF800800020D7
:100B100002F0E3F9082315A240210020CDF800805F
:100B200002F0DBF902F0CEF817B0BDE8F08F12A2A8
:100B3000B4E7000044656C657465204E464320436D
:100B4000617264001C0000204E6F20636172647348
:100B5000210000003A00000050000000313A5570BA
:100B600020323A446E20333A44656C004B45593884
:100B70003A4261636B000000440000001CB501F0C4
:100B8000FFFF01240021082317A20846009402F069
:100B9000A4F9082319A210210020009402F09DF965
:100BA0000820CDE9000416480323102142891820AB
:100BB00002F05CF9082313A220210020009402F027
:100BC0008CF9082313A230210020009402F085F94B
:100BD000082313A238210020009402F07EF9BDE81A
:100BE0001C4002F06FB80000456E726F6C6C2046BE
:100BF000696E6765727072696E74000049443A00EC
:100C00001C000020506C6163652066696E67657228
:100C10002E2E2E004B455931363A537461727400B2
:100C20004B4559383A4261636B00000038B501F01A
:100C3000A7FF0124002108230BA20846009402F01C
:100C40004CF908230BA210210020009402F045F972
:100C500008230CA220210020009402F03EF9BDE8F8
:100C6000384002F02FB80000536D61727420446F59
:100C70006F7200004B4559383A526567204E464323
:100C8000000000004B455931323A4C697374204ED4
:100C9000464300002DE9FC4101F072FF01250021CF
:100CA000082330A20846009502F017F9304F4FF0A4
:100CB00008084026F87943460428009523D22DA23F
:100CC0001021002002F009F90024F87984420CD2A6
:100CD0002748CDE9008510300123025D06EB0410A2
:100CE000C0B2102102F0C2F808E006EB0410C0B256
:100CF000082323A21021009502F0EFF8641CE4B24F
:100D0000042CE2D322E01FA21021002002F0E5F81B
:100D10000024387A84420CD21548CDE9008514307D
:100D20000123025D06EB0410C0B2102102F09EF810
:100D300008E006EB0410C0B2082311A210210095B0
:100D400002F0CBF8641CE4B2042CE2D3082310A216
:100D500028210020009502F0C0F8BDE8FC4101F018
:100D6000B1BF00004D6F646966792050494E3A006A
:100D70001C0000204E65772050494E3A00000000CC
:100D80005F000000436F6E6669726D3A00000000FC
:100D90004B455931363A4F4B204B4559383A426111
:100DA000636B00002DE9FC4101F0EAFE0125002102
:100DB00008231BA20846009502F08FF81C4E002461
:100DC000082706F10C08307984420AD2CDE9007573
:100DD000200718F80420000E0123102102F046F825
:100DE00007E02007000E082312A21021009502F050
:100DF00074F8641CE4B2042CE5D308230EA220216D
:100E00000020009502F069F808230FA2302100208D
:100E1000009502F062F8BDE8FC4101F053BF00000C
:100E2000456E7465722050617373776F72643A0017
:100E30001C0000205F0000004B455931363A436FDB
:100E40006E6669726D0000004B4559383A42616325
:100E50006B00000038B501F093FE01240021082347
:100E600014A20846009402F038F8082315A21021B5
:100E70000020009402F031F814484078012802D094
:100E8000022804D00AE0082311A2009402E00823FB
:100E900011A200941021282002F01FF8082310A2AC
:100EA00020210020009402F018F8BDE8384001F03D
:100EB00009BF00005363616E204E464320436172B8
:100EC00064000000547970653A0000001C000020A6
:100ED000446F6F72000000005065726D00000000EA
:100EE000506C61636520636172642E2E2E000000D9
:100EF00038B501F045FE01240021082314A208465C
:100F0000009401F0EAFF082315A2102100200094AC
:100F100001F0E3FF082315A220210020009401F036
:100F2000DCFF1648C078012802D0022805D00BE06B
:100F3000082313A21021009403E0082310A220210B
:100F40000094682001F0C9FFBDE8384001F0BABE46
:100F500053656C656374204D6F64653A0000000052
:100F6000312E50617373776F72640000322E4669C0
:100F70006E6765727072696E740000001C0000205C
:100F80003C2D000038B501F0FBFD012400210823B1
:100F900018A20846009401F0A0FF082319A210210E
:100FA0000020009401F099FF082319A220210020BD
:100FB000009401F092FF082318A230210020009431
:100FC00001F08BFF19484078012802D0022805D093
:100FD0000BE0082316A21021009403E0082314A2BA
:100FE00020210094682001F078FFBDE8384001F02E
:100FF00069BE000053656C65637420547970653A6E
:1010000000000000313A446F6F7220436172640047
:10101000323A5065726D2043617264004B4559311C
:10102000363A436F6E6669726D0000001C00002046
:101030003C2D000072B6FEE706490020C861064854
:10104000016941F004010161016941F04001016160
:1010500070470000D800002000200240064A00210E
:10106000D16106490A6942F002020A6148610869D1
:1010700040F0400008617047D80000200020024086
:10108000044B0022DA61044A136943F0010313613F
:1010900001807047D8000020002002401448002240
:1010A000C168CB06134904D5CA6942F00202CA617D
:1010B0001022C3685B0705D5CB6943F00103CB6100
:1010C00042F00402C369DB0707D0CB6943F0040395
:1010D000CB61C16921F00101C161A2F580710139C3
:1010E00001D0C2607047C16921F00101C161704740
:1010F00000200240D800002070B5054600F054FBE7
:101100000646114C09E0681C07D025B100F04CFBE5
:10111000801BA84201D9032070BDE068C007F2D14E
:10112000E068800601D52020E060E068C00605D4B4
:10113000E069C00702D1E068400703D5FFF7AEFFC2
:10114000012070BD002070BD0020024070B594B039
:101150000D46040005D0684600F060F8002269469C
:101160000AE0032014B070BD51F83230A34201D11F
:101170000220F7E7521CD2B28242F5D30A2801D3EB
:101180000120EFE7064600F001FA0A48224600EB8C
:1011900086010023022000F0B9F907482A4600EB37
:1011A00086010023022000F0B1F900F0A5F900202B
:1011B000D8E7000000F4010800F8010810B5144C4D
:1011C00086B02068401C20D100F0E0F9002000909B
:1011D0000120CDE9024004A9684600F039F930B990
:1011E0004FF0303200232146022000F08FF90948E9
:1011F000029004A9684600F02BF90748029004A960
:10120000684600F025F900F077F906B010BD00003F
:1012100000F0010800F4010800F8010870B5034669
:1012200000200B4D014600BF05EB8102D2F80044BF
:10123000D2F80028661C06D043F8304003EBC00407
:10124000401C2271C0B2491CC9B20A29ECD370BD3E
:1012500000F001082DE9F0419AB0040005D068467D
:10126000FFF7DCFF00216D460EE002201AB0BDE85A
:10127000F08100BF55F83120A24203D10A2905D0E0
:10128000461E0DE0491CC9B28142F3D30120EDE7AF
:1012900005EBC100491CD0E90223C0E90023C9B213
:1012A000B142F5DB00F072F900201490154F0120D7
:1012B000CDE9167018A914A800F0CAF8DFF8488024
:1012C00018A914A8CDF8588000F0C2F8002412E044
:1012D00055F8342007EB84010023022000F016F9B2
:1012E00005EBC40008EB840102790023022000F022
:1012F0000DF9641CE4B2B442EADB00F0FDF8002012
:10130000B4E7000000F4010800F8010830B585B02A
:10131000044600F03BF9002000900B4D0120CDE980
:10132000025004A9684600F093F82068002300BA30
:1013300020F0FF02E07829460243022000F0E6F8A0
:1013400000F0DAF805B030BD00F0010810B590F8F3
:1013500021100022022905D00421816380F8202079
:10136000012010BD01680B6823F00E030B600168BB
:101370000B6823F001030B6090F84030C46B01212F
:1013800001FA03F3636080F8211080F820201046F2
:1013900010BD000010B590F821100024022903D0E0
:1013A0000421816301243DE001680A6822F00E02F5
:1013B0000A6001680A6822F001020A601A4A01689C
:1013C000914201D1012121E0174A1432914201D109
:1013D00010211BE0144A2832914201D1891515E0F1
:1013E000114A3C32914201D189140FE00E4A503229
:1013F000914202D14FF4803108E00B4A64329142AD
:1014000002D14FF4801101E04FF08071064A083A92
:101410005160012180F82110002180F82010416BDB
:1014200001B18847204610BD0800024070B504464F
:1014300000F0BAF90546601C02D004480078044464
:1014400000F0B2F9401BA042FAD370BD04000020A6
:101450002DE9F047054626480F460126017E012961
:101460000FD00121814601762868DFF888804CF290
:101470005034022808D0A2462046FFF73DFEA8B10E
:1014800031E00220BDE8F0872046FFF735FE08BBBB
:101490000120FFF7D1FD2046FFF72EFED8F81010EF
:1014A000064621F00401C8F810101CE04FF0FF3090
:1014B0003860AC6811E02046FFF7D0FD5046FFF7DA
:1014C0001BFED8F81010060021F00201C8F8101019
:1014D00001D03C6007E004F58064D5E9020100EB2F
:1014E0008120A042E7D8002189F818103046C9E7CA
:1014F000D8000020002002400348016941F080012B
:101500000161002070470000002002402DE9F05FDB
:1015100007461C4888460024017E15461E460129C0
:1015200009D00121814601764CF2503A5046FFF72E
:10153000E3FD18B122E00220BDE8F09F012F02D0A8
:10154000022F00D00427D346DFF83CA02201284612
:101550003146FEF739FE81B208EB4400FFF790FDFB
:101560005846FFF7C9FDDAF8102022F00102CAF848
:10157000102018B9641CE4B2BC42E7D3002289F8F9
:101580001820D9E7D800002000200240064900209A
:101590000A69120607D5054A4A60054A4A60096980
:1015A000090600D50120704700200240230167454D
:1015B000AB89EFCD2DE9F84FDFF8B8910024A9F100
:1015C000040B23460F2709F1040AABF1040EC9E00E
:1015D0000125A5402A40AA427DD1674ED1F804C01A
:1015E000ACEB0608B44532D014DCBCF1030F3AD0A2
:1015F00009DCBCF1000F2AD0BCF1010F1CD0BCF1FA
:10160000020F31D11DE0BCF1110F17D0BCF1120F48
:101610002AD119E0B8F5881F19D006DCB8F5803F4B
:1016200015D0B8F5801F1FD111E0B8F5001F0ED0FE
:10163000B8F5041F18D10AE0CB6815E0CB681B1D74
:1016400012E0CB6808330FE0CB680C330CE08B68FA
:101650002BB1012B4FF0080303D0456104E00423B4
:1016600002E0056100E00023FF2A01D8064601E000
:1016700000F104064FEA840501D9A5F12005D6F84A
:10168000008007FA05FC28EA0C0803FA05F548EA89
:101690000508C6F800804D68ED0062D5374DAE698B
:1016A00046F00106AE61AD6924F0030605F00105C0
:1016B0000095334D06EB050CDCF80850A607360FF5
:1016C00007FA06F825EA0805DFF8B880404503D197
:1016D0004FF0000817E044E0DFF8AC80404502D14D
:1016E0004FF001080FE0DFF8A480404502D14FF031
:1016F000020808E0DFF89880404502D14FF0030867
:1017000001E04FF0040808FA06F848EA0508CCF8AA
:1017100008804D68D9F80060ED024D4601D51643AA
:1017200000E096432E604D68DAF80060AD02554641
:1017300001D5164300E096432E604D68DBF800604B
:10174000AD035D4601D5164300E096432E604D681B
:10175000DEF80060ED03754601D5164300E09643C0
:101760002E60641C0D682A46E5407FF431AFBDE869
:10177000F88F000008040140000011100010024022
:101780000000014000080140000C01400010014031
:10179000001401408068084000D0012070470AB161
:1017A000016170470904FBE7014880687047000049
:1017B000040000200248816802781144816070476B
:1017C00004000020074810B5016841F010010160D5
:1017D000032000F075F80F2000F006F800F024F860
:1017E000002010BD0020024070B50D4D04464FF49E
:1017F0007A712878B1FBF0F00A490968B1FBF0F082
:1018000000F066FC48B9102C07D200222146501E79
:1018100000F036F800206C6070BD012070BD000043
:1018200004000020100000200C4808B5816941F038
:1018300001018161816901F001010091C16941F0FB
:101840008051C161C06900F0805000900448416837
:1018500021F0E06141F00071416008BD00100240DC
:1018600000000140002809DB00F01F020121914027
:101870004009800000F1E020C0F80011704700002E
:10188000F0B40E4B1B680C46C3F30223C3F10705EB
:10189000042D00D90425191D072901D2002300E0D9
:1018A000DB1E012606FA05F1491E214099409E40A3
:1018B000761E16403143F0BC02F065BA0CED00E034
:1018C000064900F0070208684FF6FF03184040EA97
:1018D0000220034A10430860704700000CED00E04E
:1018E0000000FA052DE9F0470F46050061D0434E90
:1018F000306800F00700B84209D2306820F00700D5
:1019000038433060306800F00700B84251D1286891
:101910003B4C810712D5400703D5606840F4E06076
:1019200060602878000703D5606840F4605060600C
:101930006068A96820F0F000084360602878C0075C
:1019400028D06868012810D02168022810D08907A3
:1019500000292EDA616821F0030101436160FFF77D
:1019600023FF804641F288390DE021688903EFE7C3
:101970008901EDE7FFF718FFA0EB0801494502D9FF
:101980000320BDE8F0876068696800F00C00B0EBE8
:10199000810FEFD1306800F00700B8420BD93068F2
:1019A00020F0070038433060306800F00700B8428C
:1019B00001D00120E5E72878400705D56068E9688F
:1019C00020F4E060084360602878000706D560686E
:1019D000296920F4605040EAC100606000F038F8E6
:1019E0006168084AC1F30311515CC84006490860A8
:1019F00006480068FFF7F8FE0020C2E7002002401A
:101A000000100240323E00081000002008000020B4
:101A10000448054900684968044AC1F30221515C41
:101A2000C84070471000002000100240423E0008ED
:101A30000448054900684968044AC1F3C221515C61
:101A4000C84070471000002000100240423E0008CD
:101A50000E4A51680E4801F00C03042B11D0082BDC
:101A60000FD10C48C1F38343C903C05C0AD5516848
:101A7000084AC1F34041921E515C054A5043B0FBF5
:101A8000F1F07047044948437047000000100240DD
:101A900000127A00223E000800093D002DE9F84FAF
:101AA000040070D02078C04DC00749D06868C0F3EA
:101AB0008100012807D06868C0F38100022809D19D
:101AC0006868C00306D52868800339D56068002897
:101AD000E7D035E06068B0F5803F0BD010B1B0F5CD
:101AE000A02F11D0286820F480302860286820F4C6
:101AF000802002E0286840F480302860606890B15F
:101B0000FFF752FE06460AE0286840F4802028606D
:101B1000F0E700BFFFF748FE801B642873D82868F1
:101B20008003F7D50CE0FFF73FFE064605E000BF57
:101B3000FFF73AFE801B6428F0D828688003F7D4AA
:101B400020789A4E80074FF001094FF0000839D5F0
:101B5000686810F00C0F07D06868C0F38100022895
:101B600009D16868C00306D42868800714D52069A5
:101B7000012808D110E02069B0B1C6F80090FFF745
:101B800013FE074605E00AE1FFF70EFEC01B022820
:101B9000C4D828688007F7D52868616920F0F80064
:101BA00040EAC10028600DE0C6F80080FFF7FCFDA8
:101BB000074604E0FFF7F8FDC01B022823D8286879
:101BC0008007F7D4207800072CD57948A169D9B1CE
:101BD000C0F80090FFF7E8FD074604E0FFF7E4FDDA
:101BE000C01B02280FD8686A8007F7D571484FF4E8
:101BF000FA510068B0FBF1F0009000BF0098411E60
:101C00000091FAD20EE080E0C0F80080FFF7CCFD32
:101C1000074604E0FFF7C8FDC01B022875D8686AB4
:101C20008007F7D42078400760D5E8690027C00016
:101C300008D4E86940F08050E861E869012700F0C5
:101C4000805000905C480168C90513D40168834640
:101C500041F480710160FFF7A7FD824606E000BFF6
:101C6000FFF7A2FDA0EB0A0064284ED8DBF80000C5
:101C7000C005F5D5E06801280AD008B1052813D0C1
:101C8000286A20F001002862286A20F0040002E09F
:101C9000286A40F001002862E06841F2883B98B170
:101CA000FFF782FD82460BE0286A40F004002862BC
:101CB000EEE700BFFFF778FDA0EB0A0159455AD8BF
:101CC000286A8007F6D50CE0FFF76EFD824605E036
:101CD000FFF76AFDA0EB0A0159454CD8286A800736
:101CE000F6D41FB1E86920F08050E861E06988B35C
:101CF0006968C1F38101022944D00228C6F86080D6
:101D000004D0FFF751FD044638E034E0FFF74CFD06
:101D1000074604E0FFF748FDC01B02282BD82868BF
:101D20008001F7D4206AB0F5803F05D16868A168CA
:101D300020F4003008436860D4E90801084369686A
:101D400021F4741108436860C6F86090FFF72CFD19
:101D5000044606E025E000BFFFF726FD001B022831
:101D600009D828688001F7D51BE000BFFFF71CFDEC
:101D7000001B022802D90320BDE8F88F28688001E3
:101D8000F4D40EE00128F7D06868226A00F48031AC
:101D9000914204D1616A00F47010884201D00120A0
:101DA000EAE70020E8E7000000100240000042429D
:101DB00080044242100000200070004070B5040012
:101DC00009D0606A002540B125616561A56294F87B
:101DD000510040B10CE0012070BD6068B0F5827F19
:101DE000F4D0E561F2E784F85050204600F040F866
:101DF000022084F851002068016821F04001016050
:101E0000A088218900F4827001F404410843A1896B
:101E100001F400610843217C01F002010843217DA7
:101E200001F001010843218B01F400710843217F77
:101E300001F03801084394F8201001F080010843B4
:101E4000218D01F40051084321680860A069042134
:101E500001EA1040216848602068C16921F40061EE
:101E6000C1616565012084F85100002070BD00004B
:101E700030B585B000240094019402940394006866
:101E80001449884223D11448816941F48051816109
:101E9000816901F480510491816941F004018161FB
:101EA00080690E4D00F004000490A02000900220F4
:101EB00001900320039069462846FFF77BFB4020F2
:101EC000CDE90004694628460294FFF773FB05B08C
:101ED00030BD000000300140001002400008014009
:101EE0002DE9FF4F81B01D46934604464FF001098E
:101EF0000E9EFFF759FC074694F8510061680128CF
:101F000006D0B1F5827F3CD1A168C9BB042838D185
:101F10000298002871D0BBF1000FFBD0002DF9D042
:101F200094F8500001282CD04FF0010A84F850A0FA
:101F300094F85100042802D0052084F851004FF095
:101F40000008C4F85480C4F838B0E587A587029922
:101F50002163E586A586C4F84080C4F844802068E3
:101F60000168490603D4016841F040010160E0685E
:101F7000B0F5006F606808D0F0B3012D49D081E062
:101F8000FFE7022005B0BDE8F08F08B1012D39D17F
:101F9000206B21680088C860206B801C2063E08E65
:101FA000401EE0862EE02068816889070FD5E18E0B
:101FB00069B1B9F1010F0AD1216B0988C160206BA9
:101FC000801C2063E08E401EE0864FF000092068F0
:101FD0008168C9070CD0E18F51B1C068A16B08803E
:101FE000A06B801CA063E08F401EE0874FF00109CA
:101FF000FFF7DAFBC01B01E00BE067E0B04201D362
:10200000701C50D1E08E0028CDD1E08F0028CAD1BD
:102010003EE0206B216800780873206B401C206331
:10202000E08E401EE0862DE02068816889070FD58C
:10203000E18E69B1B9F1010F0AD1216B0978017301
:10204000206B401C2063E08E401EE0864FF00009AC
:1020500020688168C9070CD0E18F51B1C068A16BBD
:102060000870A06B401CA063E08F401EE0874FF01B
:102070000109FFF799FBC01BB04202D3701C01D0CD
:1020800011E086B1E08E0028CED1E08F0028CBD1C0
:102090003A463146204601F029F850B120206065CB
:1020A00084F8508012E084F851A084F85080032016
:1020B00068E7A06818B92068C1688068009084F853
:1020C00051A084F85080606D0028F1D0012059E7BC
:1020D00010B5401EB0F1807F01D3012010BD4FF03C
:1020E000E02460610F21601701F04DFE0020A06127
:1020F00007202061002010BD70477047F8B50168C7
:1021000004460868CA684B6910F00F0F4FF00005CD
:1021100059D003F0010602F49077374365D0C10728
:1021200005D0D10503D5616C41F00101616441071F
:1021300005D5D90703D0616C41F0020161648107C4
:1021400005D5D90703D0616C41F004016164010732
:1021500007D502F02001314303D0616C41F0080142
:102160006164616C00293AD0800604D5900602D5DE
:10217000204601F0BEF820684069616CC0F3801011
:10218000090700D460B3204601F08CF8206840694C
:10219000400621D52068143050E8001F21F040018E
:1021A00040E80012002AF5D1E06BA8B16D49416307
:1021B000E06BFFF7EFF8002811D0E06B416B01B046
:1021C000BDE8F040084783060FD593060DD520469D
:1021D000BDE8F84001F08DB82046FFF78EFFF8BD4E
:1021E0002046FFF78AFF6564F8BD266B2023012E89
:1021F0007CD1C6067AD5D60678D50868486800909E
:1022000048694FF00206400640D5E16B0868406817
:102210000004000CE8D0A28D8242E5D9E0858869EF
:1022200020282DD020680C3050E8001F21F4807148
:1022300040E80012002AF5D12068143050E8001F51
:1022400021F0010140E80012002AF5D12068143085
:1022500050E8001F21F0400140E80012002AF5D1AB
:1022600084F84230256320680C3050E8001F21F0CC
:10227000100140E80012002AF5D1E06BFFF766F884
:102280006663A08DE18D401A81B22AE0A08DE18DB8
:10229000401A81B2E08D0028A6D00029A4D022687F
:1022A0000C3252E8000F20F4907042E80007002F33
:1022B000F5D12068143050E8002F22F0010240E8E8
:1022C0000027002FF5D184F84230256320680C30B8
:1022D00050E8002F22F0100240E80023002BF5D137
:1022E00066632046FFF708FFF8BDFFE705062BD51C
:1022F000150629D594F841002128F5D1A068B0F53C
:10230000805F01D12069B0B1206A411C216221683F
:1023100000784860E08C401E0004000CE084E3D1AB
:102320002068C16821F08001C1602068C16841F067
:102330004001C160D8E7206A0088C0F30800486007
:10234000206A801C2062E5E74006CDD55006CBD53B
:10235000CA68204622F04002CA6084F8413000F08A
:10236000F1F8C1E79532000870B5040004D094F884
:102370004100002510B106E0012070BD84F84050F6
:10238000204600F023F8242084F841002068C1682A
:1023900021F40051C160204601F00CF82068016969
:1023A00021F4904101612068416921F02A014161D5
:1023B0002068C16841F40051C1606564202084F840
:1023C000410084F842006563002070BD30B585B0DF
:1023D00000240094019402940394006818498842F0
:1023E0002CD11848C16941F48021C161C16901F44F
:1023F00080210491816941F0080181618069124D59
:1024000000F0080004904FF48060009002200190DA
:102410000320039069462846FFF7CCF8E814CDE97D
:102420000004694628460294FFF7C4F800221146CA
:102430002720FFF725FA2720FFF714FA05B030BD53
:102440000048004000100240000C014090F842306B
:10245000202B01D00220704721B11AB10023036361
:1024600001F004B8012070470B49884213D10B4892
:10247000018809040FD40188FF29018808D8491C64
:10248000018007490088012201440348FFF7DEBFAD
:1024900041F40041018070478C00002014000020AE
:1024A000780500202DE9F843044690F8410098464D
:1024B00016460D46202802D00220BDE8F88385B1DB
:1024C0007EB100206064212084F84100FFF76CF9A0
:1024D000A6848146E684A0682027B0F5805F02D0FC
:1024E00003E00120E9E7206910B12E4600250EE047
:1024F00000260CE08021204600F0D3FFA8B9C6B129
:1025000016F8010B21684860E08C401EE084E08CE6
:102510004B464FF00002CDF800800028EAD14FF082
:102520004001204600F0BDFF40B184F84170032017
:10253000C3E735F8020BC0F30800E3E784F8417005
:102540000020BAE77047FEE770B501220E4D9403F4
:1025500021462846FFF723F9012256033146284633
:10256000FFF71DF900F048F8002221462846FFF742
:1025700016F900F041F8002231462846FFF70FF91E
:10258000BDE8704000F038B80010014070B50B4D48
:102590004FF48044002221462846FFF700F901222B
:1025A00051032846FFF7FBF800F026F8214628469D
:1025B000BDE870400122FFF7F2B8000000100140B2
:1025C00070B50C4C012291032046FFF7E8F800F0AB
:1025D00013F80122550329462046FFF7E0F800F0E2
:1025E0000BF8002229462046FFF7D9F8BDE87040D5
:1025F00000F002B8001001400320401EC0B2FCD21F
:1026000070470F281DD2DFE800F01C080A0C1C0ED2
:1026100010121C1416181C1C1A00012070470220EE
:10262000704703207047042070470520704706203C
:102630007047072070470820704709207047002026
:102640007047FF20704700002DE9F05F614D0024C6
:10265000224620212846FFF7A2F8012240212846E1
:10266000FFF79DF8012280212846FFF798F8012204
:10267000170239462846FFF792F84FF40078414692
:102680002846FFF787F800B90124DFF84CB14FF472
:10269000004A51465846FFF77DF800B902244F4ED4
:1026A00001213046FFF776F800B9032402213046B5
:1026B000FFF770F800B90424012220212846FFF713
:1026C0006EF8002240212846FFF769F80122802198
:1026D0002846FFF764F80122B94639462846FFF735
:1026E0005EF8474641462846FFF754F800B90524EE
:1026F000D0465146DA465846FFF74CF800B9062452
:1027000001213046FFF746F800B907240221304680
:10271000FFF740F800B90824012220212846FFF7DE
:102720003EF8012240212846FFF739F80022802197
:102730002846FFF734F80122CB4649462846FFF7E2
:102740002EF8B94639462846FFF724F800B909247F
:10275000414657465046FFF71DF800B90A240121AB
:102760003046FFF717F800B90B2402213046FFF777
:1027700011F800B90C24012220212846FFF70FF898
:10278000012240212846FFF70AF80122802128462D
:10279000FFF705F8002259462846FFF700F849469A
:1027A0002846FEF7F7FF00B90D2441463846FEF7EC
:1027B000F1FF00B90E2401213046FEF7EBFF00B90E
:1027C0000F2402213046FEF7E5FF00B91024204611
:1027D000BDE8F09F000C01400010014000080140DE
:1027E00070B50C46054600F0A9F820EA0401284619
:1027F000BDE8704000F0CAB82DE9FF5F0027FE2554
:10280000DDF838A016468B468146B8460C2805D020
:10281000B9F10E0F05D11227102001E077273020E3
:10282000804647F08001022000F0B0F880210420AB
:10283000FFF7D6FF0021012000F0A8F880210A2030
:1028400000F098F8002405E01BF80410092000F0BF
:102850009DF8641CB442F7D34946012000F096F875
:10286000B9F10C0F03D180210D2000F083F8294E1F
:10287000042000F063F80446761E04D0E00702D17D
:1028800014EA080FF4D080210D20FFF7A9FF36B11C
:10289000062000F053F810F01B0F0CD0FE2580210D
:1028A0000C2000F067F80021012000F06FF804B060
:1028B0002846BDE8F09F00253C40E00700D0FF25FA
:1028C000B9F10C0FEBD10A2000F038F804460C20C7
:1028D00000F034F810F007004FEAC40104D00839C2
:1028E0000844AAF8000001E0AAF8001024B1122C54
:1028F00004D91224002603E00124FBE7002605E0AA
:10290000092000F01BF803998855761CA642F7D3DE
:10291000C5E70000E093040010B50122102105482E
:10292000FEF73DFF0122BDE8104011460248FEF7C8
:1029300036BF000000080140000C014070B57E2148
:1029400001EA40000A4D40F0800400221021284690
:10295000FEF725FF204600F0B9FB002000F0B6FB93
:102960000446012210212846FEF719FF204670BDBB
:102970000008014070B50C460546FFF7DFFF40EA4E
:1029800004012846BDE87040AFF3008070B50E46E4
:102990007E2101EA4004094D002210212846FEF75D
:1029A000FEFE204600F092FB304600F08FFB2846EA
:1029B000BDE8704001221021FEF7F1BE0008014081
:1029C0002DE9F04385B00026444800960196029612
:1029D0000396816941F010018161816901F0100164
:1029E0000491816941F020018161816901F0200138
:1029F0000491816941F004018161816901F0040160
:102A00000491816941F0080181618069344F00F0CF
:102A100008004FF4C0440490012221463846FEF7D6
:102A2000BEFEDFF8C080012210214046FEF7B7FE4F
:102A3000DFF8B490012242F261114846FEF7AFFE82
:102A4000002280214846FEF7AAFE009401240325B7
:102A5000694638460194CDE90245FEF7ABFDE00337
:102A6000CDE90006694602943846FEF7A3FD0095BD
:102A7000CDE9016469464046FEF79CFD1020CDE992
:102A8000000469464046CDE90245FEF793FD0094F7
:102A9000694648460194CDE90245FEF78BFD600387
:102AA000CDE900040220CDE9020569464846FEF75B
:102AB00081FD4FF4F07003958DE85100694648465A
:102AC000FEF778FD6002CDE90006694602944846AB
:102AD000FEF770FD05B0BDE8F08300000010024075
:102AE0000010014000080140000C0140104810B5E2
:102AF0000E4901604FF48271416000218160C16024
:102B00004FF400720161C0E905121822C0E90721E3
:102B1000416281620A21C162FFF750F9002803D0A7
:102B2000BDE81040FEF786BA10BD0000003001403D
:102B30003400002010B50F4C0D480C2120604FF4DC
:102B4000614060600020A060E060C4E90401A06111
:102B5000E0612046FFF708FC08B1FEF76BFA206839
:102B60004068BDE81040012203490248FFF76EBCEF
:102B7000004800408C00002078050020FEE7FEE7BA
:102B800030B40021084B0A465FF0000003EBC0049C
:102B9000401CC0B262548028F8D3491CC9B208292D
:102BA000F2D330BC00F08EB8F800002030B5CC086D
:102BB00001F0070301259D40EBB2064D05EBC00572
:102BC000C808285C0AB1184302E063EA0000C04369
:102BD000285530BDF800002010B50021AE2000F0CF
:102BE0009AF90021084600F096F90021102000F023
:102BF00092F90021402000F08EF90021812000F0A0
:102C00008AF90021CF2000F086F90021A12000F0F0
:102C100082F90021C82000F07EF90021A62000F0F2
:102C20007AF90021A82000F076F900213F2000F079
:102C300072F90021D32000F06EF90021084600F05F
:102C40006AF90021D52000F066F90021802000F00B
:102C500062F90021D92000F05EF90021F12000F096
:102C60005AF90021DA2000F056F90021122000F074
:102C700052F90021DB2000F04EF90021302000F055
:102C80004AF90021202000F046F90021022000F03E
:102C900042F900218D2000F03EF90021142000F0BF
:102CA0003AF9FFF76DFF0021BDE81040AF2000F0BA
:102CB00032B90246012000E05043491EC9B2FBD29E
:102CC0007047000070B5184E002400BF04F1B0003A
:102CD000C0B2002100F01FF90021084600F01BF9E6
:102CE0000021102000F017F9FFF72EFC782000F0EB
:102CF00075FAFFF765FC402000F070FAFFF760FC02
:102D00005FF0000506EBC500005D00F067FAFFF715
:102D100057FC6D1CEDB2802DF4D3FFF737FC641C1B
:102D2000E4B2082CD2D370BDF80000202DE9FC4F8E
:102D30001C460E4682468B460190082B0DD060073C
:102D400000D0012000EBD40061084843C0B28146A6
:102D5000203AD0B2009000204BE00620F7E7082C84
:102D600013D00C2C18D0102C1BD0182C44D1009848
:102D7000234900EBC00000BF01EB8001002711F8E0
:102D80000850E80712D00B9A13E000981D4900EB99
:102D9000400001EB4001F1E700981B4900EB4000C7
:102DA000EAE71A49009801EB0011E7E70B9828B30E
:102DB000002231465046FFF7F9FE761C7F1C6D0855
:102DC000FFB2F6B2082FDCD30AF1010000F0FF0ACF
:102DD000082C0AD00199AAEB0100B0EB540F04D1E2
:102DE0000BF108008A4600F0FF0B08F101005E4677
:102DF000C0B280464845B2D3BDE8FC8F0122D8E777
:102E0000D64A00084A3E000872400008E64400081E
:102E10002DE9F84F0025DDE90A691F4692468B46E9
:102E20008046082E00D1022500241BE0381B401EDE
:102E3000C1B21020FFF73DFFBAFBF0F000F00F0227
:102E400005EB560101FB04800A2AC0B233465946FD
:102E5000CDF8009001D2303200E03732FFF766FF44
:102E6000641CE4B2BC42E1D3BDE8F88F2DE9F84F11
:102E70000025DDE90A691F4692468B468046082EEA
:102E800000D1022500241CE0381B401EC1B20A20DC
:102E9000FFF70FFFBAFBF0F00A21B0FBF1F201FBE4
:102EA0001200CDF8009080B13030C2B205EB56016F
:102EB00001FB0480C0B233465946FFF737FF641C5C
:102EC000E4B2BC42E0D3BDE8F88F05EB560101FB4C
:102ED0000480C0B233463022EEE72DE9F8411E46A9
:102EE000154688460446079F0BE033464146204678
:102EF0000097FFF71BFF082E0AD004EB5600C4B260
:102F00006D1C2A78A2F120005E28EED9BDE8F88178
:102F1000A41DE4B2F4E770B50C460546FFF714FBB8
:102F2000782000F05BF9FFF74BFB0CB1402000E08C
:102F3000002000F053F9FFF743FB284600F04EF95C
:102F4000FFF73EFBBDE87040FFF720BB03211420D4
:102F5000FFF746BC10B51420FFF7F0FC800705D141
:102F60000321BDE810401420FFF704BD10BD70B56B
:102F70000646082188B000240846FFF731FC0021EE
:102F80000D20FFF703FD80210E20FFF729FC932081
:102F90008DF8040020208DF8050006A801AB0090F4
:102FA000022219460C20FFF727FC05000DD1002155
:102FB00001A8425C7254425C491C5440C9B20429C5
:102FC000F7D3405CA04200D0FE2580210E20FFF701
:102FD000D1FC08B0284670BD10B5FFF79DFC00F08D
:102FE0002FF8FFF7B3FFBDE81040FFF7B3BF30B5D0
:102FF0000C460546082187B00846FFF7F1FB07217C
:103000000D20FFF7C3FC03211420FFF7B3FC06A833
:1030100001AB00908DF80450012219460C20FFF7F7
:10302000EBFB002809D1BDF81810102905D19DF837
:10303000041021709DF80510617007B030BD0000CC
:1030400010B5204C012211462046FEF7A8FB0220B5
:10305000FEF7ECF9002201212046FEF7A0FB02203A
:10306000FEF7E4F9012211462046FEF798FB022004
:10307000FEF7DCF90F210120FFF788FC0220FEF7A4
:10308000D5F93D211120FFF781FC1E212D20FFF7EE
:103090007DFC00212C20FFF779FC8D212A20FFF7F1
:1030A00075FC3E212B20FFF771FC40211520FFF716
:1030B0006DFCFFF74BFF0220FEF7B8F9BDE81040AA
:1030C000FFF748BF000C01407047000001B582B017
:1030D0000A200090012301AA02A90348FEF700FF7D
:1030E0009DF804000EBD000034000020F8B5154620
:1030F0000E460B46009204460122022100F010F811
:1031000040B93346002280212046009500F008F89F
:10311000002804D0606D40F0200060650320F8BDF9
:103120002DE9F8431E46914688460446089DFEF761
:103130003BFB401B351AFEF737FB07462548006866
:10314000C0F3CB30684338E0701C37D0FEF72CFB5F
:10315000C01BA84203D215B1009860B32CE02068D0
:10316000416821F0E00141606068B0F5827F0BD1D9
:10317000A068B0F5004F02D0B0F5806F04D1206890
:10318000016821F040010160A06AB0F5005F09D13B
:103190002068016821F4005101602068016841F451
:1031A00000510160012084F85100002084F8500093
:1031B0000320BDE8F8830025401E00902068816848
:1031C00038EA010004D000214945BDD10020F0E7D4
:1031D0000121F9E710000020704700002DE9F041BF
:1031E000124F002405464FF480487E14280601D56E
:1031F000012200E0002241463846FEF7D0FAFFF7F0
:10320000FBF9012231463846FEF7C9FAFFF7F4F917
:10321000002231463846FEF7C2FA6806641C050EE5
:10322000E4B2082CE2D3BDE8F081000000100140B8
:10323000FEF7C0BA30B58FB028216846FDF71CF8FC
:1032400014210AA8FDF718F801210804CDE900109F
:103250000024029402250491CDE907504FF4E010B8
:1032600009906846FEF71AFC08B172B6FEE70F2017
:10327000CDE90A054FF48060CDE90C4002210AA88F
:103280000E94FEF72FFB002801D072B6FEE70FB0B8
:1032900030BD704710B5406A0021C185C184FEF77A
:1032A0002CFF10BD01680C3151E8002F22F4907200
:1032B00041E80023002BF5D10168143151E8002FBB
:1032C00022F0010241E80023002BF5D1016B012916
:1032D00009D101680C3151E8002F22F0100241E8B9
:1032E0000023002BF5D1202180F84210002101633A
:1032F000704708B590F84210222901D0022008BD7D
:1033000082684FF480539A4201D1016921B1816AE8
:103310009A421BD04AB10AE00268816A5268C2F33D
:1033200008020A80816A891C08E0026972B1026899
:10333000526802F07F020A70816A491C8162C18D65
:10334000491E0904090CC18503D01BE002685268BC
:10335000F1E70168CA6822F02002CA600168CA6801
:1033600022F48072CA6001684A6922F001024A614F
:10337000202180F8421000214163026B012A03D012
:10338000FFF772F8002008BD016301680C3151E8B5
:10339000002F22F0100241E80023002BF5D1016834
:1033A0000A68D20602D50A6849680091818DFEF745
:1033B000A3FEE7E770B5044600680169E26821F4FE
:1033C0004051114301612169A068084361690843C4
:1033D0002168CA6841F20C639A430243CA602068BC
:1033E0004169A26921F44071114341611E4920687D
:1033F000884202D1FEF71CFB01E0FEF709FB00EB5F
:10340000C00101EB0012606864218000B2FBF0F3A0
:10341000B3FBF1F36FF018067343B2FBF0F5B2FBA8
:10342000F0F605EB8305322303EB0515B5FBF1F54B
:10343000B6FBF1F605F0F00505EB0615B2FBF0F66C
:10344000B2FBF0F0B0FBF1F06FF01802504306EB66
:10345000800003EB0010B0FBF1F0216800F00F00DA
:103460002844886070BD0000003801408162828578
:10347000C28500214164222180F84210016921B1F6
:103480000168CA6842F48072CA6001684A6942F001
:1034900001024A610068C16841F02001C16000205A
:1034A00070472DE9F843984617460D460446089E96
:1034B00024E0701C22D0FEF777F9A0EB0800B042A0
:1034C0001AD8CEB12068C168490717D5802D15D00C
:1034D000402D13D00168C94309070FD401680025A6
:1034E000406800902046FFF7DDFE0820606484F805
:1034F00040500120BDE8F8830320FBE72068006806
:1035000035EA000004D00020B842D2D00020F1E714
:103510000120F9E730B595B06846FDF77FFE00223F
:10352000134611466C460CE004EBC1052D79012DC4
:1035300002D0022D02D002E0012200E00123491C4A
:10354000C9B28142F0D31AB113B1012015B030BD18
:103550000020FBE72DE9F04796B0FFF711FB0125AE
:103560000021082323A208460095FFF7B6FC02A815
:10357000FDF754FE061E09D04FF0000430D90DF1BE
:10358000080A4FF008084FF0100907E008231DA2B1
:10359000102100200095FFF7A0FC21E009EB0410AA
:1035A000C7B2CDE900850123621C39460020FFF730
:1035B0005DFC082316A2394618460095FFF78DFCDE
:1035C000CDE900850AEBC4000123027939461020B9
:1035D000FFF74CFC641CE4B2B44201D2032CDDD3EF
:1035E000FFF770FB40F6B830FDF720FF16B0BDE8DE
:1035F000F0870000466C6173682043617264733A1F
:10360000000000004E6F20636172647321000000AF
:103610003A000000FDF70ABB0448082101700021B0
:10362000817101214172FDF747B800001C000020A4
:103630000348042101700021C170FDF759BC00004E
:103640001C0000202DE9F04FFA4C0546002620789A
:10365000012795B04FF008084FF004094FF0030B15
:103660004FF4967A0D284DD2DFE800F00716343C6F
:103670005E86974CB3E7F8F7F600082D09D00C2DBD
:1036800040D184F800B0A67015B0BDE8F04FFDF74A
:1036900091B8277066700DE02846FEF7B2FF01284A
:1036A00005D00221022804D0102D08D012E0677046
:1036B00000E0617015B0BDE8F04FFDF763BC6078C5
:1036C000012801D002281DD1217015B0BDE8F04FAE
:1036D000FDF7C0BB082D15D1267015B0BDE8F04F21
:1036E000FDF7A4BA6846FDF799FD801CB0FBFBF01E
:1036F000C0B2012D09D0032D0DD0082D02D12670A6
:10370000FDF794FA15B0BDE8F08FA0780028F9D045
:10371000401EA07005E0A178401E8142F2DA491CEB
:10372000A170FDF747F8EDE72846FEF76AFF01288C
:103730001FD00228CED106202070FFF721FA0021E9
:103740000823BDA208460097FFF7C7FB0823BFA2C6
:10375000102100200097FFF7C0FB0823BFA23021F3
:1037600000200097FFF7B9FB15B0BDE8F04FFFF759
:10377000A9BA052020701BE02846FEF742FFAD4A9B
:1037800001460C32FF2806D02079042803D21154B8
:10379000401C20710DE0102D04D0082DB2D184F80A
:1037A000009027E020790428ACD10020115C29B1D9
:1037B000267115B0BDE8F04FFDF7F4BA401CC0B259
:1037C0000428F3D30720207015B0BDE8F04F00F0B7
:1037D0009BBA2846FEF715FF401E042801D8A071A9
:1037E000E3E0102D0BD0082D8CD100BF84F80090A1
:1037F0006672E67015B0BDE8F04FFDF779BBA079B1
:10380000052890D2DFE800F004090D110300EDE770
:1038100009202070E671267227E00A202070668158
:103820005EE00B202070668192E00C202070A67074
:1038300015B0BDE8F04FFDF7E9B82846FEF7E1FE08
:103840007C4A1032131DFF2814D0E179042906D2D6
:103850005054491CE17108E0AEE064E02BE0217AAD
:10386000042907D25854491C217215B0BDE8F04F05
:10387000FDF710BA102D1BD1207A04288ED100201C
:10388000115C1D5CA94205D0FFF77AF9082376A2E6
:1038900000977EE0401CC0B20428F1D3FFF770F916
:1038A00064481030FDF732FD082373A2009770E0E2
:1038B000082D78D026E72846FEF7A3FEFF2814D06F
:1038C000092812D8618964290FD201EB810100EB2C
:1038D000410080B26081504502D340F22B106081DC
:1038E00015B0BDE8F04FFDF749B9102DE0D1608962
:1038F000504558D2FFF744F90021082362A2084638
:103900000097FFF7EAFAFFF7DDF96089FCF768FD39
:103910000546FFF735F94FF0080300970DB15EA299
:1039200037E061A235E02846FEF76BFEFF2814D091
:10393000092812D8618964290FD201EB810100EBBB
:10394000410080B26081504502D340F22B1060816B
:1039500015B0BDE8F04FFDF70FB8102DA8D1608964
:10396000504520D2FFF70CF90021082352A2084647
:103970000097FFF7B2FAFFF7A5F901216089FCF77C
:1039800010FD0546FFF7FCF84FF0080300978DB1D6
:103990004CA210210020FFF7A0FAFFF793F94FF493
:1039A000FA60FDF743FD84F8008015B0BDE8F04FE4
:1039B000FCF782BE47A2ECE701A8FDF72FFC811CB3
:1039C000B1FBFBF1C9B2012D0BD0022D0ED0032D9E
:1039D00013D0082D7FF4A7AE84F80080FCF76CFEAE
:1039E00090E6A0780028FBD0401E04E0A078491E95
:1039F0008842F5DA401CA07019E0A17801EB410182
:103A0000C9B2814213D201A850F83100FDF722FC5F
:103A1000FFF7B6F8082333A2102100200097FFF724
:103A20005CFAFFF74FF940F2DC50FDF7FFFCFCF7C2
:103A3000EDFF67E61C0000205363616E2046696E4F
:103A40006765727072696E7400000000506C61638B
:103A5000652066696E6765722E2E2E004B455938BB
:103A60003A4261636B00000050494E204D69736D0E
:103A7000617463682100000050494E204368616E04
:103A80006765642100000000456E726F6C6C696EA2
:103A9000672E2E2E00000000456E726F6C6C204663
:103AA00061696C6564210000456E726F6C6C205317
:103AB000756363657373210044656C6574696E6733
:103AC0002E2E2E0044656C657465204661696C6518
:103AD0006421000044656C657465205375636365FB
:103AE00073732100436172642044656C657465647E
:103AF0002100000008490020074A087048708870BB
:103B0000C8700871487101460C325054491CC9B242
:103B10000429FAD3704700001C000020F0B5684C5F
:103B200097B02078072813D000260125022811D04D
:103B30000727062878D0042877D00528FCD0082845
:103B400006D169462620FFF752FA002800D0667297
:103B500017B0F0BD03A92620FFF749FA0028F7D1D6
:103B600002A8FFF704FA0028F2D102989DF80B1082
:103B700000BA20F0FF0008436178FDF7E7FA074636
:103B8000FEF7FEFFE7B1012F50D0022F4FF00803E0
:103B900000954FD04BA200210846FFF79EF908235D
:103BA0004AA2302100200095FFF797F9FFF78AF825
:103BB0004FF4FA60FDF73AFC2670FDF737F8C7E7D7
:103BC0000021082344A208460095FFF786F9082340
:103BD00046A2102100200095FFF77FF90827CDE9C4
:103BE00000759DF80820022310211820FFF710F916
:103BF000CDE900759DF80920022310212820FFF748
:103C000007F9CDE900759DF80A200223102138201C
:103C1000FFF7FEF8CDE900759DF80B200223102177
:103C20004820FFF7F5F8BAE706E00FE0082330A2D6
:103C30000095B0E730A2AEE701A96846FCF724FD85
:103C4000002885D1277000F05FF881E715A92620AC
:103C5000FFF7CDF908B166717AE760790028AED137
:103C600014A8FFF784F90028A9D1149800BA20F00D
:103C7000FF069DF8530006436846FDF7CFFA002182
:103C80006A4613E052F83130B34206D102EBC10C60
:103C90009CF804C0BCF1010F0BD0B34204D102EB7D
:103CA000C1031B79022B06D0491CC9B28142E9D35A
:103CB0004EE76571C6E76571FFF7AEFC48E70000A7
:103CC0001C0000204572726F722100004B4559386C
:103CD0003A4261636B0000005265676973746572F4
:103CE00020537563636573732100000049443A00F3
:103CF00046756C6C21000000416C7265616479202E
:103D00004578697374210000F8B50122144E5503FB
:103D100029463046FDF743FDFEF732FF0124082314
:103D200010A2102100200094FFF7D7F8FEF7CAFF79
:103D300040F6B830FDF77AFB002229463046FDF701
:103D40002EFD0C4D00210846297105F10C0211547D
:103D5000401CC0B20428FAD3FFF76AFC6C71F8BDAE
:103D6000000C014020202020207965732020202095
:103D7000200000001C0000200148FEF7BFB9000031
:103D80008C000020FEE70907090E002804DB00F183
:103D9000E02080F80014704700F00F0000F1E020F0
:103DA00080F8141D70470000FDF70CFDFFF742FA84
:103DB000FEF706FEFEF79AFEFEF7BCFE00224FF469
:103DC00000511548FDF7EBFCFEF706FFFDF7F6F98D
:103DD000FFF790FEFFF7BEFBFFF79CFB10B1FFF76C
:103DE00027FC01E0FFF716FCFFF7F6F8FCF747FBAE
:103DF0000A4D00BFFEF728FC040005D02878844255
:103E000002D02046FFF71EFC2C70FFF787FE322001
:103E1000FDF70CFBEEE70000000C01400000002065
:103E2000010202030405060708090A0B0C0D0E0F18
:103E3000101000000000000000000102030406074B
:103E40000809000000000102030400000000000057
:103E50000000002F000000000700070000147F147E
:103E60007F1400242A7F2A1200626408132300367C
:103E70004955225000000503000000001C224100AB
:103E8000000041221C000014083E08140008083EEF
:103E90000808000000A060000008080808080000EA
:103EA00060600000002010080402003E5149453EB9
:103EB0000000427F400000426151494600214145D7
:103EC0004B31001814127F10002745454539003C3E
:103ED0004A4949300001710905030036494949360C
:103EE00000064949291E00003636000000005636FB
:103EF00000000008142241000014141414140000DF
:103F00004122140800020151090600324959513E6C
:103F1000007C1211127C007F49494936003E414124
:103F20004122007F4141221C007F49494941007FD5
:103F300009090901003E4149497A007F0808087FC4
:103F40000000417F4100002040413F01007F0814F4
:103F50002241007F40404040007F020C027F007FF2
:103F60000408107F003E4141413E007F09090906D7
:103F7000003E4151215E007F09192946004649490A
:103F800049310001017F0101003F4040403F001FD7
:103F90002040201F003F4038403F00631408146356
:103FA00000070870080700615149454300007F4140
:103FB000410000552A552A55000041417F00000468
:103FC00002010204004040404040000001020400A1
:103FD000002054545478007F484444380038444406
:103FE000442000384444487F003854545418000892
:103FF0007E0901020018A4A4A47C007F08040478B0
:104000000000447D4000004080847D00007F102837
:1040100044000000417F4000007C04180478007CCC
:104020000804047800384444443800FC242424184C
:104030000018242418FC007C080404080048545488
:10404000542000043F444020003C4040207C001CA1
:104050002040201C003C4030403C004428102844B4
:10406000001CA0A0A07C004464544C4414141414FC
:104070001414000000000000000000000000000018
:10408000FC000000000002000000000C020C020016
:1040900000000000000090D0BCD0BC9000030003E2
:1040A00000001824FE448C000302070201001824BB
:1040B000D8B04C80000300010201C038E438E000B1
:1040C00001020201020208060000000000000000D8
:1040D0000000000000F804020000000102040002D9
:1040E00004F800000004020100009060F8609000F5
:1040F0000000010000002020FC2020000000010042
:104100000000000000000000080600000000202061
:10411000202020000000000000000000000000003F
:104120000002000000000080601C02000403000088
:104130000000F8040404F800010202020100000873
:10414000FC00000000020302000018844424180050
:1041500003020202020008042424D8000102020221
:10416000010040B088FC80000000000302003C24F5
:104170002424C400010202020100F824242CC000FF
:104180000102020201000C04E41C04000000030010
:104190000000D8242424D80001020202010038447F
:1041A0004444F80000030202010000001000000077
:1041B00000000200000000002000000000000600D7
:1041C00000000020508804020000000001029090CE
:1041D0009090900000000000000000020488502031
:1041E0000002010000001804C424180000000200AE
:1041F0000000F804E494F80001020202020000E06A
:104200009CF0800002030000030204FC2424D80078
:10421000020302020100F80404040C00010202027D
:10422000010004FC0404F80002030202010004FC83
:1042300024740C0002030202030004FC24740C002A
:10424000020302000000F0080444CC400001020216
:10425000010004FC2020FC0402030000030204040B
:10426000FC040400020203020200000404FC040433
:1042700006040403000004FC24D00C040203020022
:10428000030204FC04000000020302020203FC3CDF
:10429000C03CFC0003000300030004FC30C4FC0429
:1042A000020302000300F8040404F8000102020201
:1042B000010004FC24241800020302000000F8841A
:1042C0008404F80001020207050004FC246498003D
:1042D000020302000302182424448C000302020299
:1042E00001000C04FC040C0000020302000004FCAA
:1042F0000000FC04000102020100047C80E01C04B8
:104300000000030000001CE03CE01C000003000370
:104310000000049C609C0400020300030200041CD3
:10432000E01C04000002030200000C84641C040072
:104330000203020203000000FE0202000000070464
:104340000400000E30C00000000000010200000266
:1043500002FE000000040407000000040204000044
:10436000000000000000000000000000080808082D
:1043700008080000020000000000000000000040EB
:10438000A0A0C00000010202030204FC2020C00023
:1043900000030202010000C02020600000010202B0
:1043A000020000C02024FC0000010202030200C041
:1043B000A0A0C0000001020202000020F824240492
:1043C0000002030202000040A0A0602000070A0AC9
:1043D0000A0404FC2020C0000203020003020020A3
:1043E000E4000000000203020000000020E40000DE
:1043F00008080807000004FC80E0202002030200F7
:1044000003020404FC000000020203020200E02098
:10441000E020C00003000300030020E02020C000D3
:1044200002030200030200C02020C00000010202BB
:10443000010020E02020C000080F0A02010000C097
:104440002020E0000001020A0F0820E040202000A8
:104450000203020000000060A0A02000000202028F
:1044600003000020F820000000000102020020E00C
:104470000020E00000010202030220E02080602012
:104480000000030100006080E08060000003000382
:10449000000020608060200002030003020020E092
:1044A000208060200808070100000020A060200094
:1044B000000203020200000020DE020000000007EC
:1044C0000400000000FF00000000000F00000002D8
:1044D000DE200000000407000000020102040402C4
:1044E00000000000000000000000000000000000CC
:1044F000000000000000000000F8000000000000C4
:1045000000333000000000100C06100C0600000004
:1045100000000000000040C07840C0784000043F28
:1045200004043F040400007088FC083000000018F8
:1045300020FF211E0000F008F000E018000000211C
:104540001C031E211E0000F00888700000001E21C0
:1045500023241927211010160E000000000000006F
:10456000000000000000000000E01804020000004D
:1045700000071820400000020418E000000000407E
:10458000201807000000404080F0804040000202F8
:10459000010F01020200000000F000000000010114
:1045A000011F01010100000000000000000080B0B8
:1045B000700000000000000000000000000000018A
:1045C00001010101010100000000000000000030B5
:1045D000300000000000000000008060180400604F
:1045E00018060100000000E010080810E000000FAD
:1045F000102020100F00001010F800000000002014
:10460000203F20200000007008080888700000305B
:104610002824222130000030088888483000001803
:10462000202020110E000000C02010F8000000071C
:104630000424243F240000F8088888080800001992
:10464000212020110E0000E0108888180000000FC3
:10465000112020110E0000380808C838080000009A
:10466000003F000000000070880808887000001CEF
:10467000222121221C0000E010080810E0000000A8
:10468000312222110F00000000C0C0000000000015
:10469000003030000000000000800000000000003A
:1046A0008060000000000000804020100800000131
:1046B00002040810200040404040404040000404F4
:1046C00004040404040000081020408000000020BE
:1046D000100804020100007048080808F0000000FB
:1046E000003036010000C030C828E810E00007188C
:1046F000272423140B000000C038E0000000203CF9
:1047000023020227382008F8888888700000203F9C
:10471000202020110E00C0300808080838000718B3
:1047200020202010080008F808080810E000203FAA
:10473000202020100F0008F88888E8081000203F8B
:1047400020202320180008F88888E8081000203F5F
:10475000200003000000C0300808083800000718D7
:104760002020221E020008F808000008F808203F58
:10477000210101213F20000808F80808000000205E
:10478000203F2020000000000808F8080800C08032
:1047900080807F00000008F888C028180800203FAB
:1047A00020012638200008F8080000000000203F03
:1047B00020202020300008F8F800F8F80800203FFA
:1047C000003F003F200008F830C00008F808203FF4
:1047D000200007183F00E01008080810E0000F1044
:1047E000202020100F0008F808080808F000203FDB
:1047F000210101010000E01008080810E0000F1876
:10480000242438504F0008F8888888887000203F9A
:104810002000030C30200070880808083800003899
:10482000202121221C00180808F8080818000000A0
:10483000203F2000000008F808000008F808001FCA
:10484000202020201F000878880000C838080000B9
:1048500007380E010000F80800F80008F800033CD3
:104860000700073C0300081868808068180820309B
:104870002C03032C30200838C800C838080000007A
:10488000203F2000000010080808C8380800203821
:10489000262120201800000000FE02020200000075
:1048A000007F40404000000C30C0000000000000CD
:1048B00000010638C00000020202FE0000000040B5
:1048C00040407F00000000000402020204000000DB
:1048D00000000000000000000000000000008080D8
:1048E00080808080808000020204000000000000C0
:1048F000000000000000000080808080000000199F
:10490000242222223F2008F8008080000000003F7F
:10491000112020110E000000008080800000000E99
:10492000112020201100000000808088F800000E77
:10493000112020103F200000808080800000001F98
:10494000222222221300008080F08888881800200C
:10495000203F202000000000808080808000006BCD
:1049600094949493600008F8008080800000203FB9
:10497000210000203F2000809898000000000020C7
:10498000203F20200000000000809898000000C018
:104990008080807F000008F8000080808000203F39
:1049A00024022D302000000808F80000000000203C
:1049B000203F202000008080808080808000203F79
:1049C00020003F20003F8080008080800000203F4A
:1049D000210000203F200000808080800000001F18
:1049E000202020201F00808000808000000080FFA9
:1049F000A12020110E000000008080808000000EA9
:104A0000112020A0FF8080808000808080002020F6
:104A10003F21200001000000808080808000003362
:104A2000242424241900008080E0808000000000FD
:104A3000001F202000008080000000808000001FF8
:104A4000202020103F208080800000808080000196
:104A50000E300806010080800080008080800F30CA
:104A60000C030C300F00008080008080800000204C
:104A7000312E0E3120008080800000808080808177
:104A80008E701806010000808080808080000021E8
:104A9000302C2221300000000000807C0202000047
:104AA0000000003F404000000000FF000000000048
:104AB0000000FF0000000002027C800000000040B7
:104AC000403F000000000006010102020404000053
:104AD00000000000000000000000000000000000D6
:104AE00000000000000000000000000000000000C6
:104AF000000000000000000000000000000000F0C6
:104B0000F0F0000000000000000000017F01000044
:104B1000000000000000001C1C1C00000000000041
:104B20008060301C8C60301C0C0000000000000015
:104B30000000000000000000000000000000000075
:104B40000000000000E00000000000E0000000861F
:104B5000E69F86868686E69F860000011F0101018A
:104B600001011F010100000080C06020F820E0C0AA
:104B70000000000003070C18FF70E1810000000036
:104B8000070F10107F100F0700008060206080006A
:104B90000000E02000000F3020309F70DC37103024
:104BA000C0000000100E03000718101807000000D6
:104BB000C02020E0C0000000000080E01F38E8872F
:104BC00003C43C040000070F1810100B070D101051
:104BD000080000808C4C380000000000000000003D
:104BE00000000000000000000000000000000000C5
:104BF00000000000000000000000000080E030081D
:104C000004000000000000FEFF01000000000000A2
:104C100000000000030F1820400000040830E0806E
:104C20000000000000000000000001FFFE00000086
:104C30000000004020180F030000000000000000EA
:104C400000000000C00000000000004266663C1842
:104C5000FF183C66664200000000000003000000F0
:104C600000000000000000008000000000000010B4
:104C700010101010FF1010101010000000000000A5
:104C80000300000000000000000000000000000021
:104C90000000000000000000000000000000008094
:104CA0008C4C3800000000000000000000000000F4
:104CB0000000000000000010101010101010101064
:104CC00010000000000000000000000000000000D4
:104CD00000000000000000000000000000000000D4
:104CE00000000000000000001C1C1C000000000070
:104CF00000000000000000000000E0380C00000090
:104D0000000080701C03000000000060380E0100ED
:104D1000000000000000000080C060202060C08013
:104D2000000000FEFF010000000001FFFE00000186
:104D3000070E181010180E0701000000808080C0B8
:104D4000E000000000000000000000FFFF00000085
:104D5000000000001010101F1F1010100000008035
:104D6000402020202060C08000000003030080401D
:104D700020381F070000001C1A1918181818181FCF
:104D800000000080C020202060C0800000000003E0
:104D900003001010182FE780000000070F101010FC
:104DA00010180F070000000000000000C0E0F00035
:104DB000000000C0B088868180FFFF808000000076
:104DC00000000010101F1F1010000000E060606065
:104DD00060606060000000003F1008080818F0E004
:104DE000000000070B101010101C0F030000000043
:104DF00080C040202020E0C0000000FCFF211008FF
:104E0000080818F0E0000001070C18101010080F37
:104E100003000000C0E06060606060E060000000CF
:104E200003000000E0180700000000000000001F61
:104E30001F00000000000080C0602020202060C013
:104E400080000087EF2C1818303068CF83000007EF
:104E50000F0810101010180F07000000C0C020200D
:104E60002020C0800000001F3F604040402010FF15
:104E7000FE0000000C1C101010080F0300000000C2
:104E80000000000000000000000000000000000E14
:104E90000E0E0000000000000000001C1C1C0000A2
:104EA0000000000000000000000000000000000002
:104EB0000000000C0C000000000000000000005882
:104EC00038000000000000000000000000804020CA
:104ED00010000000102844820100000000000000C3
:104EE00000000000010204081000000000000000A3
:104EF000000000000000008484848484848484840E
:104F0000840000000000000000000000000000001D
:104F100010204080000000000000000000000000A1
:104F20000182442810000000100804020100000063
:104F3000000000C020201010101030E0C00000035E
:104F4000030000F010080C070300000000001C1C08
:104F50001C0000000000000000C040602020204035
:104F6000C00000FCFF01F00E03C1FE03807F0001C2
:104F7000070E08111110110904020000000080E062
:104F8000E000000000000000807C4340477FF88084
:104F9000000010181F1000000000131F1C1020E05C
:104FA000E02020202060C080000000FFFF101010D3
:104FB00010182FE78000101F1F1010101010180F6E
:104FC0000700000080C0402020202060E00000FC9E
:104FD000FF0100000000000001000001070E181092
:104FE00010100804030020E0E02020202040C080B2
:104FF000000000FFFF000000000001FFFE00101F86
:105000001F10101018080E07010020E0E0202020DB
:1050100020202060800000FFFF101010107C000096
:105020000000101F1F10101010101018060020E0B4
:10503000E020202020206060800000FFFF10101082
:10504000107C00000100101F1F1000000000000075
:105050000000000080C06020202040E0000000FC34
:10506000FF0100004040C0C140400001070E181081
:1050700010100F0F000020E0E0200000000020E0F2
:10508000E02000FFFF101010101010FFFF00101F95
:105090001F1000000000101F1F100000202020E043
:1050A000E020202000000000000000FFFF000000C2
:1050B000000000001010101F1F1010100000000052
:1050C0000000202020E0E020202000000000000060
:1050D00000FFFF0000000060E0808080C07F3F0094
:1050E000000020E0E020000020A06020200000FF61
:1050F000FF30187CE3C000000000101F1F100000EC
:1051000001131F1C181020E0E02000000000000028
:10511000000000FFFF000000000000000000101F62
:105120001F10101010101018060020E0E0E0000022
:105130000000E0E0E02000FF013FFEC0E01E01FFB4
:10514000FF00101F1000031F0300101F1F1020E09E
:10515000E0C0000000000020E02000FF0003071C6A
:1051600078E08000FF00101F100000000000030F17
:105170001F00000080C060202060C080000000FE92
:10518000FF010000000000FFFE000001070E1810E4
:1051900010180C07010020E0E0202020202060C033
:1051A000800000FFFF2020202020301F0F00101F54
:1051B0001F100000000000000000000080C0602000
:1051C0002060C080000000FEFF010000000000FF22
:1051D000FE000001070E1111133C7C67210020E046
:1051E000E0202020202060C0800000FFFF10103051
:1051F000F0D0080F0700101F1F10000000030F1C45
:1052000010100080C060202020204040E0000007F7
:105210000F0C1818303060E08100001F0C081010CF
:105220001010180F07008060202020E0E0202020D0
:1052300060800100000000FFFF000000000100008E
:105240000000101F1F100000000020E0E020000000
:1052500000000020E02000FFFF0000000000000030
:10526000FF0000070F181010101010080700206032
:10527000E0E02000000020E060200000077FF880D0
:1052800000807C03000000000000071F1C070000D6
:10529000000020E0E02000E0E0200020E020000707
:1052A000FFF8E01FFFFCE01F00000000031F0300E9
:1052B000011F03000000002060E0A0000020E0606B
:1052C0002000000000038F7CF8C6010000000010E1
:1052D000181E130001171F1810002060E0E02000C6
:1052E000000020E06020000001073EF8E018070001
:1052F000000000000010101F1F10100000000080B0
:105300006020202020A0E0E0200000000000C0F08D
:105310003E0F0300000000101C1F17101010101883
:1053200006000000000000FC040404040400000067
:10533000000000FF00000000000000000000007FEF
:10534000404040404000000010E00000000000002D
:10535000000000000000031C60800000000000004E
:105360000000000000030C7080000000040404042E
:1053700004FC0000000000000000000000FF00002E
:105380000000000040404040407F0000000000005E
:105390000010080C040C08100000000000000000C1
:1053A00000000000000000000000000000000000FD
:1053B00000000000000000000000000000000000ED
:1053C00000000000000000000000808080808080DD
:1053D00080808080808000000004040808000000B5
:1053E00000000000000000000000000000000000BD
:1053F00000000000000000000000000000000000AD
:10540000000000000000000098D844642424FCF848
:105410000000000F1F18101010081F1F1018002088
:10542000E0F000000000000000000000FFFF18088E
:1054300004040CF8F00000001F0F18101010180FD3
:10544000030000000000000000000000000000E079
:10545000F8180404043C3800000000030F0C10107E
:105460001010080600000000000000000020E0F01E
:10547000000000E0F81C04040408FFFF0000000323
:105480000F18101010081F0F080000000000000087
:105490000000000000000000E0F8484444444C785C
:1054A00070000000030F0C1810101008040000001A
:1054B000000080C0602020E0C00000040404FFFF62
:1054C000040404040000000010101F1F101010003E
:1054D00000000000000000000000000000000000CC
:1054E00070F88C04048CF874040C007076CF8D8DE9
:1054F0008D89C87870000020E0F0000000000000F6
:1055000000000000FFFF08040404FCF80000001085
:105510001F1F100000101F1F10000000000000607F
:105520006000000000000000040404FCFC00000017
:10553000000000001010101F1F10101000000000CD
:105540000000000000606000000000000000040493
:1055500004FCFC0000000000C0C08080C07F3F0051
:1055600000000020E0F0000000000000000000004B
:10557000FFFF80C0F41C0404000000101F1F110076
:10558000031F1C1010000000202020E0F00000008D
:1055900000000000000000FFFF000000000000000D
:1055A0001010101F1F10101000000000000000005D
:1055B00000000000000004FCFC0804FCFC0804FCE3
:1055C000FC00101F1F10001F1F10001F1F100000E5
:1055D000000000000000000000000004FCFC0808BF
:1055E0000404FCF8000000101F1F100000101F1F13
:1055F000100000000000000000000000000000E0BB
:10560000F0180C04040C18F0E00000030F0C10104C
:1056100010100C0F0300000000000000000000004C
:1056200000000004FCFC080404040CF8F0000080F6
:10563000FFFF889010101C0F030000000000000006
:1056400000000000000000E0F81C04040408F8FC5E
:10565000000000030F1810109088FFFF800000006A
:1056600000000000000000000000040404FCFC1026
:105670000804040C0C001010101F1F101010000064
:10568000000000000000000000000000000000001A
:105690003078CCC48484840C1C0000001E181010C8
:1056A0001011190F06000000000000C000000000EB
:1056B000000000040404FFFF0404040000000000D4
:1056C00000000F1F1010100C000000000000000070
:1056D0000000000000000004FCFE00000004FCFECE
:1056E000000000000F1F181010081F0F0800000016
:1056F0000000000000000000000000040C3CFCC49E
:105700000000C43C0C0400000000010F1E0E01004C
:105710000000000000000000000000000000043C49
:10572000FCC400E47CFC84807C040000071F0700AC
:1057300000071F070000000000000000000000003C
:1057400000000004041C7CE4C0341C0404000010AD
:10575000101C1601131F1C18100000000000000090
:1057600000000000000000040C3CFCC400C43C0429
:1057700004000000C080C1370E01000000000000DE
:105780000000000000000000000000001C0404C431
:10579000F47C1C0400000000101C1F1711101018CE
:1057A0000E0000000000000000F80C0400000000E3
:1057B0000000001028EF00000000000000000000C2
:1057C000003F60400000000000000000FF000000FB
:1057D0000000000000000000FF00000000000000CA
:1057E00000000000FF00000000000000040CF800B2
:1057F00000000000000000000000EF281000000082
:105800000000000040603F000000000000000018A1
:1058100006020204081020203008000000000000EA
:105820000000000000000000000000000000000078
:105830000000000054580008000000203400000060
:10584000280100088858000834000020A40C00003B
:1058500044010008000000000100000010000000EA
:105860000000000000127A0000000000FFFFFFFFB0
:105870000000000000000000000000000000000028
:08588000000000000000000020
:04000005080000ED02
:00000001FF
