:020000040800F2
:10000000C00C002089010008B31F0008D7190008A0
:10001000B11F0008DF020008052B000800000000E7
:100020000000000000000000000000000D26000895
:10003000E102000800000000FD2400086526000819
:10004000A3010008A3010008A3010008A301000800
:10005000A3010008A3010008A3010008A3010008F0
:10006000A3010008A3010008A3010008A3010008E0
:10007000A3010008A3010008A3010008A3010008D0
:10008000A3010008A3010008A3010008A3010008C0
:10009000A3010008A3010008A3010008A3010008B0
:1000A000A3010008A3010008A3010008A3010008A0
:1000B000A3010008A3010008A3010008A301000890
:1000C000A3010008A3010008A3010008A301000880
:1000D000A3010008A3010008A3010008F92A0008F1
:1000E000A3010008A3010008A301000800F002F822
:1000F00000F03AF80AA090E8000C82448344AAF188
:100100000107DA4501D100F02FF8AFF2090EBAE885
:100110000F0013F0010F18BFFB1A43F0010318473B
:100120007044000090440000103A24BF78C878C1A1
:10013000FAD8520724BF30C830C144BF04680C60ED
:10014000704700000023002400250026103A28BF35
:1001500078C1FBD8520728BF30C148BF0B60704739
:100160001FB51FBD10B510BD00F06BF81146FFF7AD
:10017000F7FF02F0D9FC00F089F803B4FFF7F2FFB3
:1001800003BC00F091F80000094880470948004787
:10019000FEE7FEE7FEE7FEE7FEE7FEE7FEE7FEE737
:1001A000FEE7FEE704480549054A064B7047000094
:1001B000C7260008ED000008C0060020C00C002083
:1001C000C0080020C0080020B2F120030AD5C2F107
:1001D000200320FA02F001FA03F321FA02F140EAC7
:1001E0000300704721FA03F04FF0000170474FF011
:1001F000000200B5134694469646203922BFA0E877
:100200000C50A0E80C50B1F12001BFF4F7AF090782
:1002100028BFA0E80C5048BF0CC05DF804EB890073
:1002200028BF40F8042B08BF704748BF20F8022BB6
:1002300011F0804F18BF00F8012B704770477047CE
:100240007047754600F02CF8AE46050069465346E7
:1002500020F00700854618B020B5FFF7A3FFBDE8E2
:1002600020404FF000064FF000074FF000084FF01D
:10027000000B21F00701AC46ACE8C009ACE8C009AE
:10028000ACE8C009ACE8C0098D46704710B504461B
:10029000AFF300802046BDE81040FFF76EBF0000BE
:1002A000004870476006002001491820ABBEFEE7F9
:1002B00026000200704710B501F056FE4FF47A7028
:1002C00000F04CFB642000F049FB4FF4FA74204628
:1002D00000F044FB2046BDE8104000F03FBBFEE7C5
:1002E000704700002DE9F04F99B001F063FE4FF028
:1002F0000109002108235AA20846CDF8009002F017
:1003000006F802A800F09CFA060011D00327B01CE2
:1003100090FBF7F0C0B21790554800250DF1080B7F
:1003200080784FF0080A00EB400000F0FF085BE027
:10033000082350A210210020CDF8009001F0E7FF23
:1003400079E0102101EB0511C9B2C4B2CDE900A9D1
:1003500016910123621C0020169901F0A1FF0823C9
:1003600047A2CDF800901846169901F0D0FF0BEB8C
:10037000C400007901286BD002284FF00803CDF8A3
:1003800000906AD03FA21020169901F0C0FFCDE97D
:1003900000A95BF834000223020E2020169901F018
:1003A00051FFCDE900A95BF834000223C0F30742F6
:1003B0003020169901F046FFCDE900A93BF8340042
:1003C0000223C0F307224020169901F03BFFCDE93C
:1003D00000A91BF8342002235020169901F032FFA7
:1003E0006D1CEDB2BD4203D208EB0500B042A8D3AC
:1003F0004C46082324A238210020CDF8009001F0BB
:1004000086FF1B48CDE900A4827855460123382198
:100410002820521C01F044FF08231DA2382130205F
:10042000009401F074FFCDE90054382101230846FF
:10043000179A01F035FF082316A238215820CDF86D
:10044000009001F064FF01F057FE19B0BDE8F08F95
:10045000082313A2CDF8009095E712A293E70000BD
:100460004E46432043617264204C6973743A000025
:100470001C0000204E6F2063617264732100000035
:100480003A0000003F3A0000506167653A00000002
:100490002F0000004B4559383A4578697400000038
:1004A000443A0000503A000038B501F083FD0124C1
:1004B000002108230BA20846009401F028FF08231E
:1004C0000BA210210020009401F021FF08230CA2B0
:1004D00020210020009401F01AFFBDE8384001F00F
:1004E0000BBE0000536D61727420446F6F72000088
:1004F0004B4559383A526567204E4643000000008C
:100500004B455931323A4C697374204E46430000D2
:1005100038B501F04FFD01240021082314A208463C
:10052000009401F0F4FE082315A21021002000948D
:1005300001F0EDFE14484078012802D0022804D0D2
:100540000AE0082311A2009402E0082311A20094FB
:100550001021282001F0DBFE082310A2202100201A
:10056000009401F0D4FEBDE8384001F0C5BD0000A4
:100570005363616E204E4643204361726400000065
:10058000547970653A0000001C000020446F6F72BF
:10059000000000005065726D00000000506C616347
:1005A0006520636172642E2E2E00000038B501F0C4
:1005B00001FD01240021082318A20846009401F03F
:1005C000A6FE082319A210210020009401F09FFE2E
:1005D000082319A220210020009401F098FE08238E
:1005E00018A230210020009401F091FE19484078B3
:1005F000012802D0022805D00BE0082316A2102102
:10060000009403E0082314A220210094682001F044
:100610007EFEBDE8384001F06FBD000053656C659B
:10062000637420547970653A00000000313A446FD9
:100630006F72204361726400323A5065726D2043DC
:10064000617264004B455931363A436F6E66697288
:100650006D0000001C0000203C2D000072B6FEE77B
:1006600006490020C8610648016941F004010161A2
:10067000016941F04001016170470000C0000020A5
:1006800000200240064A0021D16106490A6942F071
:1006900002020A614861086940F040000861704741
:1006A000C000002000200240044B0022DA61044A0E
:1006B000136943F00103136101807047C0000020FB
:1006C0000020024014480022C168CB06134904D51B
:1006D000CA6942F00202CA611022C3685B0705D5ED
:1006E000CB6943F00103CB6142F00402C369DB072D
:1006F00007D0CB6943F00403CB61C16921F001014C
:10070000C161A2F58071013901D0C2607047C16931
:1007100021F00101C161704700200240C0000020AB
:1007200070B5054600F0D8FA0646114C09E0681C81
:1007300007D025B100F0D0FA801BA84201D90320D0
:1007400070BDE068C007F2D1E068800601D52020C6
:10075000E060E068C00605D4E069C00702D1E06847
:10076000400703D5FFF7AEFF012070BD002070BD2C
:100770000020024070B594B00D46040005D06846D4
:1007800000F05EF8002269460AE0032014B070BD54
:1007900051F83230A34201D10220F7E7521CD2B205
:1007A0008242F5D30A2801D30120EFE7064600F084
:1007B00085F90948224600EB86010023022000F05B
:1007C0003DF906482A4631180023012000F036F989
:1007D00000F02AF90020D9E700F4010800F8010828
:1007E00010B5144C86B02068401C20D100F066F98A
:1007F000002000900120CDE9024004A9684600F0E5
:10080000BFF830B94FF0303200232146022000F00B
:1008100015F90948029004A9684600F0B1F80748A4
:10082000029004A9684600F0ABF800F0FDF806B0AD
:1008300010BD000000F0010800F4010800F80108F4
:1008400070B5024600200C4B014600BF03EB81044B
:10085000CD18D4F8004495F80058661C06D042F82C
:10086000304002EBC004401C2571C0B2491CC9B223
:100870000A29EBD370BD000000F0010810B590F814
:1008800021100022022905D00421816380F8202054
:10089000012010BD01680B6823F00E030B60016896
:1008A0000B6823F001030B6090F84030C46B01210A
:1008B00001FA03F3636080F8211080F820201046CD
:1008C00010BD000010B590F821100024022903D0BB
:1008D0000421816301243DE001680A6822F00E02D0
:1008E0000A6001680A6822F001020A601A4A016877
:1008F000914201D1012121E0174A1432914201D1E4
:1009000010211BE0144A2832914201D1891515E0CB
:10091000114A3C32914201D189140FE00E4A503203
:10092000914202D14FF4803108E00B4A6432914287
:1009300002D14FF4801101E04FF08071064A083A6D
:100940005160012180F82110002180F82010416BB6
:1009500001B18847204610BD0800024070B504462A
:1009600000F0BAF90546601C02D00448007804443F
:1009700000F0B2F9401BA042FAD370BD0400002081
:100980002DE9F047054626480F460126017E01293C
:100990000FD00121814601762868DFF888804CF26B
:1009A0005034022808D0A2462046FFF7B9FEA8B16D
:1009B00031E00220BDE8F0872046FFF7B1FE08BB1A
:1009C0000120FFF74DFE2046FFF7AAFED8F81010D1
:1009D000064621F00401C8F810101CE04FF0FF306B
:1009E0003860AC6811E02046FFF74CFE5046FFF738
:1009F00097FED8F81010060021F00201C8F8101078
:100A000001D03C6007E004F58064D5E9020100EB09
:100A10008120A042E7D8002189F818103046C9E7A4
:100A2000C0000020002002400348016941F080011D
:100A30000161002070470000002002402DE9F05FB6
:100A400007461C4888460024017E15461E4601299B
:100A500009D00121814601764CF2503A5046FFF709
:100A60005FFE18B122E00220BDE8F09F012F02D006
:100A7000022F00D00427D346DFF83CA022012846ED
:100A80003146FFF7A1FB81B208EB4400FFF70CFEF3
:100A90005846FFF745FEDAF8102022F00102CAF8A6
:100AA000102018B9641CE4B2BC42E7D3002289F8D4
:100AB0001820D9E7C000002000200240064900208D
:100AC0000A69120607D5054A4A60054A4A6009695B
:100AD000090600D501207047002002402301674528
:100AE000AB89EFCD2DE9F84FDFF8B8910024A9F1DB
:100AF000040B23460F2709F1040AABF1040EC9E0E9
:100B00000125A5402A40AA427DD1674ED1F804C0F4
:100B1000ACEB0608B44532D014DCBCF1030F3AD07C
:100B200009DCBCF1000F2AD0BCF1010F1CD0BCF1D4
:100B3000020F31D11DE0BCF1110F17D0BCF1120F23
:100B40002AD119E0B8F5881F19D006DCB8F5803F26
:100B500015D0B8F5801F1FD111E0B8F5001F0ED0D9
:100B6000B8F5041F18D10AE0CB6815E0CB681B1D4F
:100B700012E0CB6808330FE0CB680C330CE08B68D5
:100B80002BB1012B4FF0080303D0456104E004238F
:100B900002E0056100E00023FF2A01D8064601E0DB
:100BA00000F104064FEA840501D9A5F12005D6F825
:100BB000008007FA05FC28EA0C0803FA05F548EA64
:100BC0000508C6F800804D68ED0062D5374DAE6966
:100BD00046F00106AE61AD6924F0030605F001059B
:100BE0000095334D06EB050CDCF80850A607360FD0
:100BF00007FA06F825EA0805DFF8B880404503D172
:100C00004FF0000817E044E0DFF8AC80404502D127
:100C10004FF001080FE0DFF8A480404502D14FF00B
:100C2000020808E0DFF89880404502D14FF0030841
:100C300001E04FF0040808FA06F848EA0508CCF885
:100C400008804D68D9F80060ED024D4601D5164385
:100C500000E096432E604D68DAF80060AD0255461C
:100C600001D5164300E096432E604D68DBF8006026
:100C7000AD035D4601D5164300E096432E604D68F6
:100C8000DEF80060ED03754601D5164300E096439B
:100C90002E60641C0D682A46E5407FF431AFBDE844
:100CA000F88F0000080401400000111000100240FD
:100CB0000000014000080140000C0140001001400C
:100CC000001401408068084000D0012070470AB13C
:100CD000016170470904FBE7014880687047000024
:100CE0000400002002488168027811448160704746
:100CF00004000020074810B5016841F010010160B0
:100D0000032000F075F80F2000F006F800F024F83A
:100D1000002010BD0020024070B50D4D04464FF478
:100D20007A712878B1FBF0F00A490968B1FBF0F05C
:100D300000F066FC48B9102C07D200222146501E54
:100D400000F036F800206C6070BD012070BD00001E
:100D500004000020100000200C4808B5816941F013
:100D600001018161816901F001010091C16941F0D6
:100D70008051C161C06900F0805000900448416812
:100D800021F0E06141F00071416008BD00100240B7
:100D900000000140002809DB00F01F020121914002
:100DA0004009800000F1E020C0F800117047000009
:100DB000F0B40E4B1B680C46C3F30223C3F10705C6
:100DC000042D00D90425191D072901D2002300E0B4
:100DD000DB1E012606FA05F1491E214099409E407E
:100DE000761E16403143F0BC01F08DBE0CED00E0E4
:100DF000064900F0070208684FF6FF03184040EA72
:100E00000220034A10430860704700000CED00E028
:100E10000000FA052DE9F0470F46050061D0434E6A
:100E2000306800F00700B84209D2306820F00700AF
:100E300038433060306800F00700B84251D128686C
:100E40003B4C810712D5400703D5606840F4E06051
:100E500060602878000703D5606840F460506060E7
:100E60006068A96820F0F000084360602878C00737
:100E700028D06868012810D02168022810D089077E
:100E800000292EDA616821F0030101436160FFF758
:100E900023FF804641F288390DE021688903EFE79E
:100EA0008901EDE7FFF718FFA0EB0801494502D9DA
:100EB0000320BDE8F0876068696800F00C00B0EBC3
:100EC000810FEFD1306800F00700B8420BD93068CD
:100ED00020F0070038433060306800F00700B84267
:100EE00001D00120E5E72878400705D56068E9686A
:100EF00020F4E060084360602878000706D5606849
:100F0000296920F4605040EAC100606000F038F8C0
:100F10006168084AC1F30311515CC8400649086082
:100F200006480068FFF7F8FE0020C2E700200240F4
:100F3000001002408E2B0008100000200800002046
:100F40000448054900684968044AC1F30221515C1C
:100F5000C840704710000020001002409E2B00087F
:100F60000448054900684968044AC1F3C221515C3C
:100F7000C840704710000020001002409E2B00085F
:100F80000E4A51680E4801F00C03042B11D0082BB7
:100F90000FD10C48C1F38343C903C05C0AD5516823
:100FA000084AC1F34041921E515C054A5043B0FBD0
:100FB000F1F07047044948437047000000100240B8
:100FC00000127A007E2B000800093D002DE9F84F41
:100FD000040070D02078C04DC00749D06868C0F3C5
:100FE0008100012807D06868C0F38100022809D178
:100FF0006868C00306D52868800339D56068002872
:10100000E7D035E06068B0F5803F0BD010B1B0F5A7
:10101000A02F11D0286820F480302860286820F4A0
:10102000802002E0286840F480302860606890B139
:10103000FFF752FE06460AE0286840F48020286048
:10104000F0E700BFFFF748FE801B642873D82868CC
:101050008003F7D50CE0FFF73FFE064605E000BF32
:10106000FFF73AFE801B6428F0D828688003F7D485
:1010700020789A4E80074FF001094FF0000839D5CB
:10108000686810F00C0F07D06868C0F38100022870
:1010900009D16868C00306D42868800714D5206980
:1010A000012808D110E02069B0B1C6F80090FFF720
:1010B00013FE074605E00AE1FFF70EFEC01B0228FB
:1010C000C4D828688007F7D52868616920F0F8003F
:1010D00040EAC10028600DE0C6F80080FFF7FCFD83
:1010E000074604E0FFF7F8FDC01B022823D8286854
:1010F0008007F7D4207800072CD57948A169D9B1A9
:10110000C0F80090FFF7E8FD074604E0FFF7E4FDB4
:10111000C01B02280FD8686A8007F7D571484FF4C2
:10112000FA510068B0FBF1F0009000BF0098411E3A
:101130000091FAD20EE080E0C0F80080FFF7CCFD0D
:10114000074604E0FFF7C8FDC01B022875D8686A8F
:101150008007F7D42078400760D5E8690027C000F1
:1011600008D4E86940F08050E861E869012700F0A0
:10117000805000905C480168C90513D4016883461B
:1011800041F480710160FFF7A7FD824606E000BFD1
:10119000FFF7A2FDA0EB0A0064284ED8DBF80000A0
:1011A000C005F5D5E06801280AD008B1052813D09C
:1011B000286A20F001002862286A20F0040002E07A
:1011C000286A40F001002862E06841F2883B98B14B
:1011D000FFF782FD82460BE0286A40F00400286297
:1011E000EEE700BFFFF778FDA0EB0A0159455AD89A
:1011F000286A8007F6D50CE0FFF76EFD824605E011
:10120000FFF76AFDA0EB0A0159454CD8286A800710
:10121000F6D41FB1E86920F08050E861E06988B336
:101220006968C1F38101022944D00228C6F86080B0
:1012300004D0FFF751FD044638E034E0FFF74CFDE1
:10124000074604E0FFF748FDC01B02282BD828689A
:101250008001F7D4206AB0F5803F05D16868A168A5
:1012600020F4003008436860D4E908010843696845
:1012700021F4741108436860C6F86090FFF72CFDF4
:10128000044606E025E000BFFFF726FD001B02280C
:1012900009D828688001F7D51BE000BFFFF71CFDC7
:1012A000001B022802D90320BDE8F88F28688001BE
:1012B000F4D40EE00128F7D06868226A00F4803187
:1012C000914204D1616A00F47010884201D001207B
:1012D000EAE70020E8E70000001002400000424278
:1012E00080044242100000200070004070B50400ED
:1012F00009D0606A002540B125616561A56294F856
:10130000510040B10CE0012070BD6068B0F5827FF3
:10131000F4D0E561F2E784F85050204600F040F840
:10132000022084F851002068016821F0400101602A
:10133000A088218900F4827001F404410843A18946
:1013400001F400610843217C01F002010843217D82
:1013500001F001010843218B01F400710843217F52
:1013600001F03801084394F8201001F0800108438F
:10137000218D01F40051084321680860A06904210F
:1013800001EA1040216848602068C16921F40061C9
:10139000C1616565012084F85100002070BD000026
:1013A00030B585B000240094019402940394006841
:1013B0001449884223D11448816941F480518161E4
:1013C000816901F480510491816941F004018161D6
:1013D00080690E4D00F004000490A02000900220CF
:1013E00001900320039069462846FFF77BFB4020CD
:1013F000CDE90004694628460294FFF773FB05B067
:1014000030BD0000003001400010024000080140E3
:101410002DE9FF4F81B01D46934604464FF0010968
:101420000E9EFFF759FC074694F8510061680128A9
:1014300006D0B1F5827F3CD1A168C9BB042838D160
:101440000298002871D0BBF1000FFBD0002DF9D01D
:1014500094F8500001282CD04FF0010A84F850A0D5
:1014600094F85100042802D0052084F851004FF070
:101470000008C4F85480C4F838B0E587A5870299FD
:101480002163E586A586C4F84080C4F844802068BE
:101490000168490603D4016841F040010160E06839
:1014A000B0F5006F606808D0F0B3012D49D081E03D
:1014B000FFE7022005B0BDE8F08F08B1012D39D15A
:1014C000206B21680088C860206B801C2063E08E40
:1014D000401EE0862EE02068816889070FD5E18EE6
:1014E00069B1B9F1010F0AD1216B0988C160206B84
:1014F000801C2063E08E401EE0864FF000092068CB
:101500008168C9070CD0E18F51B1C068A16B088018
:10151000A06B801CA063E08F401EE0874FF00109A4
:10152000FFF7DAFBC01B01E00BE067E0B04201D33C
:10153000701C50D1E08E0028CDD1E08F0028CAD198
:101540003EE0206B216800780873206B401C20630C
:10155000E08E401EE0862DE02068816889070FD567
:10156000E18E69B1B9F1010F0AD1216B09780173DC
:10157000206B401C2063E08E401EE0864FF0000987
:1015800020688168C9070CD0E18F51B1C068A16B98
:101590000870A06B401CA063E08F401EE0874FF0F6
:1015A0000109FFF799FBC01BB04202D3701C01D0A8
:1015B00011E086B1E08E0028CED1E08F0028CBD19B
:1015C0003A463146204600F0ABFF50B1202060651E
:1015D00084F8508012E084F851A084F850800320F1
:1015E00068E7A06818B92068C1688068009084F82E
:1015F00051A084F85080606D0028F1D0012059E797
:1016000010B5401EB0F1807F01D3012010BD4FF016
:10161000E02460610F21601701F075FA0020A061DD
:1016200007202061002010BD70477047F8B50168A1
:1016300004460868CA684B6910F00F0F4FF00005A8
:1016400059D003F0010602F49077374365D0C10703
:1016500005D0D10503D5616C41F0010161644107FA
:1016600005D5D90703D0616C41F00201616481079F
:1016700005D5D90703D0616C41F00401616401070D
:1016800007D502F02001314303D0616C41F008011D
:101690006164616C00293AD0800604D5900602D5B9
:1016A000204601F040F820684069616CC0F380106A
:1016B000090700D460B3204601F00EF820684069A5
:1016C000400621D52068143050E8001F21F0400169
:1016D00040E80012002AF5D1E06BA8B16D494163E2
:1016E000E06BFFF7EFF8002811D0E06B416B01B021
:1016F000BDE8F040084783060FD593060DD5204678
:10170000BDE8F84001F00FB82046FFF78EFFF8BDA6
:101710002046FFF78AFF6564F8BD266B2023012E63
:101720007CD1C6067AD5D60678D508684868009078
:1017300048694FF00206400640D5E16B08684068F2
:101740000004000CE8D0A28D8242E5D9E0858869CA
:1017500020282DD020680C3050E8001F21F4807123
:1017600040E80012002AF5D12068143050E8001F2C
:1017700021F0010140E80012002AF5D12068143060
:1017800050E8001F21F0400140E80012002AF5D186
:1017900084F84230256320680C3050E8001F21F0A7
:1017A000100140E80012002AF5D1E06BFFF766F85F
:1017B0006663A08DE18D401A81B22AE0A08DE18D93
:1017C000401A81B2E08D0028A6D00029A4D022685A
:1017D0000C3252E8000F20F4907042E80007002F0E
:1017E000F5D12068143050E8002F22F0010240E8C3
:1017F0000027002FF5D184F84230256320680C3093
:1018000050E8002F22F0100240E80023002BF5D111
:1018100066632046FFF708FFF8BDFFE705062BD5F6
:10182000150629D594F841002128F5D1A068B0F516
:10183000805F01D12069B0B1206A411C216221681A
:1018400000784860E08C401E0004000CE084E3D186
:101850002068C16821F08001C1602068C16841F042
:101860004001C160D8E7206A0088C0F308004860E2
:10187000206A801C2062E5E74006CDD55006CBD516
:10188000CA68204622F04002CA6084F8413000F065
:10189000A1F8C1E7C926000870B5040004D094F887
:1018A0004100002510B106E0012070BD84F84050D1
:1018B000204600F023F8242084F841002068C16805
:1018C00021F40051C160204600F08EFF20680169BC
:1018D00021F4904101612068416921F02A014161B0
:1018E0002068C16841F40051C1606564202084F81B
:1018F000410084F842006563002070BD30B585B0BA
:1019000000240094019402940394006818498842CA
:101910002CD11848C16941F48021C161C16901F429
:1019200080210491816941F0080181618069124D33
:1019300000F0080004904FF48060009002200190B5
:101940000320039069462846FFF7CCF8E814CDE958
:101950000004694628460294FFF7C4F800221146A5
:101960002720FFF725FA2720FFF714FA05B030BD2E
:101970000048004000100240000C014090F8423046
:10198000202B01D00220704721B11AB1002303633C
:1019900000F086BF012070470B49884213D10B48E5
:1019A000018809040FD40188FF29018808D8491C3F
:1019B000018007490088012201440348FFF7DEBF88
:1019C00041F400410180704778000020140000209D
:1019D000600500207047FEE770B501220E4D9403AC
:1019E00021462846FFF773F901225603314628465F
:1019F000FFF76DF900F048F8002221462846FFF76E
:101A000066F900F041F8002231462846FFF75FF9F9
:101A1000BDE8704000F038B80010014070B50B4DC3
:101A20004FF48044002221462846FFF750F9012256
:101A300051032846FFF74BF900F026F821462846C7
:101A4000BDE870400122FFF742B9000000100140DC
:101A500070B50C4C012291032046FFF738F900F0D5
:101A600013F80122550329462046FFF730F900F00C
:101A70000BF8002229462046FFF729F9BDE87040FF
:101A800000F002B8001001400320401EC0B2FCD29A
:101A9000704700002DE9F05F614D002422462021AF
:101AA0002846FFF714F9012240212846FFF70FF9D5
:101AB000012280212846FFF70AF901221702394640
:101AC0002846FFF704F94FF4007841462846FFF70F
:101AD000F9F800B90124DFF84CB14FF4004A51463F
:101AE0005846FFF7EFF800B902244F4E0121304667
:101AF000FFF7E8F800B9032402213046FFF7E2F8C7
:101B000000B90424012220212846FFF7E0F8002232
:101B100040212846FFF7DBF8012280212846FFF705
:101B2000D6F80122B94639462846FFF7D0F847468D
:101B300041462846FFF7C6F800B90524D04651466D
:101B4000DA465846FFF7BEF800B9062401213046B0
:101B5000FFF7B8F800B9072402213046FFF7B2F8C2
:101B600000B90824012220212846FFF7B0F80122FD
:101B700040212846FFF7ABF8002280212846FFF7D6
:101B8000A6F80122CB4649462846FFF7A0F8B946F9
:101B900039462846FFF796F800B9092441465746CA
:101BA0005046FFF78FF800B90A2401213046FFF7AD
:101BB00089F800B90B2402213046FFF783F800B9F9
:101BC0000C24012220212846FFF781F80122402120
:101BD0002846FFF77CF8012280212846FFF777F896
:101BE000002259462846FFF772F849462846FFF773
:101BF00069F800B90D2441463846FFF763F800B98B
:101C00000E2401213046FFF75DF800B90F240221B0
:101C10003046FFF757F800B910242046BDE8F09F82
:101C2000000C0140001001400008014070B50C4656
:101C3000054600F0A9F820EA04012846BDE87040F6
:101C400000F0CAB82DE9FF5F0027FE25DDF838A0B7
:101C500016468B468146B8460C2805D0B9F10E0FC2
:101C600005D11227102001E077273020804647F069
:101C70008001022000F0B0F880210420FFF7D6FF99
:101C80000021012000F0A8F880210A2000F098F837
:101C9000002405E01BF80410092000F09DF8641CE6
:101CA000B442F7D34946012000F096F8B9F10C0F81
:101CB00003D180210D2000F083F8294E042000F08C
:101CC00063F80446761E04D0E00702D114EA080F38
:101CD000F4D080210D20FFF7A9FF36B1062000F0D7
:101CE00053F810F01B0F0CD0FE2580210C2000F0C3
:101CF00067F80021012000F06FF804B02846BDE825
:101D0000F09F00253C40E00700D0FF25B9F10C0F03
:101D1000EBD10A2000F038F804460C2000F034F82B
:101D200010F007004FEAC40104D008390844AAF8AB
:101D3000000001E0AAF8001024B1122C04D91224EA
:101D4000002603E00124FBE7002605E0092000F05F
:101D50001BF803998855761CA642F7D3C5E7000007
:101D6000E093040010B5012210210548FEF7AFFFF3
:101D70000122BDE8104011460248FEF7A8BF00004E
:101D800000080140000C014070B57E2101EA4000CE
:101D90000A4D40F08004002210212846FEF797FFEC
:101DA000204600F0ADFB002000F0AAFB0446012213
:101DB00010212846FEF78BFF204670BD0008014029
:101DC00070B50C460546FFF7DFFF40EA04012846E0
:101DD000BDE87040AFF3008070B50E467E2101EA89
:101DE0004004094D002210212846FEF770FF2046CE
:101DF00000F086FB304600F083FB2846BDE87040CB
:101E000001221021FEF763BF000801402DE9F043D5
:101E100085B000253E48009501950295039581699E
:101E200041F010018161816901F010010491816923
:101E300041F020018161816901F0200104918169F3
:101E400041F004018161816901F00401049181691B
:101E500041F00801816180692E4F00F008004FF4C5
:101E6000C0440490012221463846FEF730FFDFF8D7
:101E7000A880012210214046FEF729FFDFF89C9040
:101E8000012240F261114846FEF721FF0022802125
:101E90004846FEF71CFF009401240326CDE90246C4
:101EA000694638460194FEF71DFEE003CDE90005C2
:101EB000694602943846FEF715FE0096CDE90154B6
:101EC00069464046FEF70EFE1020CDE90004CDE93C
:101ED000024669464046FEF705FECDE902460094FB
:101EE000694648460194FEF7FDFD4FF4F0708DE819
:101EF000710069464846FEF7F5FD6002CDE9000530
:101F0000694602944846FEF7EDFD05B0BDE8F08352
:101F1000001002400010014000080140000C014088
:101F2000104810B50E4901604FF4827141600021E4
:101F30008160C1604FF400720161C0E9051218228E
:101F4000C0E90721416281620A21C162FFF7CEF92F
:101F5000002803D0BDE81040FEF780BB10BD000094
:101F6000003001402000002010B50F4C0D480C211E
:101F700020604FF4614060600020A060E060C4E930
:101F80000401A061E0612046FFF786FC08B1FEF77E
:101F900065FB20684068BDE8104001220349024803
:101FA000FFF7ECBC004800407800002060050020EE
:101FB000FEE7FEE730B40021084B0A465FF0000060
:101FC00003EBC004401CC0B262548028F8D3491C03
:101FD000C9B20829F2D330BC00F08EB8E00000206E
:101FE00030B5CC0801F0070301259D40EBB2064D4A
:101FF00005EBC005C808285C0AB1184302E063EA93
:102000000000C043285530BDE000002010B500217D
:10201000AE2000F09AF90021084600F096F9002160
:10202000102000F092F90021402000F08EF90021EC
:10203000812000F08AF90021CF2000F086F90021EC
:10204000A12000F082F90021C82000F07EF90021D3
:10205000A62000F07AF90021A82000F076F90021EE
:102060003F2000F072F90021D32000F06EF900212A
:10207000084600F06AF90021D52000F066F9002139
:10208000802000F062F90021D92000F05EF90021E3
:10209000F12000F05AF90021DA2000F056F9002171
:1020A000122000F052F90021DB2000F04EF900214F
:1020B000302000F04AF90021202000F046F90021EC
:1020C000022000F042F900218D2000F03EF90021AD
:1020D000142000F03AF9FFF76DFF0021BDE8104031
:1020E000AF2000F032B90246012000E05043491E03
:1020F000C9B2FBD27047000070B5184E002400BF73
:1021000004F1B000C0B2002100F01FF90021084620
:1021100000F01BF90021102000F017F9FFF75CFC1C
:10212000782000F075FAFFF793FC402000F070FA79
:10213000FFF78EFC5FF0000506EBC500005D00F0C8
:1021400067FAFFF785FC6D1CEDB2802DF4D3FFF725
:1021500065FC641CE4B2082CD2D370BDE000002002
:102160002DE9FC4F1C460E4682468B460190082BFB
:102170000DD0600700D0012000EBD4006108484377
:10218000C0B28146203AD0B2009000204BE0062039
:10219000F7E7082C13D00C2C18D0102C1BD0182CBF
:1021A00044D10098234900EBC00000BF01EB80013F
:1021B000002711F80850E80712D00B9A13E0009896
:1021C0001D4900EB400001EB4001F1E700981B497D
:1021D00000EB4000EAE71A49009801EB0011E7E73D
:1021E0000B9828B3002231465046FFF7F9FE761CC3
:1021F0007F1C6D08FFB2F6B2082FDCD30AF1010094
:1022000000F0FF0A082C0AD00199AAEB0100B0EBFC
:10221000540F04D10BF108008A4600F0FF0B08F1BF
:1022200001005E46C0B280464845B2D3BDE8FC8F8F
:102230000122D8E732380008A62B0008CE2D00086E
:10224000423200082DE9F84F0025DDE90A691F46F2
:1022500092468B468046082E00D1022500241BE0C2
:10226000381B401EC1B21020FFF73DFFBAFBF0F053
:1022700000F00F0205EB560101FB04800A2AC0B2F0
:1022800033465946CDF8009001D2303200E0373263
:10229000FFF766FF641CE4B2BC42E1D3BDE8F88FEF
:1022A0002DE9F84F0025DDE90A691F4692468B4665
:1022B0008046082E00D1022500241CE0381B401E59
:1022C000C1B20A20FFF70FFFBAFBF0F00A21B0FB02
:1022D000F1F201FB1200CDF8009080B13030C2B2B3
:1022E00005EB560101FB0480C0B233465946FFF7A7
:1022F00037FF641CE4B2BC42E0D3BDE8F88F05EBC5
:10230000560101FB0480C0B233463022EEE72DE9CE
:10231000F8411E46154688460446079F0BE03346A3
:10232000414620460097FFF71BFF082E0AD004EB1A
:102330005600C4B26D1C2A78A2F120005E28EED9A6
:10234000BDE8F881A41DE4B2F4E770B50C4605467B
:10235000FFF742FB782000F05BF9FFF779FB0CB147
:10236000402000E0002000F053F9FFF771FB284601
:1023700000F04EF9FFF76CFBBDE87040FFF74EBB75
:1023800003211420FFF752BC10B51420FFF7FCFC0A
:10239000800705D10321BDE810401420FFF710BDD0
:1023A00010BD70B50646082188B000240846FFF726
:1023B0003DFC00210D20FFF70FFD80210E20FFF7CF
:1023C00035FC93208DF8040020208DF8050006A828
:1023D00001AB0090022219460C20FFF733FC0500E8
:1023E0000DD1002101A8425C7254425C491C54404A
:1023F000C9B20429F7D3405CA04200D0FE25802159
:102400000E20FFF7DDFC08B0284670BD10B5FFF7C1
:10241000A9FC00F02FF8FFF7B3FFBDE81040FFF76D
:10242000B3BF30B50C460546082187B00846FFF714
:10243000FDFB07210D20FFF7CFFC03211420FFF740
:10244000BFFC06A801AB00908DF80450012219468C
:102450000C20FFF7F7FB002809D1BDF81810102950
:1024600005D19DF8041021709DF80510617007B02A
:1024700030BD000010B5204C012211462046FEF769
:1024800026FC0220FEF76AFA002201212046FEF710
:102490001EFC0220FEF762FA012211462046FEF7DA
:1024A00016FC0220FEF75AFA0F210120FFF794FCD8
:1024B0000220FEF753FA3D211120FFF78DFC1E216B
:1024C0002D20FFF789FC00212C20FFF785FC8D21B2
:1024D0002A20FFF781FC3E212B20FFF77DFC4021C5
:1024E0001520FFF779FCFFF74BFF0220FEF736FAC5
:1024F000BDE81040FFF748BF000C014070470000E6
:1025000001B582B00A200090012301AA02A9034864
:10251000FEF77EFF9DF804000EBD000020000020A5
:10252000F8B515460E460B460092044601220221DC
:1025300000F010F840B93346002280212046009573
:1025400000F008F8002804D0606D40F020006065BD
:102550000320F8BD2DE9F8431E46914688460446FF
:10256000089DFEF7B9FB401B351AFEF7B5FB074681
:1025700025480068C0F3CB30684338E0701C37D082
:10258000FEF7AAFBC01BA84203D215B1009860B3A6
:102590002CE02068416821F0E00141606068B0F5FE
:1025A000827F0BD1A068B0F5004F02D0B0F5806FEC
:1025B00004D12068016821F040010160A06AB0F5F3
:1025C000005F09D12068016821F400510160206892
:1025D000016841F400510160012084F8510000209D
:1025E00084F850000320BDE8F8830025401E0090C9
:1025F0002068816838EA010004D000214945BDD136
:102600000020F0E70121F9E71000002070470000EA
:102610002DE9F041124F002405464FF480487E1406
:10262000280601D5012200E0002241463846FEF787
:102630004EFBFFF729FA012231463846FEF747FBE9
:10264000FFF722FA002231463846FEF740FB6806C3
:10265000641C050EE4B2082CE2D3BDE8F081000052
:1026600000100140FEF73EBB30B58FB02821684610
:10267000FDF7BDFD14210AA8FDF7B9FD01210804ED
:10268000CDE900100024029402250491CDE9075001
:102690004FF4E01009906846FEF798FC08B172B656
:1026A000FEE70F20CDE90A054FF48060CDE90C402C
:1026B00002210AA80E94FEF7ADFB002801D072B6E5
:1026C000FEE70FB030BD704710B5406A0021C185EC
:1026D000C184FEF7AAFF10BD01680C3151E8002F3C
:1026E00022F4907241E80023002BF5D101681431E7
:1026F00051E8002F22F0010241E80023002BF5D120
:10270000016B012909D101680C3151E8002F22F039
:10271000100241E80023002BF5D1202180F842105F
:1027200000210163704708B590F84210222901D0BA
:10273000022008BD82684FF480539A4201D101699A
:1027400021B1816A9A421BD04AB10AE00268816ACB
:102750005268C2F308020A80816A891C08E0026993
:1027600072B10268526802F07F020A70816A491CE5
:102770008162C18D491E0904090CC18503D01BE08B
:1027800002685268F1E70168CA6822F02002CA6054
:102790000168CA6822F48072CA6001684A6922F03E
:1027A00001024A61202180F8421000214163026B3E
:1027B000012A03D0FFF7F0F8002008BD016301688B
:1027C0000C3151E8002F22F0100241E80023002BC9
:1027D000F5D101680A68D20602D50A6849680091F5
:1027E000818DFEF721FFE7E770B5044600680169B7
:1027F000E26821F44051114301612169A068084356
:10280000616908432168CA6841F20C639A43024334
:10281000CA6020684169A26921F440711143416195
:102820001E492068884202D1FEF79AFB01E0FEF7BC
:1028300087FB00EBC00101EB00126068642180009F
:10284000B2FBF0F3B3FBF1F36FF018067343B2FB86
:10285000F0F5B2FBF0F605EB8305322303EB05152B
:10286000B5FBF1F5B6FBF1F605F0F00505EB061545
:10287000B2FBF0F6B2FBF0F0B0FBF1F06FF0180233
:10288000504306EB800003EB0010B0FBF1F0216831
:1028900000F00F002844886070BD0000003801403F
:1028A00081628285C28500214164222180F8421024
:1028B000016921B10168CA6842F48072CA60016886
:1028C0004A6942F001024A610068C16841F0200192
:1028D000C160002070470000F0B5334C054600266B
:1028E0002178012095B00327B9B1012923D002290D
:1028F00038D003290FD16846FDF7A2FF801CB0FB3A
:10290000F7F0C1B2012D40D0032D43D0082D02D1E4
:102910002670FDF7C9FD15B0F0BD082D08D00C2DAF
:10292000F9D12770A67015B0BDE8F040FDF7DABC0C
:10293000207066700FE002210E2D11D2DFE805F045
:1029400010080A0710070707100707071007E2E734
:10295000607000E0617015B0BDE8F040FDF726BE84
:10296000102D07D0082DD6D1267015B0BDE8F04047
:10297000FDF79ABD6078012801D00228CBD12170E3
:1029800015B0BDE8F040FDF7C3BDA0780028C2D067
:10299000401E04E0A078491E8842BCDA401CA070AA
:1029A000FDF7A0FCB7E700001C0000200348002151
:1029B000017041708170FDF777BD00001C000020A0
:1029C0007FB53B4E3078022836D103A92620FFF789
:1029D00028FD002830D102A8FFF7E3FC00282BD106
:1029E00002989DF80B1000BA20F0FF0008437178A0
:1029F000FDF7C0FE0546FFF7DDFA0124EDB1012D1C
:102A00004FD0022D4FF0080300944ED029A2002190
:102A10000846FFF77CFC082328A230210020009400
:102A2000FFF775FCFFF768FB4FF4FA60FDF796FFC0
:102A300000203070FDF738FD7FBD0021082322A261
:102A400008460094FFF763FC082324A2102100200D
:102A50000094FFF75CFC0825CDE900549DF80820A0
:102A6000022310211820FFF7EDFBCDE900549DF85B
:102A70000920022310212820FFF7E4FBCDE90054B0
:102A80009DF80A20022310213820FFF7DBFBCDE957
:102A900000549DF80B20022310214820FFF7D2FBA1
:102AA000B9E708230EA20094B1E70FA2AFE7000038
:102AB0001C0000204572726F722100004B4559388E
:102AC0003A4261636B000000526567697374657216
:102AD00020537563636573732100000049443A0015
:102AE00046756C6C21000000416C72656164792050
:102AF00045786973742100000148FEF797BD000016
:102B000078000020FEE70907090E002804DB00F129
:102B1000E02080F80014704700F00F0000F1E02082
:102B200080F8141D70470000FEF7E4F8FFF79CFDE5
:102B3000FFF76CF9FFF7F4F9FFF716FAFFF766FAFB
:102B4000FDF74EFEFFF732FFFFF760FCFDF7B3FB2A
:102B5000094D00BFFEF79EFF040005D0287884428F
:102B600002D02046FFF7B8FE2C70FFF729FF322075
:102B7000FDF7F4FEEEE70000000000200102020372
:102B80000405060708090A0B0C0D0E0F10100000B3
:102B9000000000000000010203040607080900000D
:102BA0000000010203040000000000000000002FEC
:102BB000000000000700070000147F147F140024A9
:102BC0002A7F2A12006264081323003649552250D6
:102BD00000000503000000001C224100000041220B
:102BE0001C000014083E08140008083E08080000F5
:102BF00000A06000000808080808000060600000ED
:102C0000002010080402003E5149453E0000427F6A
:102C10004000004261514946002141454B310018B6
:102C200014127F10002745454539003C4A49493078
:102C30000001710905030036494949360006494932
:102C4000291E00003636000000005636000000083D
:102C5000142241000014141414140000412214081A
:102C600000020151090600324959513E007C1211FF
:102C7000127C007F49494936003E41414122007F94
:102C80004141221C007F49494941007F090909014E
:102C9000003E4149497A007F0808087F0000417FD3
:102CA0004100002040413F01007F08142241007F85
:102CB00040404040007F020C027F007F0408107FEC
:102CC000003E4141413E007F09090906003E415155
:102CD000215E007F09192946004649494931000112
:102CE000017F0101003F4040403F001F2040201F66
:102CF000003F4038403F0063140814630007087029
:102D0000080700615149454300007F4141000055DB
:102D10002A552A55000041417F00000402010204A7
:102D20000040404040400000010204000020545494
:102D30005478007F484444380038444444200038E4
:102D40004444487F00385454541800087E09010256
:102D50000018A4A4A47C007F080404780000447D2B
:102D60004000004080847D00007F10284400000067
:102D7000417F4000007C04180478007C080404783B
:102D800000384444443800FC242424180018242427
:102D900018FC007C08040408004854545420000423
:102DA0003F444020003C4040207C001C2040201C30
:102DB000003C4030403C004428102844001CA0A0A7
:102DC000A07C004464544C441414141414140000E3
:102DD000000000000000000000000000FC000000F7
:102DE000000002000000000C020C020000000000C5
:102DF000000090D0BCD0BC90000300030000182459
:102E0000FE448C000302070201001824D8B04C8055
:102E1000000300010201C038E438E00001020201B1
:102E20000202080600000000000000000000000090
:102E300000F80402000000010204000204F800008F
:102E40000004020100009060F860900000000100A2
:102E500000002020FC2020000000010000000000F5
:102E600000000000080600000000202020202000B4
:102E70000000000000000000000000000002000050
:102E800000000080601C0200040300000000F80441
:102E90000404F8000102020201000008FC00000026
:102EA00000020302000018844424180003020202F6
:102EB000020008042424D80001020202010040B0EC
:102EC00088FC80000000000302003C242424C4008D
:102ED000010202020100F824242CC00001020202B7
:102EE00001000C04E41C0400000003000000D824CE
:102EF0002424D80001020202010038444444F800AE
:102F000000030202010000001000000000000200A7
:102F1000000000002000000000000600000000206B
:102F200050880402000000000102909090909000F0
:102F30000000000000000002048850200002010090
:102F400000001804C4241800000002000000F80467
:102F5000E494F80001020202020000E09CF080000C
:102F600002030000030204FC2424D800020302022E
:102F70000100F80404040C0001020202010004FC38
:102F80000404F80002030202010004FC24740C0093
:102F900002030202030004FC24740C00020302007A
:102FA0000000F0080444CC4000010202010004FCCF
:102FB0002020FC040203000003020404FC040400BB
:102FC000020203020200000404FC040406040403D9
:102FD000000004FC24D00C0402030200030204FCE1
:102FE00004000000020302020203FC3CC03CFC009F
:102FF00003000300030004FC30C4FC0402030200CD
:103000000300F8040404F80001020202010004FCB9
:1030100024241800020302000000F8848404F8004D
:1030200001020207050004FC246498000203020068
:103030000302182424448C000302020201000C0441
:10304000FC040C0000020302000004FC0000FC046D
:10305000000102020100047C80E01C040000030067
:1030600000001CE03CE01C00000300030000049C86
:10307000609C0400020300030200041CE01C040026
:103080000002030200000C84641C0400020302021C
:1030900003000000FE020200000007040400000E0E
:1030A00030C00000000000010200000202FE00002B
:1030B00000040407000000040204000000000000F7
:1030C00000000000000000000808080808080000D0
:1030D000020000000000000000000040A0A0C000AE
:1030E00000010202030204FC2020C00000030202CF
:1030F000010000C02020600000010202020000C0A8
:103100002024FC0000010202030200C0A0A0C000B5
:103110000001020202000020F8242404000203023D
:1031200002000040A0A0602000070A0A0A0404FC74
:103130002020C0000203020003020020E40000007F
:10314000000203020000000020E400000808080755
:10315000000004FC80E020200203020003020404BB
:10316000FC000000020203020200E020E020C00098
:1031700003000300030020E02020C000020302003F
:10318000030200C02020C00000010202010020E074
:103190002020C000080F0A02010000C02020E0002B
:1031A0000001020A0F0820E0402020000203020074
:1031B00000000060A0A02000000202020300002026
:1031C000F820000000000102020020E00020E000E2
:1031D00000010202030220E02080602000000301C1
:1031E00000006080E08060000003000300002060B9
:1031F0008060200002030003020020E020806020A5
:103200000808070100000020A0602000000203025F
:103210000200000020DE02000000000704000000A1
:1032200000FF00000000000F00000002DE20000090
:103230000004070000000201020404020000000074
:10324000000000000000000000000000000000007E
:103250000000000000F80000000000000033300013
:10326000000000100C06100C06000000000000001A
:10327000000040C07840C0784000043F04043F0490
:103280000400007088FC08300000001820FF211E98
:103290000000F008F000E018000000211C031E21CF
:1032A0001E0000F00888700000001E21232419274A
:1032B000211010160E0000000000000000000000A9
:1032C0000000000000E018040200000000071820C1
:1032D000400000020418E000000000402018070031
:1032E0000000404080F0804040000202010F0102D7
:1032F0000200000000F0000000000101011F0101B8
:103300000100000000000000000080B0700000001C
:1033100000000000000000000000000101010101A8
:10332000010100000000000000000030300000003B
:103330000000000000008060180400601806010012
:10334000000000E010080810E000000F102020101E
:103350000F00001010F8000000000020203F202087
:10336000000000700808088870000030282422211E
:1033700030000030088888483000001820202011D4
:103380000E000000C02010F8000000070424243FB5
:10339000240000F80888880808000019212020115E
:1033A0000E0000E0108888180000000F1120201186
:1033B0000E0000380808C83808000000003F000070
:1033C00000000070880808887000001C222121225B
:1033D0001C0000E010080810E0000000312222115B
:1033E0000F00000000C0C0000000000000303000EE
:1033F000000000000080000000000000806000006D
:1034000000000000804020100800000102040810A5
:1034100020004040404040404000040404040404B4
:103420000400000810204080000000201008040262
:103430000100007048080808F00000000030360164
:103440000000C030C828E810E00007182724231423
:103450000B000000C038E0000000203C23020227DF
:10346000382008F8888888700000203F202020112C
:103470000E00C03008080808380007182020201067
:10348000080008F808080810E000203F202020105D
:103490000F0008F88888E8081000203F202023202B
:1034A000180008F88888E8081000203F2000030072
:1034B0000000C03008080838000007182020221E2D
:1034C000020008F808000008F808203F2101012147
:1034D0003F20000808F8080800000020203F2020B6
:1034E000000000000808F8080800C08080807F0005
:1034F000000008F888C028180800203F200126385E
:10350000200008F8080000000000203F20202020B4
:10351000300008F8F800F8F80800203F003F003FAE
:10352000200008F830C00008F808203F20000718E5
:103530003F00E01008080810E0000F1020202010C5
:103540000F0008F808080808F000203F21010101D9
:103550000000E01008080810E0000F18242438507C
:103560004F0008F8888888887000203F2000030CEE
:1035700030200070880808083800003820212122F7
:103580001C00180808F8080818000000203F200058
:10359000000008F808000008F808001F202020207C
:1035A0001F000878880000C83808000007380E019E
:1035B0000000F80800F80008F800033C0700073C8A
:1035C0000300081868808068180820302C03032C3A
:1035D00030200838C800C83808000000203F20000C
:1035E000000010080808C8380800203826212020CC
:1035F0001800000000FE020202000000007F4040B0
:103600004000000C30C0000000000000000106383F
:10361000C00000020202FE000000004040407F00A7
:10362000000000000402020204000000000000008C
:10363000000000000000000000008080808080808A
:103640008080000202040000000000000000000072
:1036500000000000808080800000001924222222C7
:103660003F2008F8008080000000003F112020115A
:103670000E000000008080800000000E112020203D
:103680001100000000808088F800000E112020103A
:103690003F200000808080800000001F2222222224
:1036A0001300008080F0888888180020203F2020A8
:1036B00000000000808080808000006B94949493D0
:1036C000600008F8008080800000203F210000207A
:1036D0003F2000809898000000000020203F20201C
:1036E0000000000000809898000000C08080807F6B
:1036F000000008F8000080808000203F24022D3068
:103700002000000808F8000000000020203F2020D2
:1037100000008080808080808000203F20003F204B
:10372000003F8080008080800000203F210000203A
:103730003F200000808080800000001F202020208B
:103740001F00808000808000000080FFA1202011E9
:103750000E000000008080808000000E112020A05C
:10376000FF80808080008080800020203F2120001A
:103770000100000080808080800000332424242405
:103780001900008080E0808000000000001F2020E1
:1037900000008080000000808000001F202020109A
:1037A0003F20808080000080808000010E3008066D
:1037B000010080800080008080800F300C030C307E
:1037C0000F0000808000808080000020312E0E31AC
:1037D0002000808080000080808080818E701806AC
:1037E000010000808080808080000021302C222118
:1037F000300000000000807C020200000000003F5A
:10380000404000000000FF00000000000000FF003A
:1038100000000002027C800000000040403F0000E9
:103820000000000601010202040400000000000084
:103830000000000000000000000000000000000088
:103840000000000000000000000000000000000078
:103850000000000000000000000000F0F0F0000098
:1038600000000000000000017F01000000000000D7
:103870000000001C1C1C0000000000008060301CC8
:103880008C60301C0C0000000000000000000000F4
:103890000000000000000000000000000000000028
:1038A00000E00000000000E000000086E69F868641
:1038B0008686E69F860000011F01010101011F01AC
:1038C0000100000080C06020F820E0C0000000007F
:1038D00003070C18FF70E18100000000070F1010B3
:1038E0007F100F0700008060206080000000E02053
:1038F00000000F3020309F70DC371030C000000017
:10390000100E03000718101807000000C02020E068
:10391000C0000000000080E01F38E88703C43C04BA
:103920000000070F1810100B070D10100800008082
:103930008C4C380000000000000000000000000077
:103940000000000000000000000000000000000077
:10395000000000000000000080E0300804000000CB
:10396000000000FEFF010000000000000000000059
:10397000030F1820400000040830E0800000000021
:1039800000000000000001FFFE00000000000040F9
:1039900020180F03000000000000000000000000DD
:1039A000C00000000000004266663C18FF183C663C
:1039B000664200000000000003000000000000005C
:1039C0000000000080000000000000101010101027
:1039D000FF10101010100000000000000300000095
:1039E00000000000000000000000000000000000D7
:1039F0000000000000000000000000808C4C380037
:103A000000000000000000000000000000000000B6
:103A10000000001010101010101010101000000006
:103A20000000000000000000000000000000000096
:103A30000000000000000000000000000000000086
:103A4000000000001C1C1C00000000000000000022
:103A5000000000000000E0380C0000000000807052
:103A60001C03000000000060380E01000000000090
:103A70000000000080C060202060C080000000FEC8
:103A8000FF010000000001FFFE000001070E1810FA
:103A900010180E0701000000808080C0E0000000C8
:103AA00000000000000000FFFF0000000000000018
:103AB0001010101F1F101010000000804020202048
:103AC0002060C080000000030300804020381F07F2
:103AD0000000001C1A1918181818181F0000008080
:103AE000C020202060C080000000000303001010F0
:103AF000182FE780000000070F10101010180F0794
:103B00000000000000000000C0E0F000000000C065
:103B1000B088868180FFFF808000000000000010D8
:103B2000101F1F1010000000E060606060606060A7
:103B3000000000003F1008080818F0E0000000072F
:103B40000B101010101C0F030000000080C040205C
:103B50002020E0C0000000FCFF211008080818F039
:103B6000E0000001070C18101010080F03000000FF
:103B7000C0E06060606060E0600000000300000082
:103B8000E0180700000000000000001F1F000000F8
:103B900000000080C0602020202060C080000087DE
:103BA000EF2C1818303068CF830000070F08101072
:103BB0001010180F07000000C0C020202020C08077
:103BC0000000001F3F604040402010FFFE0000004A
:103BD0000C1C101010080F03000000000000000073
:103BE00000000000000000000000000E0E0E0000AB
:103BF000000000000000001C1C1C00000000000071
:103C00000000000000000000000000000000000CA8
:103C10000C00000000000000000000583800000008
:103C200000000000000000000080402010000000A4
:103C30001028448201000000000000000000000085
:103C40000102040810000000000000000000000055
:103C5000000000848484848484848484840000003C
:103C60000000000000000000000000001020408064
:103C70000000000000000000000000000182442855
:103C8000100000001008040201000000000000C045
:103C900020201010101030E0C0000003030000F0DE
:103CA00010080C070300000000001C1C1C00000092
:103CB0000000000000C0406020202040C00000FC48
:103CC000FF01F00E03C1FE03807F0001070E081103
:103CD0001110110904020000000080E0E000000063
:103CE00000000000807C4340477FF88000001018EF
:103CF0001F1000000000131F1C1020E0E0202020F7
:103D00002060C080000000FFFF10101010182FE787
:103D10008000101F1F1010101010180F0700000057
:103D200080C0402020202060E00000FCFF01000057
:103D30000000000001000001070E18101010080418
:103D4000030020E0E02020202040C080000000FF91
:103D5000FF000000000001FFFE00101F1F101010E8
:103D600018080E07010020E0E0202020202020601D
:103D7000800000FFFF101010107C00000000101FDA
:103D80001F10101010101018060020E0E020202056
:103D900020206060800000FFFF101010107C0000E9
:103DA0000100101F1F1000000000000000000000B4
:103DB00080C06020202040E0000000FCFF010000E7
:103DC0004040C0C140400001070E181010100F0FF6
:103DD000000020E0E0200000000020E0E02000FFE4
:103DE000FF101010101010FFFF00101F1F10000018
:103DF0000000101F1F100000202020E0E0202020E5
:103E000000000000000000FFFF00000000000000B4
:103E10001010101F1F1010100000000000002020C4
:103E200020E0E020202000000000000000FFFF0054
:103E300000000060E0808080C07F3F00000020E044
:103E4000E020000020A06020200000FFFF30187C50
:103E5000E3C000000000101F1F10000001131F1C12
:103E6000181020E0E020000000000000000000FF2B
:103E7000FF000000000000000000101F1F101010C5
:103E800010101018060020E0E0E000000000E0E064
:103E9000E02000FF013FFEC0E01E01FFFF00101FF9
:103EA0001000031F0300101F1F1020E0E0C00000DF
:103EB00000000020E02000FF0003071C78E08000E5
:103EC000FF00101F100000000000030F1F00000083
:103ED00080C060202060C080000000FEFF01000064
:103EE000000000FFFE000001070E181010180C075C
:103EF000010020E0E0202020202060C0800000FFA2
:103F0000FF2020202020301F0F00101F1F10000056
:103F1000000000000000000080C060202060C08021
:103F2000000000FEFF010000000000FFFE00000195
:103F3000070E1111133C7C67210020E0E0202020B7
:103F4000202060C0800000FFFF101030F0D0080F6C
:103F50000700101F1F10000000030F1C101000802E
:103F6000C060202020204040E00000070F0C1818FF
:103F7000303060E08100001F0C0810101010180F86
:103F800007008060202020E0E020202060800100E9
:103F9000000000FFFF000000000100000000101FF3
:103FA0001F100000000020E0E020000000000020C2
:103FB000E02000FFFF00000000000000FF000007FD
:103FC0000F1810101010100807002060E0E020000B
:103FD000000020E060200000077FF88000807C0364
:103FE000000000000000071F1C070000000020E088
:103FF000E02000E0E0200020E0200007FFF8E01FC4
:10400000FFFCE01F00000000031F0300011F03006E
:104010000000002060E0A0000020E0602000000020
:1040200000038F7CF8C6010000000010181E13006A
:1040300001171F1810002060E0E02000000020E0C1
:104040006020000001073EF8E018070000000000B3
:104050000010101F1F1010000000008060202020A2
:1040600020A0E0E0200000000000C0F03E0F0300B0
:10407000000000101C1F1710101010180600000080
:10408000000000FC0404040404000000000000FF21
:1040900000000000000000000000007F40404040A1
:1040A0004000000010E000000000000000000000E0
:1040B0000000031C60800000000000000000000001
:1040C00000030C70800000000404040404FC0000E1
:1040D000000000000000000000FF000000000000E1
:1040E00040404040407F0000000000000010080CED
:1040F000040C081000000000000000000000000098
:1041000000000000000000000000000000000000AF
:10411000000000000000000000000000000000009F
:10412000000000000000808080808080808080808F
:104130008080000000040408080000000000000067
:10414000000000000000000000000000000000006F
:10415000000000000000000000000000000000005F
:104160000000000098D844642424FCF80000000FEC
:104170001F18101010081F1F10180020E0F000007A
:104180000000000000000000FFFF180804040CF805
:10419000F00000001F0F18101010180F030000008F
:1041A0000000000000000000000000E0F818040417
:1041B000043C3800000000030F0C1010101008061B
:1041C00000000000000000000020E0F0000000E01F
:1041D000F81C04040408FFFF000000030F1810106F
:1041E00010081F0F08000000000000000000000081
:1041F00000000000E0F8484444444C78700000009F
:10420000030F0C181010100804000000000080C0FC
:10421000602020E0C00000040404FFFF0404040444
:104220000000000010101F1F101010000000000000
:1042300000000000000000000000000070F88C0486
:10424000048CF874040C007076CF8D8D8D89C8783D
:1042500070000020E0F000000000000000000000FE
:10426000FFFF08040404FCF8000000101F1F1000EA
:1042700000101F1F10000000000000606000000020
:1042800000000000040404FCFC000000000000002A
:104290001010101F1F101010000000000000000080
:1042A00000606000000000000000040404FCFC004A
:1042B00000000000C0C08080C07F3F0000000020E0
:1042C000E0F000000000000000000000FFFF80C0E0
:1042D000F41C0404000000101F1F1100031F1C1019
:1042E00010000000202020E0F0000000000000008E
:1042F000000000FFFF000000000000001010101F71
:104300001F1010100000000000000000000000005E
:10431000000004FCFC0804FCFC0804FCFC00101F6A
:104320001F10001F1F10001F1F10000000000000C2
:104330000000000000000004FCFC08080404FCF875
:10434000000000101F1F100000101F1F10000000B1
:104350000000000000000000000000E0F0180C0465
:10436000040C18F0E00000030F0C101010100C0FDC
:104370000300000000000000000000000000000436
:10438000FCFC080404040CF8F0000080FFFF889097
:1043900010101C0F030000000000000000000000CF
:1043A000000000E0F81C04040408F8FC000000030E
:1043B0000F1810109088FFFF800000000000000020
:1043C000000000000000040404FCFC100804040CBD
:1043D0000C001010101F1F10101000000000000033
:1043E0000000000000000000000000003078CCC495
:1043F0008484840C1C0000001E1810101011190F6A
:1044000006000000000000C00000000000000004E2
:104410000404FFFF040404000000000000000F1F5C
:104420001010100C00000000000000000000000050
:1044300000000004FCFE00000004FCFE0000000080
:104440000F1F181010081F0F0800000000000000C8
:1044500000000000000000040C3CFCC40000C43C50
:104460000C0400000000010F1E0E010000000000FF
:1044700000000000000000000000043CFCC400E458
:104480007CFC84807C040000071F070000071F07D6
:104490000000000000000000000000000000000418
:1044A000041C7CE4C0341C0404000010101C160121
:1044B000131F1C1810000000000000000000000086
:1044C000000000040C3CFCC400C43C0404000000D8
:1044D000C080C1370E010000000000000000000095
:1044E00000000000000000001C0404C4F47C1C0454
:1044F00000000000101C1F17111010180E00000003
:104500000000000000F80C04000000000000001093
:1045100028EF00000000000000000000003F6040A5
:104520000000000000000000FF000000000000008C
:1045300000000000FF00000000000000000000007C
:10454000FF00000000000000040CF8000000000064
:10455000000000000000EF28100000000000000034
:1045600040603F0000000000000000180602020446
:1045700008102020300800000000000000000000AB
:10458000000000000000000000000000000000002B
:10459000B0450008000000202000000028010008AD
:1045A000D045000820000020A00C000044010008B5
:1045B00000000000010000001000000000000000EA
:1045C00000127A0000000000FFFFFFFF0000000063
:04000005080000ED02
:00000001FF
