:020000040800F2
:10000000C80D002089010008A73B00083F34000804
:10001000A53B0008770800082957000800000000E9
:100020000000000000000000000000000142000885
:100030007908000800000000F1400008594200085B
:10004000A3010008A3010008A3010008A301000800
:10005000A3010008A3010008A3010008A3010008F0
:10006000A3010008A3010008A3010008A3010008E0
:10007000A3010008A3010008A3010008A3010008D0
:10008000A3010008A3010008A3010008A3010008C0
:10009000A3010008A3010008A3010008A3010008B0
:1000A000A3010008A3010008A3010008A3010008A0
:1000B000A3010008A3010008A3010008A301000890
:1000C000A3010008A3010008A3010008A301000880
:1000D000A3010008A3010008115700081D570008DC
:1000E000A3010008A3010008A301000800F002F822
:1000F00000F03AF80AA090E8000C82448344AAF188
:100100000107DA4501D100F02FF8AFF2090EBAE885
:100110000F0013F0010F18BFFB1A43F0010318473B
:10012000DC700000FC700000103A24BF78C878C171
:10013000FAD8520724BF30C830C144BF04680C60ED
:10014000704700000023002400250026103A28BF35
:1001500078C1FBD8520728BF30C148BF0B60704739
:100160001FB51FBD10B510BD00F07BF91146FFF79C
:10017000F7FF05F0EBFA00F099F903B4FFF7F2FF8F
:1001800003BC00F0A1F90000094880470948004776
:10019000FEE7FEE7FEE7FEE7FEE7FEE7FEE7FEE737
:1001A000FEE7FEE704480549054A064B7047000094
:1001B000D5420008ED000008C8070020C80D002047
:1001C000C8090020C8090020B2F120030AD5C2F1F5
:1001D000200320FA02F001FA03F321FA02F140EAC7
:1001E0000300704721FA03F04FF000017047000050
:1001F0000FB41CB5074B06AA7B44694600900598CE
:1002000000F0D1F80020694600F0E0F81CBC5DF871
:1002100014FB0000D101000030B505460B462A460C
:1002200013F8014B12F8010B08B1A042F8D01CB131
:10023000002802D06D1CF1E7284630BD10B5431CE4
:1002400002E010F8011B71B18107FAD14FF00132C1
:1002500002C88C1A8C4314EAC211F9D0C01A0A06DB
:1002600003D0C01E10BDC01A10BD0A0401D0801EEC
:1002700010BD0902FCD0401E10BD032A40F23080A0
:1002800010F0030C00F0158011F8013BBCF1020FD7
:10029000624498BF11F801CB00F8013B38BF11F858
:1002A000013BA2F1040298BF00F801CB38BF00F86F
:1002B000013B11F0030300F08E80083AC0F0088083
:1002C00051F8043B083A51F804CBA0E80810F5E7D0
:1002D000121D5CBF51F8043B40F8043BAFF30080B3
:1002E000D20724BF11F8013B11F801CB48BF11F828
:1002F000012B24BF00F8013B00F801CB48BF00F8F8
:10030000012B70474FF000020429C0F0128010F05A
:10031000030C00F01B80CCF1040CBCF1020F18BFE1
:1003200000F8012BA8BF20F8022BA1EB0C0100F074
:100330000DB85FEAC17C24BF00F8012B00F8012B47
:1003400048BF00F8012B70474FF0000200B513467C
:1003500094469646203922BFA0E80C50A0E80C50E5
:10036000B1F12001BFF4F7AF090728BFA0E80C5096
:1003700048BF0CC05DF804EB890028BF40F8042B8F
:1003800008BF704748BF20F8022B11F0804F18BFFC
:1003900000F8012B704770477047704701694A1C8D
:1003A00002610878704700B58FB0CDE901310021B6
:1003B000059105497944CDE903101146684600F0DE
:1003C0003CF80FB000BD0000E5FFFFFF0A6802F82F
:1003D000010B0A60704710B5203AC0F00B80B1E8FD
:1003E0001850203AA0E81850B1E81850A0E818506A
:1003F000BFF4F5AF5FEA027C24BFB1E81850A0E873
:10040000185044BF18C918C0BDE810405FEA827C8C
:1004100024BF51F8043B40F8043B08BF7047D207A3
:1004200028BF31F8023B48BF11F8012B28BF20F844
:10043000023B48BF00F8012B70472DE9F04106460A
:100440000024D6E90170F5688046304603E0414655
:10045000B847641C3046A8470028F8D12046BDE8BC
:10046000F081754600F02CF8AE460500694653460B
:1004700020F00700854618B020B5FFF793FEBDE8D1
:1004800020404FF000064FF000074FF000084FF0FB
:10049000000B21F00701AC46ACE8C009ACE8C0098C
:1004A000ACE8C009ACE8C0098D46704710B50446F9
:1004B000AFF300802046BDE81040FFF75EBE0000AD
:1004C000004870476807002001491820ABBEFEE7CE
:1004D000260002007047000070B50446006881687D
:1004E000C943C90717D1816821F00101816001F07A
:1004F0003FFD05460AE000BF01F03AFD401B02281F
:1005000004D920688068C043C00706D0206880688E
:10051000C043C007F0D0002070BDA06A40F01000BA
:10052000A062E06A40F00100E062012070BD0000BE
:10053000F8B500260446009600688168C943C907DB
:100540002DD0816841F0010181601648164900688C
:10055000B0FBF1F000E0401E00900028FBD101F05C
:1005600007FD054616E000BF01F002FD401B022812
:1005700010D920688068C043C0070BD0A06A40F043
:100580001000A062E06A40F00100E06284F824609C
:100590000120F8BD20688068C043C007E4D1002076
:1005A000F8BD00001000002040420F0000B58BB0E5
:1005B000020A8DF824208DF82500080A8DF82600FF
:1005C0000AA88DF82710009001AB042209A90C207D
:1005D00000F0C6F838B9BDF828000B2803D39DF801
:1005E0000D000BB000BDFF20FBE700B58BB001ABE9
:1005F0008DF824000AA80090012209A9022000F029
:10060000AFF838B9BDF828000B2803D39DF80D00CA
:100610000BB000BDFF20FBE700B58BB009A800229E
:10062000009001AB1146012000F09AF838B9BDF8EE
:1006300024000B2803D39DF80D000BB000BDFF2054
:10064000FBE710B503F08AFA4FF47A7001F0D2FAA2
:10065000642001F0CFFA4FF4FA74204601F0CAFA90
:100660002046BDE8104001F0C5BA00002DE9F04772
:100670008946824601F07CFC154C00260546268002
:10068000DFF8508041F288371AE02088A8B120882E
:10069000092812D3B8F80700218840BA09308142EE
:1006A0000BD322880B495046FFF7E7FD2188A9F8B4
:1006B000001026800020BDE8F087012001F09AFAA2
:1006C00001F056FC401BB842DFD32680FF20F2E742
:1006D000140000204806002000B58BB009A80022B5
:1006E000009001AB1146052000F03AF838B9BDF88A
:1006F00024000B2803D39DF80D000BB000BDFF2094
:10070000FBE730B58DB01C46109D8DF80400080A3B
:100710008DF805008DF80610100A8DF807000BA85B
:100720008DF80820009003AB052201A9042000F0F9
:1007300017F890B9BDF82C000F280ED39DF81500BE
:1007400038B9BDF8160040BA2080BDF8180040BA8C
:1007500028809DF815000DB030BDFF20FBE700009C
:10076000F0B5C1B0140002464FF0EF00469F8DF87F
:1007700000001E4625484FF001038DF80130406807
:100780006D464FEA106C8DF802C04FEA104C8DF8A0
:1007900003C04FEA102C8DF804C08DF8050004F159
:1007A00003008DF806304FEA10238DF808008DF80D
:1007B00007308DF809204FF00A0006D005F10A0035
:1007C0002246FFF75AFD0A34A0B20022062104E0B7
:1007D0006B5C491C1A4492B289B28142F8D3110A67
:1007E0002954401C80B241F288332A54401C82B202
:1007F0006946074802F0D2FD36B12FB1394630467E
:10080000FFF734FF41B0F0BD0020FBE714000020EB
:100810006001002000B58BB001AB8DF82400080A00
:100820008DF825000AA88DF826100090032209A94A
:100830000620FFF795FF38B9BDF828000B2803D331
:100840009DF80D000BB000BDFF20FBE738B50C464E
:100850000546FFF7E1FE00280CD10120FFF7C5FE99
:10086000002807D12B464FF49672002101200094F6
:10087000FFF747FF38BDFEE77047000038B503F0CB
:1008800093F901240021082327A20846009403F0CD
:1008900038FB082327A219460020009403F031FBFF
:1008A000082328A210210020009403F02AFB08232B
:1008B00027A218210020009403F023FB082327A27D
:1008C00020210020009403F01CFB082326A22821ED
:1008D0000020009403F015FB25488079052810D2EC
:1008E000DFE800F0030813181D00082321A21946B1
:1008F000009403E008231FA210210094782003F045
:1009000000FBBDE8384003F0F1B9082319A2182113
:100910000094F3E7082317A220210094EEE70823B0
:1009200014A228210094E9E741646D696E204D65A9
:100930006E753A00312E4D6F646966792050494ECC
:1009400000000000322E456E726F6C6C2046500025
:10095000332E44656C65746520465000342E446522
:100960006C204E4643000000352E45786974000027
:100970001C0000203C0000002DE9F04F99B003F06E
:1009800013F94FF00109002108235AA20846CDF8B7
:10099000009003F0B6FA02A800F0C4FD060011D0E2
:1009A0000327B01C90FBF7F0C0B217905548002504
:1009B0000DF1080B80784FF0080A00EB400000F0C2
:1009C000FF085BE0082350A210210020CDF8009022
:1009D00003F097FA79E0102101EB0511C9B2C4B216
:1009E000CDE900A916910123621C0020169903F09D
:1009F00051FA082347A2CDF800901846169903F043
:100A000080FA0BEBC400007901286BD002284FF06C
:100A10000803CDF800906AD03FA21020169903F089
:100A200070FACDE900A95BF834000223020E202001
:100A3000169903F001FACDE900A95BF8340002230E
:100A4000C0F307423020169903F0F6F9CDE900A96A
:100A50003BF834000223C0F307224020169903F02C
:100A6000EBF9CDE900A91BF8342002235020169998
:100A700003F0E2F96D1CEDB2BD4203D208EB0500B4
:100A8000B042A8D34C46082324A238210020CDF838
:100A9000009003F036FA1B48CDE900A48278554651
:100AA000012338212820521C03F0F4F908231DA249
:100AB00038213020009403F024FACDE90054382185
:100AC00001230846179A03F0E5F9082316A23821F6
:100AD0005820CDF8009003F014FA03F007F919B08C
:100AE000BDE8F08F082313A2CDF8009095E712A27D
:100AF00093E700004E46432043617264204C6973C3
:100B0000743A00001C0000204E6F20636172647311
:100B1000210000003A0000003F3A00005061676584
:100B20003A0000002F0000004B4559383A457869DB
:100B300074000000443A0000503A00002DE9FC47E0
:100B400003F032F801250021082331A20846009560
:100B500003F0D7F90024334F4FF01009082600BFE7
:100B600004EB840109EB4100C0B2CDE90065804689
:100B700001460123621C002003F08CF908232AA2FD
:100B800041461846009503F0BCF9CDE90065012304
:100B900022464146202003F07DF9788AA04206D102
:100BA000082323A241463020009503F0AAF9CDE99D
:100BB00000650123621D4146402003F06BF90823C4
:100BC00019A241464820009503F09BF9CDE9006544
:100BD0000123221D4146602003F05CF9798A201D23
:100BE000814206D1082312A241467020009503F0ED
:100BF00088F9641CE4B2042CB2D308230DA2382176
:100C00000020009503F07DF9BDE8FC4703F06EB8C5
:100C100044656C6574652046696E676572707269BB
:100C20006E7400001C0000202E49443A00000000B1
:100C30003C0000004B455931363A44656C204B4529
:100C400059383A4261636B002DE9F04F97B002F0DA
:100C5000ABFF4FF001080021082345A20846CDF85C
:100C6000008003F04EF902A800F05CFC06000AD0F8
:100C7000434800250DF1080A80784FF0080900EB81
:100C80004000C7B259E008233EA21821CDF80080E9
:100C90005BE000BF05EB4501182202EB8101C4B205
:100CA000CDE9009801F0FF0B0123621C594600209A
:100CB00003F0F0F8082336A259461846CDF8008014
:100CC00003F01FF90AEBC4004FF008030079CDF8D8
:100CD0000080012849D02FA25946102003F011F9B5
:100CE000CDE900985AF834000223020E59461C2020
:100CF00003F0A2F8CDE900985AF834000223C0F3BB
:100D0000074259462C2003F097F8CDE900983AF8AD
:100D100034000223C0F3072259463C2003F08CF82C
:100D2000CDE900981AF83420022359464C2003F0EC
:100D300083F86D1CEDB2032D02D27819B042A9D30D
:100D4000082315A23821CDF80080002003F0D9F83F
:100D5000082315A240210020CDF8008003F0D1F82F
:100D600002F0C4FF17B0BDE8F08F12A2B4E7000094
:100D700044656C657465204E46432043617264008F
:100D80001C0000204E6F206361726473210000001C
:100D90003A00000050000000313A557020323A44C9
:100DA0006E20333A44656C004B4559383A426163D2
:100DB0006B000000440000002DE9FC4702F0F4FE47
:100DC00001250021082331A20846009503F099F877
:100DD0000024334F4FF01009082600BF04EB8401B4
:100DE00009EB4100C0B2CDE9006580460146012310
:100DF000621C002003F04EF808232AA24146184640
:100E0000009503F07EF8CDE90065012322464146B6
:100E1000202003F03FF8788AA04206D1082323A2BD
:100E200041463020009503F06CF8CDE900650123C0
:100E3000621D4146402003F02DF8082319A24146C7
:100E40004820009503F05DF8CDE900650123221DDF
:100E50004146602003F01EF8798A201D814206D1A8
:100E6000082312A241467020009503F04AF8641C42
:100E7000E4B2042CB2D308230DA23821002000953F
:100E800003F03FF8BDE8FC4702F030BF456E726FDB
:100E90006C6C2046696E6765727072696E740000D2
:100EA0001C0000202E49443A000000003C000000D5
:100EB0004B455931363A5374617274204B45593859
:100EC0003A4261636B00000038B502F06DFE012408
:100ED000002108230BA20846009403F012F808230F
:100EE0000DA210210020009403F00BF808230EA29D
:100EF00030210020009403F004F8BDE8384002F0EF
:100F0000F5BE00005363616E2046696E67657270BE
:100F100072696E7400000000506C61636520666940
:100F20006E6765722E2E2E004B4559383A4261632A
:100F30006B00000038B502F037FE012400210823C1
:100F40000BA20846009402F0DCFF08230BA210213C
:100F50000020009402F0D5FF08230CA220210020DD
:100F6000009402F0CEFFBDE8384002F0BFBE0000A2
:100F7000536D61727420446F6F7200004B45593895
:100F80003A526567204E4643000000004B455931F8
:100F9000323A4C697374204E464300002DE9FC41FF
:100FA00002F002FE01250021082330A20846009528
:100FB00002F0A7FF304F4FF008084026F87943466B
:100FC0000428009523D22DA21021002002F099FFC1
:100FD0000024F87984420CD22748CDE900852430DA
:100FE0000123025D06EB0410C0B2102102F052FF93
:100FF00008E006EB0410C0B2082323A210210095DC
:1010000002F07FFF641CE4B2042CE2D322E01FA2B2
:101010001021002002F075FF0024387A84420CD29F
:101020001548CDE9008528300123025D06EB041048
:10103000C0B2102102F02EFF08E006EB0410C0B28F
:10104000082311A21021009502F05BFF641CE4B29A
:10105000042CE2D3082310A228210020009502F0DE
:1010600050FFBDE8FC4102F041BE00004D6F6469D5
:1010700066792050494E3A001C0000204E657720CA
:1010800050494E3A000000005F000000436F6E665A
:1010900069726D3A000000004B455931363A4F4BAA
:1010A000204B4559383A4261636B00002DE9FC4101
:1010B00002F07AFD0125002108231BA208460095B5
:1010C00002F01FFF1C4E0024082706F1200830798B
:1010D00084420AD2CDE90075200718F80420000EDA
:1010E0000123102102F0D6FE07E02007000E08239E
:1010F00012A21021009502F004FF641CE4B2042C3B
:10110000E5D308230EA220210020009502F0F9FE6D
:1011100008230FA230210020009502F0F2FEBDE866
:10112000FC4102F0E3BD0000456E74657220506121
:101130007373776F72643A001C0000205F00000038
:101140004B455931363A436F6E6669726D00000047
:101150004B4559383A4261636B00000038B502F0E4
:1011600023FD01240021082314A20846009402F064
:10117000C8FE082315A210210020009402F0C1FE31
:1011800014484078012802D0022804D00AE008233D
:1011900011A2009402E0082311A20094102128203B
:1011A00002F0AFFE082310A220210020009402F0DC
:1011B000A8FEBDE8384002F099BD00005363616E9F
:1011C000204E4643204361726400000054797065EC
:1011D0003A0000001C000020446F6F720000000005
:1011E0005065726D00000000506C616365206361A2
:1011F00072642E2E2E00000038B502F0D5FC0124BA
:101200000021082314A20846009402F07AFE082365
:1012100015A210210020009402F073FE082315A2ED
:1012200020210020009402F06CFE1648C0780128AE
:1012300002D0022805D00BE0082313A2102100944D
:1012400003E0082310A220210094682002F059FE38
:10125000BDE8384002F04ABD53656C656374204DAB
:101260006F64653A00000000312E50617373776F30
:1012700072640000322E46696E6765727072696E24
:10128000740000001C0000203C2D000038B502F066
:101290008BFC01240021082318A20846009402F0C8
:1012A00030FE082319A210210020009402F029FE2C
:1012B000082319A220210020009402F022FE082316
:1012C00018A230210020009402F01BFE194840783B
:1012D000012802D0022805D00BE0082316A2102115
:1012E000009403E0082314A220210094682002F057
:1012F00008FEBDE8384002F0F9BC000053656C659B
:10130000637420547970653A00000000313A446FEC
:101310006F72204361726400323A5065726D2043EF
:10132000617264004B455931363A436F6E6669729B
:101330006D0000001C0000203C2D000072B6FEE78E
:1013400006490020C8610648016941F004010161B5
:10135000016941F04001016170470000A8010020CF
:1013600000200240064A0021D16106490A6942F084
:1013700002020A614861086940F040000861704754
:10138000A801002000200240044B0022DA61044A38
:10139000136943F00103136101807047A801002025
:1013A0000020024014480022C168CB06134904D52E
:1013B000CA6942F00202CA611022C3685B0705D500
:1013C000CB6943F00103CB6142F00402C369DB0740
:1013D00007D0CB6943F00403CB61C16921F001015F
:1013E000C161A2F58071013901D0C2607047C16945
:1013F00021F00101C161704700200240A8010020D6
:1014000070B5054600F0B4FD0646114C09E0681CB5
:1014100007D025B100F0ACFD801BA84201D9032004
:1014200070BDE068C007F2D1E068800601D52020D9
:10143000E060E068C00605D4E069C00702D1E0685A
:10144000400703D5FFF7AEFF012070BD002070BD3F
:101450000020024070B594B00D46040005D06846E7
:1014600000F060F8002269460AE0032014B070BD65
:1014700051F83230A34201D10220F7E7521CD2B218
:101480008242F5D30A2801D30120EFE7064600F097
:1014900061FC0A48224600EB86010023022000F08E
:1014A00019FC07482A4600EB86010023022000F0C1
:1014B00011FC00F005FC0020D8E7000000F4010852
:1014C00000F8010810B5144C86B02068401C20D1EB
:1014D00000F040FC002000900120CDE9024004A96A
:1014E000684600F099FB30B94FF0303200232146B6
:1014F000022000F0EFFB0948029004A9684600F0C2
:101500008BFB0748029004A9684600F085FB00F0B9
:10151000D7FB06B010BD000000F0010800F4010880
:1015200000F8010870B5034600200B4D014600BFCE
:1015300005EB8102D2F80044D2F80028661C06D0E0
:1015400043F8304003EBC004401C2271C0B2491C78
:10155000C9B20A29ECD370BD00F00108044909683A
:101560000A0E02700A0C42700A0A8270C17070473B
:1015700000F001082DE9F0419AB0040005D068465A
:10158000FFF7D0FF00216D460EE002201AB0BDE843
:10159000F08100BF55F83120A24203D10A2905D0BD
:1015A000461E0DE0491CC9B28142F3D30120EDE78C
:1015B00005EBC100491CD0E90223C0E90023C9B2F0
:1015C000B142F5DB00F0C6FB00201490154F01205E
:1015D000CDE9167018A914A800F01EFBDFF84880AA
:1015E00018A914A8CDF8588000F016FB002412E0CA
:1015F00055F8342007EB84010023022000F06AFB39
:1016000005EBC40008EB840102790023022000F0FE
:1016100061FB641CE4B2B442EADB00F051FB002041
:10162000B4E7000000F4010800F8010830B585B007
:10163000044600F08FFB002000900B4D0120CDE907
:10164000025004A9684600F0E7FA2068002300BAB7
:1016500020F0FF02E07829460243022000F03AFB26
:1016600000F02EFB05B030BD00F00108F8B50024F5
:10167000009490F824202546012A12D0012280F8F7
:1016800024204A681F23072A0DD20668776B521E52
:1016900002EB820293409F430B6893401F437763A2
:1016A00019E00220F8BD06680D2A0AD2376BD21F56
:1016B00002EB820293409F430B6893401F433763C2
:1016C00009E0F76A0D3A02EB820293409F430B68F0
:1016D00093401F43F7620A68072306680A2A0AD361
:1016E000F7680A3A02EB420293409F438B689340AB
:1016F0001F43F76008E0376902EB420293409F43C3
:101700008B6893401F4337610A68102A01D0112A61
:1017100020D1124B02689A4217D193681B0219D448
:10172000936843F4000393600968102912D10C49AF
:101730000C4A0968B1FBF2F101EB8101490000E0BC
:10174000491E00910029FBD104E0816A41F020018B
:101750008162012480F824502046F8BD0024014015
:101760001000002040420F000068C06C704700006D
:101770002DE9F0414FF0000704003D467ED0A06AFD
:10178000002628B9E66284F82460204600F07EF83E
:101790002046FEF7A1FEA16AC90600D420B1A06AC6
:1017A00040F01000A06269E0A16A21F4885141F084
:1017B0000201A1626268E169237B0A4347EA4301AF
:1017C0000A43A1684FF48077B94209D0012907D0B4
:1017D0005FF0000194F814C0BCF1010F02D00AE0E0
:1017E0003946F7E7F3B1A36A43F02003A362E36A43
:1017F00043F00103E3622368D3F804C02CF4694C7E
:101800004CEA010CC3F804C021688B68DFF870C093
:1018100003EA0C0313438B60A168B9420BD0012982
:1018200009D00CE0DFF85CC0A3690CEB43330B4339
:1018300043F40061DFE7218A0D05A5F580152168D5
:10184000CB6A23F470032B43CB62216889680E4B6B
:101850001940914208D1E662A16A21F0020141F0EB
:101860000101A162BDE8F081A06A20F0020040F011
:101870001000A062E06A40F00100E0620120F1E7A0
:10188000FDF7E1FF00E0FFFFFE0E1FFF00B585B092
:101890000021009101910291039100680E49884254
:1018A00018D10E48816941F400718161816901F4A8
:1018B00000710491816941F0080181618069694684
:1018C00000F00800049002200090032001900448DA
:1018D00000F054FA05B000BD0024014000100240A1
:1018E000000C01402DE9F84300270D4604460097FF
:1018F00000F03EFB804620688168C90508D5A06AD3
:1019000040F02000A06284F824700120BDE8F88334
:101910004168C90503D4C06A10F4700F2AD00220B0
:1019200000F0C4FB3B490968B1FBF0F6206803698D
:1019300039490B424FEA61014FEAA1121FD1C36836
:101940004FEA611C13EA0C0F19D103690B4225D130
:10195000C068104222D1142023E0681C0AD02DB1A7
:1019600000F006FBA0EB0800A84203D9206800683D
:10197000800725D5206800688007EED52DE0036933
:101980000B4202D1C168114206D0026923490A42C2
:1019900006D1C068084203D1542002E0292000E0AB
:1019A000FC204643009816E0681C11D02DB100F0D1
:1019B000DFFAA0EB0800A8420AD90098B04207D28B
:1019C000A06A40F00400A06284F8247003209DE720
:1019D0000098401C0090B042E6D321686FF01200DE
:1019E0000860A06A40F40070A06220688068C0F3BC
:1019F000424007280CD1207B50B9A06A20F48070A7
:101A0000A062A06AC00403D4A06A40F00100A062F2
:101A100000207BE7100000202449922449922400F2
:101A200070B5044690F8240001280DD0012084F8F8
:101A300024002046FEF77CFD02004FF0000005D098
:101A400084F82400104670BD022070BDA16A40F2E7
:101A50000123994341F48071A1621F4D23681F49FE
:101A6000AB4218D10E6816F4702F14D0A66A46F453
:101A70008016A6620E68760505D5A66A26F400567D
:101A800046F48056A662A66AF6040AD5E66A26F0EF
:101A90000606E66206E0A66A26F48016A6625E687E
:101AA000E9E7E06284F824006FF002001860206823
:101AB0008368C3F34243072B05D1A84208D10968C4
:101AC00011F4702F04D0816841F480118160B9E76E
:101AD000816841F4A001F9E7002801400424014095
:101AE00010B5044690F82400012807D0012084F89E
:101AF00024002046FEF7F0FC10B107E0022010BDE4
:101B0000A16A21F4885141F00101A162002184F809
:101B1000241010BD10B590F821100022022905D024
:101B20000421816380F82020012010BD01680B682A
:101B300023F00E030B6001680B6823F001030B60B8
:101B400090F84030C46B012101FA03F3636080F820
:101B5000211080F82020104610BD000010B590F82C
:101B600021100024022903D00421816301243DE0D7
:101B700001680A6822F00E020A6001680A6822F011
:101B800001020A601A4A0168914201D1012121E053
:101B9000174A1432914201D110211BE0144A283215
:101BA000914201D1891515E0114A3C32914201D18F
:101BB00089140FE00E4A5032914202D14FF4803125
:101BC00008E00B4A6432914202D14FF4801101E0E7
:101BD0004FF08071064A083A5160012180F82110C7
:101BE000002180F82010416B01B18847204610BDCC
:101BF0000800024070B5044600F0BAF90546601CC2
:101C000002D004480078044400F0B2F9401BA0421E
:101C1000FAD370BD040000202DE9F04705462648A0
:101C20000F460126017E01290FD001218146017650
:101C30002868DFF888804CF25034022808D0A24689
:101C40002046FFF7DDFBA8B131E00220BDE8F087B8
:101C50002046FFF7D5FB08BB0120FFF771FB2046AC
:101C6000FFF7CEFBD8F81010064621F00401C8F8A3
:101C700010101CE04FF0FF303860AC6811E02046D7
:101C8000FFF770FB5046FFF7BBFBD8F810100600BB
:101C900021F00201C8F8101001D03C6007E004F503
:101CA0008064D5E9020100EB8120A042E7D8002141
:101CB00089F818103046C9E7A8010020002002402A
:101CC0000348016941F08001016100207047000074
:101CD000002002402DE9F05F07461C48884600249A
:101CE000017E15461E46012909D001218146017653
:101CF0004CF2503A5046FFF783FB18B122E0022025
:101D0000BDE8F09F012F02D0022F00D00427D34658
:101D1000DFF83CA0220128463146FEF755FA81B291
:101D200008EB4400FFF730FB5846FFF769FBDAF891
:101D3000102022F00102CAF8102018B9641CE4B285
:101D4000BC42E7D3002289F81820D9E7A801002077
:101D500000200240064900200A69120607D5054AFC
:101D60004A60054A4A600969090600D501207047A2
:101D70000020024023016745AB89EFCD2DE9F84FE4
:101D8000DFF8B8910024A9F1040B23460F2709F1CD
:101D9000040AABF1040EC9E00125A5402A40AA427D
:101DA0007DD1674ED1F804C0ACEB0608B44532D003
:101DB00014DCBCF1030F3AD009DCBCF1000F2AD0CF
:101DC000BCF1010F1CD0BCF1020F31D11DE0BCF100
:101DD000110F17D0BCF1120F2AD119E0B8F5881FE6
:101DE00019D006DCB8F5803F15D0B8F5801F1FD19B
:101DF00011E0B8F5001F0ED0B8F5041F18D10AE0A5
:101E0000CB6815E0CB681B1D12E0CB6808330FE0F0
:101E1000CB680C330CE08B682BB1012B4FF008031F
:101E200003D0456104E0042302E0056100E00023E3
:101E3000FF2A01D8064601E000F104064FEA8405B6
:101E400001D9A5F12005D6F8008007FA05FC28EA9B
:101E50000C0803FA05F548EA0508C6F800804D6845
:101E6000ED0062D5374DAE6946F00106AE61AD6951
:101E700024F0030605F001050095334D06EB050C33
:101E8000DCF80850A607360F07FA06F825EA080519
:101E9000DFF8B880404503D14FF0000817E044E078
:101EA000DFF8AC80404502D14FF001080FE0DFF8C9
:101EB000A480404502D14FF0020808E0DFF8988086
:101EC000404502D14FF0030801E04FF0040808FA42
:101ED00006F848EA0508CCF808804D68D9F8006093
:101EE000ED024D4601D5164300E096432E604D6845
:101EF000DAF80060AD02554601D5164300E096437E
:101F00002E604D68DBF80060AD035D4601D51643D9
:101F100000E096432E604D68DEF80060ED037546E4
:101F200001D5164300E096432E60641C0D682A46D6
:101F3000E5407FF431AFBDE8F88F000008040140B0
:101F40000000111000100240000001400008014094
:101F5000000C01400010014000140140806808405E
:101F600000D0012070470AB1016170470904FBE706
:101F70000148806870470000040000200248816822
:101F8000027811448160704704000020074810B5B2
:101F9000016841F010010160032000F075F80F2086
:101FA00000F006F800F024F8002010BD00200240E8
:101FB00070B50D4D04464FF47A712878B1FBF0F0FE
:101FC0000A490968B1FBF0F000F02EFD48B9102C69
:101FD00007D200222146501E00F036F800206C6027
:101FE00070BD012070BD0000040000201000002022
:101FF0000C4808B5816941F001018161816901F0F6
:1020000001010091C16941F08051C161C06900F0D6
:10201000805000900448416821F0E06141F0007177
:10202000416008BD0010024000000140002809DBAB
:1020300000F01F02012191404009800000F1E020E2
:10204000C0F8001170470000F0B40E4B1B680C463E
:10205000C3F30223C3F10705042D00D90425191D7C
:10206000072901D2002300E0DB1E012606FA05F154
:10207000491E214099409E40761E16403143F0BCD7
:1020800003F053BB0CED00E0064900F007020868BE
:102090004FF6FF03184040EA0220034A104308604D
:1020A000704700000CED00E00000FA0510B5014695
:1020B0000020234C012922D0022939D010291DD11A
:1020C00061682268D20119D51E48C1F38342C90351
:1020D000805C0AD561681B4AC1F34041921E515C85
:1020E000194AB2FBF1F1484301E0184948436168DD
:1020F000490203D440000321B0FBF1F010BD226A75
:10210000C2F30121012903D1920701D5C80310BDF3
:10211000022905D1626A920702D549F6404010BDF6
:102120000329FCD121688903F9D54FF2244010BD61
:1021300000F02AF96168C1F38131491C4900DBE7ED
:1021400000100240EC57000800127A0000093D0020
:102150002DE9F84305460078354CC00754D0E069B6
:102160000026C00008D4E06940F08050E061E069DA
:10217000012600F0805000902E480168C90512D455
:102180000168804641F480710160FFF7F1FE074667
:1021900005E000BFFFF7ECFEC01B642823D8D8F889
:1021A0000000C005F6D5206A10F4407021D0A9883F
:1021B00001F4407181421CD0206A1F49012220F4A1
:1021C00040700A6000220A602062C00711D0FFF749
:1021D000CFFE074641F2883808E000BFFFF7C8FE8F
:1021E000C11B414502D90320BDE8F883206A80075E
:1021F000F4D5206A696820F44070084320621EB15B
:10220000E06920F08050E0612878800705D560689B
:10221000A96820F44040084360602878C00605D5CE
:102220006068E96820F48000084360600020DBE714
:102230000010024000700040400442422DE9F04787
:102240000F46050061D0434E306800F00700B842E9
:1022500009D2306820F0070038433060306800F061
:102260000700B84251D128683B4C810712D540077E
:1022700003D5606840F4E06060602878000703D50B
:10228000606840F4605060606068A96820F0F00009
:10229000084360602878C00728D06868012810D0FB
:1022A0002168022810D0890700292EDA616821F000
:1022B000030101436160FFF75BFE804641F288390C
:1022C0000DE021688903EFE78901EDE7FFF750FE94
:1022D000A0EB0801494502D90320BDE8F0876068FA
:1022E000696800F00C00B0EB810FEFD1306800F0AE
:1022F0000700B8420BD9306820F00700384330603F
:10230000306800F00700B84201D00120E5E72878E6
:10231000400705D56068E96820F4E0600843606024
:102320002878000706D56068296920F4605040EAE3
:10233000C100606000F038F86168084AC1F3031119
:10234000515CC8400649086006480068FFF730FE47
:102350000020C2E70020024000100240FC570008A5
:102360001000002008000020044805490068496862
:10237000044AC1F30221515CC8407047100000209C
:10238000001002400C5800080448054900684968DC
:10239000044AC1F3C221515CC840704710000020BC
:1023A000001002400C5800080E4A51680E4801F017
:1023B0000C03042B11D0082B0FD10C48C1F383431D
:1023C000C903C05C0AD55168084AC1F34041921E56
:1023D000515C054A5043B0FBF1F070470449484353
:1023E000704700000010024000127A00DA5700081F
:1023F00000093D002DE9F84F040070D02078C04D51
:10240000C00749D06868C0F38100012807D0686818
:10241000C0F38100022809D16868C00306D5286886
:10242000800339D560680028E7D035E06068B0F5F2
:10243000803F0BD010B1B0F5A02F11D0286820F448
:1024400080302860286820F4802002E0286840F46A
:1024500080302860606890B1FFF78AFD06460AE088
:10246000286840F480202860F0E700BFFFF780FD77
:10247000801B642873D828688003F7D50CE0FFF729
:1024800077FD064605E000BFFFF772FD801B64285C
:10249000F0D828688003F7D420789A4E80074FF050
:1024A00001094FF0000839D5686810F00C0F07D00B
:1024B0006868C0F38100022809D16868C00306D4A7
:1024C0002868800714D52069012808D110E0206908
:1024D000B0B1C6F80090FFF74BFD074605E00AE1F2
:1024E000FFF746FDC01B0228C4D828688007F7D52F
:1024F0002868616920F0F80040EAC10028600DE01A
:10250000C6F80080FFF734FD074604E0FFF730FD12
:10251000C01B022823D828688007F7D4207800073A
:102520002CD57948A169D9B1C0F80090FFF720FDFA
:10253000074604E0FFF71CFDC01B02280FD8686A9D
:102540008007F7D571484FF4FA510068B0FBF1F0FD
:10255000009000BF0098411E0091FAD20EE080E08A
:10256000C0F80080FFF704FD074604E0FFF700FD18
:10257000C01B022875D8686A8007F7D42078400706
:1025800060D5E8690027C00008D4E86940F08050B1
:10259000E861E869012700F0805000905C4801681C
:1025A000C90513D40168834641F480710160FFF7C7
:1025B000DFFC824606E000BFFFF7DAFCA0EB0A0072
:1025C00064284ED8DBF80000C005F5D5E068012886
:1025D0000AD008B1052813D0286A20F0010028622B
:1025E000286A20F0040002E0286A40F00100286216
:1025F000E06841F2883B98B1FFF7BAFC82460BE0F5
:10260000286A40F004002862EEE700BFFFF7B0FC44
:10261000A0EB0A0159455AD8286A8007F6D50CE084
:10262000FFF7A6FC824605E0FFF7A2FCA0EB0A013B
:1026300059454CD8286A8007F6D41FB1E86920F0C4
:102640008050E861E06988B36968C1F381010229BB
:1026500044D00228C6F8608004D0FFF789FC044605
:1026600038E034E0FFF784FC074604E0FFF780FC25
:10267000C01B02282BD828688001F7D4206AB0F547
:10268000803F05D16868A16820F400300843686085
:10269000D4E908010843696821F4741108436860AB
:1026A000C6F86090FFF764FC044606E025E000BF32
:1026B000FFF75EFC001B022809D828688001F7D5C7
:1026C0001BE000BFFFF754FC001B022802D90320C7
:1026D000BDE8F88F28688001F4D40EE00128F7D017
:1026E0006868226A00F48031914204D1616A00F482
:1026F0007010884201D00120EAE70020E8E70000DE
:1027000000100240000042428004424210000020BB
:102710000070004070B5040009D0606A002540B127
:1027200025616561A56294F8510040B10CE001207B
:1027300070BD6068B0F5827FF4D0E561F2E784F89F
:102740005050204600F040F8022084F851002068E4
:10275000016821F040010160A088218900F48270A5
:1027600001F404410843A18901F400610843217C7C
:1027700001F002010843217D01F001010843218B92
:1027800001F400710843217F01F03801084394F8F7
:10279000201001F080010843218D01F4005108430D
:1027A00021680860A069042101EA1040216848609E
:1027B0002068C16921F40061C1616565012084F868
:1027C0005100002070BD000030B585B00024009499
:1027D00001940294039400681449884223D1144858
:1027E000816941F480518161816901F480510491D2
:1027F000816941F00401816180690E4D00F004009F
:102800000490A020009002200190032003906946CC
:102810002846FFF7B3FA4020CDE900046946284670
:102820000294FFF7ABFA05B030BD00000030014064
:1028300000100240000801402DE9FF4F81B01D4605
:10284000934604464FF001090E9EFFF791FB0746A1
:1028500094F851006168012806D0B1F5827F3CD11F
:10286000A168C9BB042838D10298002871D0BBF1F7
:10287000000FFBD0002DF9D094F8500001282CD087
:102880004FF0010A84F850A094F85100042802D0B7
:10289000052084F851004FF00008C4F85480C4F8B3
:1028A00038B0E587A58702992163E586A586C4F837
:1028B0004080C4F8448020680168490603D4016858
:1028C00041F040010160E068B0F5006F606808D039
:1028D000F0B3012D49D081E0FFE7022005B0BDE84B
:1028E000F08F08B1012D39D1206B21680088C860B4
:1028F000206B801C2063E08E401EE0862EE0206866
:10290000816889070FD5E18E69B1B9F1010F0AD14C
:10291000216B0988C160206B801C2063E08E401E03
:10292000E0864FF0000920688168C9070CD0E18F6C
:1029300051B1C068A16B0880A06B801CA063E08FC0
:10294000401EE0874FF00109FFF712FBC01B01E0BA
:102950000BE067E0B04201D3701C50D1E08E00283C
:10296000CDD1E08F0028CAD13EE0206B21680078ED
:102970000873206B401C2063E08E401EE0862DE033
:102980002068816889070FD5E18E69B1B9F1010F1F
:102990000AD1216B09780173206B401C2063E08E03
:1029A000401EE0864FF0000920688168C9070CD0FE
:1029B000E18F51B1C068A16B0870A06B401CA0638F
:1029C000E08F401EE0874FF00109FFF7D1FAC01BEE
:1029D000B04202D3701C01D011E086B1E08E002815
:1029E000CED1E08F0028CBD13A463146204601F0C7
:1029F00091FB50B12020606584F8508012E084F88B
:102A000051A084F85080032068E7A06818B92068B6
:102A1000C1688068009084F851A084F85080606D8F
:102A20000028F1D0012059E710B5401EB0F1807F99
:102A300001D3012010BD4FF0E02460610F21601729
:102A400002F073FE0020A06107202061002010BD6D
:102A500070B590F83C20012A26D0012480F83C4033
:102A6000022280F83D2003685A689D6822F07006B3
:102A70000A6832435A600D4B02689A4208D0B2F19C
:102A8000804F05D00A4B9A4202D00A4B9A4204D199
:102A9000496825F080031943916080F83D4000218A
:102AA00080F83C10084670BD022070BD002C01402B
:102AB000000400400008004010B5040003D094F862
:102AC0003D0010B107E0012010BD002084F83C005B
:102AD000204600F01FF8022084F83D00211D2068E8
:102AE00001F0FAFB012084F8460084F83E0084F8E7
:102AF0003F0084F8400084F8410084F8420084F8E4
:102B0000430084F8440084F8450084F83D00002028
:102B100010BD000008B50068B0F1804F08D105482D
:102B2000C16941F00101C161C06900F0010000907C
:102B300008BD00000010024070B5044690F83C004B
:102B40000025012817D0012684F83C60022084F873
:102B50003D002068826822F0770222F47F42826082
:102B60000868502838D00DDC20284FD005DC90B301
:102B7000102811D14AE0022070BD302846D04028EC
:102B80000AD13BE060282FD070280DD0B0F5805FCF
:102B900003D0B0F5005F12D0012584F83D6000201D
:102BA00084F83C00284670BDCB68D1E9012120683B
:102BB00001F0DBFB2068816841F0770109E0CB6818
:102BC000D1E90121206801F0D0FB2068816841F43F
:102BD00080418160E1E719E0CA684968206801F036
:102BE00079FC5021206806E0CA684968206801F035
:102BF00082FC6021206801F0C2FBCEE7CA68496808
:102C0000206801F067FC40212068F4E72268014653
:102C10001046F0E710B586B00021009101910291B5
:102C200003910068B0F1804F2BD11748816941F0C2
:102C300004018161816901F004010491816941F01D
:102C4000080181618069022400F0080004904FF4BB
:102C50000040CDE9000469460C480394FFF78EF864
:102C60000820CDE90004694609480394FFF786F877
:102C70000848416821F4407141F0E06141F48071FD
:102C8000416006B010BD0000001002400008014085
:102C9000000C01400000014070B5044690F83C0073
:102CA00000260D4601280FD0012084F83C006AB1AF
:102CB000042A1DD0082A2FD00C2A3FD0012600203C
:102CC00084F83C00304670BD022070BD206801F0E1
:102CD0005FFB2068816941F008018161206881699A
:102CE00021F004018161206881692A69114311E0A2
:102CF000206801F075FB2068816941F40061816101
:102D00002068816921F480618161206881692A6974
:102D100041EA02218161D2E7206801F08DFB206841
:102D2000C16941F00801C1612068C16921F0040155
:102D3000C1612068C1692A69114311E0206801F06E
:102D4000A7FB2068C16941F40061C1612068C169C5
:102D500021F48061C1612068C1692A6941EA0221C8
:102D6000C161ACE710B5040003D094F83D0010B188
:102D700007E0012010BD002084F83C00204600F050
:102D80001EF8022084F83D00211D206801F0A4FAFD
:102D9000012084F8460084F83E0084F83F0084F85F
:102DA000400084F8410084F8420084F8430084F82D
:102DB000440084F8450084F83D00002010BD7047B1
:102DC00010B50446022249B104290ED0082913D0B7
:102DD00094F84100012816D0012010BD94F83E005F
:102DE0000128F9D184F83E200FE094F83F00012833
:102DF000F2D184F83F2008E094F840000128EBD19C
:102E000084F8402001E084F841200122206801F08C
:102E10009FFA0F492068884203D1426C42F4004275
:102E200042642068884208D0B0F1804F05D009493B
:102E3000884202D00849884204D1816801F0070124
:102E4000062903D0016841F001010160002010BD96
:102E5000002C0140000400400008004030B504464A
:102E60000D460068002201F073FA174B41F2111170
:102E700020688A10984209D1036A0B4206D1036A7E
:102E8000134203D1436C23F4004343642068036A74
:102E90000B4206D1016A114203D1016821F0010100
:102EA000016001203DB1042D08D0082D09D084F81F
:102EB0004100002030BD84F83E00FAE784F83F006E
:102EC000F7E784F84000F4E7002C014070477047B2
:102ED000F8B5016804460868CA684B6910F00F0F1E
:102EE0004FF0000559D003F0010602F49077374304
:102EF00065D0C10705D0D10503D5616C41F0010152
:102F00006164410705D5D90703D0616C41F0020126
:102F10006164810705D5D90703D0616C41F00401D4
:102F20006164010707D502F02001314303D0616CD1
:102F300041F008016164616C00293AD0800604D533
:102F4000900602D5204601F017FB20684069616CAD
:102F5000C0F38010090700D460B3204601F0E5FA01
:102F600020684069400621D52068143050E8001FD1
:102F700021F0400140E80012002AF5D1E06BA8B131
:102F80006D494163E06BFEF7E9FD002811D0E06B6D
:102F9000416B01B0BDE8F040084783060FD59306AA
:102FA0000DD52046BDE8F84001F0E6BA2046FFF70F
:102FB0008EFFF8BD2046FFF78AFF6564F8BD266BDB
:102FC0002023012E7CD1C6067AD5D60678D508688E
:102FD0004868009048694FF00206400640D5E16B12
:102FE000086840680004000CE8D0A28D8242E5D950
:102FF000E085886920282DD020680C3050E8001F1B
:1030000021F4807140E80012002AF5D120681430C4
:1030100050E8001F21F0010140E80012002AF5D11C
:103020002068143050E8001F21F0400140E80012F1
:10303000002AF5D184F84230256320680C3050E82E
:10304000001F21F0100140E80012002AF5D1E06BCA
:10305000FEF760FD6663A08DE18D401A81B22AE023
:10306000A08DE18D401A81B2E08D0028A6D0002904
:10307000A4D022680C3252E8000F20F4907042E88D
:103080000007002FF5D12068143050E8002F22F0FF
:10309000010240E80027002FF5D184F84230256373
:1030A00020680C3050E8002F22F0100240E8002386
:1030B000002BF5D166632046FFF708FFF8BDFFE758
:1030C00005062BD5150629D594F841002128F5D100
:1030D000A068B0F5805F01D12069B0B1206A411CC1
:1030E0002162216800784860E08C401E0004000CDA
:1030F000E084E3D12068C16821F08001C1602068CC
:10310000C16841F04001C160D8E7206A0088C0F37F
:1031100008004860206A801C2062E5E74006CDD5A3
:103120005006CBD5CA68204622F04002CA6084F817
:10313000413000F083F9C1E71B45000870B5040079
:1031400004D094F84100002510B106E0012070BDC4
:1031500084F84050204600F023F8242084F84100F1
:103160002068C16821F40051C160204601F066FA70
:103170002068016921F4904101612068416921F0D2
:103180002A0141612068C16841F40051C160656451
:10319000202084F8410084F842006563002070BD5F
:1031A00030B585B0002400940194029403942E4D10
:1031B00003682E4802210322AB4227D1C36943F49E
:1031C0000033C361C36903F400330493836943F09C
:1031D000040383618069264D00F0040004900420FC
:1031E000CDE90001039269462846FEF7C7FD082095
:1031F000CDE90004694628460294FEF7BFFD00228F
:1032000011462620FEF720FF262029E0194DAB426B
:1032100028D1C36943F48023C361C36903F48023C5
:103220000493836943F0080383618069039200F08B
:10323000080004902815CDE900010F4D6946284685
:10324000FEF79CFDE814CDE9000469462846029487
:10325000FEF794FD002211462720FEF7F5FE2720F9
:10326000FEF7E4FE05B030BD00440040001002400F
:103270000008014000480040000C014090F8423036
:10328000202B01D00220704721B11AB10023036323
:1032900001F030BA012070472DE9F041074600687F
:1032A0003149884244D1324C304E0025637B5A1C50
:1032B000F15CD0B2A1F1300CBCF1090F04D86073FD
:1032C00020282FD365732DE00D2905D00A2903D0BE
:1032D000607320281AD225E0F55426A12348FCF774
:1032E0009BFF4FF0010810B184F810800EE024A17C
:1032F0001E48FCF791FF08B1257407E0607B0428A5
:1033000004D10020315C30390A2905D365732021AE
:103310001648FCF7F7FF05E0401CC0B20428F1D3C3
:1033200084F80E80607B012231181848FFF7A6FF51
:103330001748874215D117480188090411D401881C
:10334000FF2901880AD8491C018013490088BDE87B
:10335000F041014401220E48FFF790BF41F40041C3
:103360000180BDE8F08100000044004048070020D3
:103370001C000020434F4E4E454354204F4B00004D
:10338000444953434F4E4E4543540000180100201A
:103390006001002014000020480600202DE9F843B9
:1033A000044690F84100984616460D46202802D063
:1033B0000220BDE8F88385B17EB100206064212041
:1033C00084F84100FEF7D4FDA6848146E684A06817
:1033D0002027B0F5805F02D003E00120E9E72069F3
:1033E00010B12E4600250EE000260CE0802120467C
:1033F00001F09BF9A8B9C6B116F8010B2168486025
:10340000E08C401EE084E08C4B464FF00002CDF88B
:1034100000800028EAD14FF04001204601F085F9F4
:1034200040B184F841700320C3E735F8020BC0F3C4
:103430000800E3E784F841700020BAE77047FEE730
:1034400070B501220E4D940321462846FEF78BFDF0
:103450000122560331462846FEF785FD00F048F864
:10346000002221462846FEF77EFD00F041F80022AA
:1034700031462846FEF777FDBDE8704000F038B8C9
:103480000010014070B50B4D4FF4804400222146DE
:103490002846FEF768FD012251032846FEF763FD2A
:1034A00000F026F821462846BDE870400122FEF7CC
:1034B0005ABD00000010014070B50C4C0122910370
:1034C0002046FEF750FD00F013F80122550329466F
:1034D0002046FEF748FD00F00BF800222946204662
:1034E000FEF741FDBDE8704000F002B80010014059
:1034F0000320401EC0B2FCD270470F281DD2DFE867
:1035000000F01C080A0C1C0E10121C1416181C1CAF
:103510001A000120704702207047032070470420E2
:103520007047052070470620704707207047082025
:1035300070470920704700207047FF207047000047
:103540002DE9F05F614D0024224620212846FEF738
:103550000AFD012240212846FEF705FD01228021B7
:103560002846FEF700FD0122170239462846FEF7DD
:10357000FAFC4FF4007841462846FEF7EFFC00B90C
:103580000124DFF84CB14FF4004A51465846FEF78B
:10359000E5FC00B902244F4E01213046FEF7DEFC67
:1035A00000B9032402213046FEF7D8FC00B90424F8
:1035B000012220212846FEF7D6FC00224021284681
:1035C000FEF7D1FC012280212846FEF7CCFC012227
:1035D000B94639462846FEF7C6FC474641462846C6
:1035E000FEF7BCFC00B90524D0465146DA465846E1
:1035F000FEF7B4FC00B9062401213046FEF7AEFC0C
:1036000000B9072402213046FEF7A8FC00B90824BF
:10361000012220212846FEF7A6FC0122402128464F
:10362000FEF7A1FC002280212846FEF79CFC012227
:10363000CB4649462846FEF796FCB9463946284609
:10364000FEF78CFC00B90924414657465046FEF768
:1036500085FC00B90A2401213046FEF77FFC00B941
:103660000B2402213046FEF779FC00B90C2401221C
:1036700020212846FEF777FC012240212846FEF74C
:1036800072FC012280212846FEF76DFC002259467B
:103690002846FEF768FC49462846FEF75FFC00B95D
:1036A0000D2441463846FEF759FC00B90E2401218D
:1036B0003046FEF753FC00B90F2402213046FEF7D6
:1036C0004DFC00B910242046BDE8F09F000C0140DD
:1036D000001001400008014070B50C46054600F09E
:1036E000A9F820EA04012846BDE8704000F0CAB8F5
:1036F0002DE9FF5F0027FE25DDF838A016468B4632
:103700008146B8460C2805D0B9F10E0F05D1122715
:10371000102001E077273020804647F0800102200A
:1037200000F0B0F880210420FFF7D6FF002101202F
:1037300000F0A8F880210A2000F098F8002405E0A5
:103740001BF80410092000F09DF8641CB442F7D364
:103750004946012000F096F8B9F10C0F03D1802101
:103760000D2000F083F8294E042000F063F8044691
:10377000761E04D0E00702D114EA080FF4D08021AD
:103780000D20FFF7A9FF36B1062000F053F810F026
:103790001B0F0CD0FE2580210C2000F067F80021C3
:1037A000012000F06FF804B02846BDE8F09F002526
:1037B0003C40E00700D0FF25B9F10C0FEBD10A2007
:1037C00000F038F804460C2000F034F810F0070040
:1037D0004FEAC40104D008390844AAF8000001E007
:1037E000AAF8001024B1122C04D91224002603E0F8
:1037F0000124FBE7002605E0092000F01BF80399EF
:103800008855761CA642F7D3C5E70000E093040074
:1038100010B5012210210548FEF7A5FB0122BDE8E5
:10382000104011460248FEF79EBB00000008014010
:10383000000C014070B57E2101EA40000A4D40F0C5
:103840008004002210212846FEF78DFB204600F060
:1038500051FC002000F04EFC0446012210212846B5
:10386000FEF781FB204670BD0008014070B50C4694
:103870000546FFF7DFFF40EA04012846BDE8704037
:10388000AFF3008070B50E467E2101EA4004094D79
:10389000002210212846FEF766FB204600F02AFC95
:1038A000304600F027FC2846BDE870400122102178
:1038B000FEF759BB000801403EB5002111480091B8
:1038C00001910F4A02910260816001730175012428
:1038D0004FF460220461C2614160FDF749FF08B105
:1038E000FDF72CFD0920CDE9000407200290694670
:1038F0000448FDF7BBFE002801D0FDF71FFD3EBDCB
:1039000000240140480000202DE9F04385B0002646
:1039100044480096019602960396816941F0100191
:103920008161816901F010010491816941F02001F8
:103930008161816901F020010491816941F00401F4
:103940008161816901F004010491816941F00801FC
:1039500081618069344F00F008004FF4C044049046
:10396000012221463846FEF7FEFADFF8C080012228
:1039700010214046FEF7F7FADFF8B490012242F238
:1039800061114846FEF7EFFA002280214846FEF713
:10399000EAFA009401240325694638460194CDE9EA
:1039A0000245FEF7EBF9E003CDE900066946029413
:1039B0003846FEF7E3F90095CDE9016469464046D3
:1039C000FEF7DCF91020CDE9000469464046CDE958
:1039D0000245FEF7D3F90094694648460194CDE9C3
:1039E0000245FEF7CBF96003CDE900040220CDE9E2
:1039F000020569464846FEF7C1F94FF4F070039599
:103A00008DE8510069464846FEF7B8F96002CDE9F5
:103A10000006694602944846FEF7B0F905B0BDE8D5
:103A2000F083000000100240001001400008014037
:103A3000000C0140104810B50E4901604FF482712E
:103A4000416000218160C1604FF400720161C0E9F2
:103A500005121822C0E90721416281620A21C16270
:103A6000FEF758FE002803D0BDE81040FDF766BC05
:103A700010BD0000003001407800002010B58EB06D
:103A800000240794089409940A940B941C21684616
:103A90000C94FCF759FC22484FF08041016047210B
:103AA000C0E9011444F61F61C0E90314802181615B
:103AB000FFF702F808B1FDF741FC4FF48050079082
:103AC00007A91748FFF738F808B1FDF737FC144885
:103AD000FFF748F908B1FDF731FC0B940BA910482A
:103AE0000C94FEF7B5FF08B1FDF728FC6020CDE986
:103AF000000402940022694609480494FFF7CCF8B8
:103B000008B1FDF71BFC042269460548FFF7C4F81D
:103B100008B1FDF713FC0248FFF77CF80EB010BDAA
:103B2000D00000200C4810B50A4901604FF4E13183
:103B30004160002181600C22C160C0E904128161F2
:103B4000C161FFF7FBFA002803D0BDE81040FDF784
:103B5000F5BB10BD004400401801002010B50F4C0B
:103B60000D480C2120604FF4614060600020A0608F
:103B7000E060C4E90401A061E0612046FFF7DEFADD
:103B800008B1FDF7DBFB20684068BDE8104001226A
:103B900003490248FFF772BB004800406001002063
:103BA00048060020FEE7FEE730B40021084B0A4635
:103BB0005FF0000003EBC004401CC0B262548028D8
:103BC000F8D3491CC9B20829F2D330BC00F08EB832
:103BD000C801002030B5CC0801F0070301259D4045
:103BE000EBB2064D05EBC005C808285C0AB11843C6
:103BF00002E063EA0000C043285530BDC801002040
:103C000010B50021AE2000F09AF90021084600F01E
:103C100096F90021102000F092F90021402000F0D8
:103C20008EF90021812000F08AF90021CF2000F0D8
:103C300086F90021A12000F082F90021C82000F0BF
:103C40007EF90021A62000F07AF90021A82000F0DA
:103C500076F900213F2000F072F90021D32000F016
:103C60006EF90021084600F06AF90021D52000F025
:103C700066F90021802000F062F90021D92000F0CF
:103C80005EF90021F12000F05AF90021DA2000F05D
:103C900056F90021122000F052F90021DB2000F03B
:103CA0004EF90021302000F04AF90021202000F0D8
:103CB00046F90021022000F042F900218D2000F099
:103CC0003EF90021142000F03AF9FFF76DFF0021C2
:103CD000BDE81040AF2000F032B90246012000E0FC
:103CE0005043491EC9B2FBD27047000070B5184E50
:103CF000002400BF04F1B000C0B2002100F01FF9A1
:103D00000021084600F01BF90021102000F017F9EF
:103D1000FFF796FB782000F075FAFFF7CDFB402007
:103D200000F070FAFFF7C8FB5FF0000506EBC50076
:103D3000005D00F067FAFFF7BFFB6D1CEDB2802D50
:103D4000F4D3FFF79FFB641CE4B2082CD2D370BD00
:103D5000C80100202DE9FC4F1C460E4682468B46CA
:103D60000190082B0DD0600700D0012000EBD4009B
:103D700061084843C0B28146203AD0B2009000208A
:103D80004BE00620F7E7082C13D00C2C18D0102C91
:103D90001BD0182C44D10098234900EBC00000BF71
:103DA00001EB8001002711F80850E80712D00B9AA8
:103DB00013E000981D4900EB400001EB4001F1E7E2
:103DC00000981B4900EB4000EAE71A49009801EB14
:103DD0000011E7E70B9828B3002231465046FFF761
:103DE000F9FE761C7F1C6D08FFB2F6B2082FDCD3FB
:103DF0000AF1010000F0FF0A082C0AD00199AAEB91
:103E00000100B0EB540F04D10BF108008A4600F01A
:103E1000FF0B08F101005E46C0B280464845B2D3B0
:103E2000BDE8FC8F0122D8E7A06400081458000800
:103E30003C5A0008B05E00082DE9F84F0025DDE986
:103E40000A691F4692468B468046082E00D10225FD
:103E500000241BE0381B401EC1B21020FFF73DFFBD
:103E6000BAFBF0F000F00F0205EB560101FB0480F5
:103E70000A2AC0B233465946CDF8009001D23032FA
:103E800000E03732FFF766FF641CE4B2BC42E1D3C6
:103E9000BDE8F88F2DE9F84F0025DDE90A691F46D6
:103EA00092468B468046082E00D1022500241CE055
:103EB000381B401EC1B20A20FFF70FFFBAFBF0F01B
:103EC0000A21B0FBF1F201FB1200CDF8009080B1A5
:103ED0003030C2B205EB560101FB0480C0B233465C
:103EE0005946FFF737FF641CE4B2BC42E0D3BDE89B
:103EF000F88F05EB560101FB0480C0B23346302237
:103F0000EEE72DE9F8411E46154688460446079F10
:103F10000BE03346414620460097FFF71BFF082E73
:103F20000AD004EB5600C4B26D1C2A78A2F120001E
:103F30005E28EED9BDE8F881A41DE4B2F4E770B5BF
:103F40000C460546FFF77CFA782000F05BF9FFF796
:103F5000B3FA0CB1402000E0002000F053F9FFF765
:103F6000ABFA284600F04EF9FFF7A6FABDE870401C
:103F7000FFF788BA03211420FFF7AEBB10B5142059
:103F8000FFF758FC800705D10321BDE8104014203D
:103F9000FFF76CBC10BD70B50646082188B0002440
:103FA0000846FFF799FB00210D20FFF76BFC8021ED
:103FB0000E20FFF791FB93208DF8040020208DF850
:103FC000050006A801AB0090022219460C20FFF75D
:103FD0008FFB05000DD1002101A8425C7254425CA8
:103FE000491C5440C9B20429F7D3405CA04200D018
:103FF000FE2580210E20FFF739FC08B0284670BD51
:1040000010B5FFF705FC00F02FF8FFF7B3FFBDE890
:104010001040FFF7B3BF30B50C460546082187B006
:104020000846FFF759FB07210D20FFF72BFC032162
:104030001420FFF71BFC06A801AB00908DF804507C
:10404000012219460C20FFF753FB002809D1BDF8C7
:104050001810102905D19DF8041021709DF8051045
:10406000617007B030BD000010B5204C0122114630
:104070002046FDF778FF0220FDF7BCFD002201215C
:104080002046FDF770FF0220FDF7B4FD0122114626
:104090002046FDF768FF0220FDF7ACFD0F2101204F
:1040A000FFF7F0FB0220FDF7A5FD3D211120FFF7F2
:1040B000E9FB1E212D20FFF7E5FB00212C20FFF757
:1040C000E1FB8D212A20FFF7DDFB3E212B20FFF7AE
:1040D000D9FB40211520FFF7D5FBFFF74BFF02204E
:1040E000FDF788FDBDE81040FFF748BF000C014018
:1040F0007047000001B582B00A200090012301AA98
:1041000002A90348FEF798FB9DF804000EBD0000CD
:1041100078000020F8B515460E460B46009204467E
:104120000122022100F010F840B93346002280211C
:104130002046009500F008F8002804D0606D40F09B
:10414000200060650320F8BD2DE9F8431E46914626
:1041500088460446089DFDF70BFF401B351AFDF706
:1041600007FF074625480068C0F3CB30684338E0B6
:10417000701C37D0FDF7FCFEC01BA84203D215B15E
:10418000009860B32CE02068416821F0E0014160B4
:104190006068B0F5827F0BD1A068B0F5004F02D007
:1041A000B0F5806F04D12068016821F04001016002
:1041B000A06AB0F5005F09D12068016821F40051C0
:1041C00001602068016841F400510160012084F819
:1041D0005100002084F850000320BDE8F88300253A
:1041E000401E00902068816838EA010004D0002158
:1041F0004945BDD10020F0E70121F9E7100000207A
:10420000704700002DE9F041124F002405464FF49D
:1042100080487E14280601D5012200E00022414694
:104220003846FDF7A0FEFFF763F901223146384614
:10423000FDF799FEFFF75CF9002231463846FDF79D
:1042400092FE6806641C050EE4B2082CE2D3BDE8B9
:10425000F081000000100140FDF790BE30B593B032
:1042600028216846FCF770F814210AA8FCF76CF8BE
:10427000002501200F9510951195010412958DE8E8
:10428000230004904FF4E010CDE9081002240794B5
:104290006846FEF7AFF808B172B6FEE70AA90F202C
:1042A00081E831004FF48060CDE90D0502210AA8B4
:1042B000FDF7C4FF08B172B6FEE74FF4004011905D
:1042C0000F940FA8FDF744FF002801D072B6FEE757
:1042D00013B030BD70470000F0B50268194B1A4C9E
:1042E0001A4D4FF08047984205D0B84203D0A04203
:1042F00001D0A84203D122F070064A6832439842A6
:1043000005D0B84203D0A04201D0A84203D122F484
:104310004074CA6822434C6922F080022243026042
:104320008A68C2620A688262984201D1096901639F
:10433000012141610169C90703D0016921F001012F
:104340000161F0BD002C0140000400400008004065
:1043500010B501F01F030121046A99408C430462E7
:10436000016A9A401143016210BD10B5846842EAA7
:10437000032224F47F440A432243826010BD8268F2
:1043800022F070020A4342F007018160704700008A
:1043900030B5036A026A22F001020262426884694F
:1043A00024F073050C682C4323F002058B682B4323
:1043B0000A4DA8420BD123F00805CB6822F44072C5
:1043C0002B434D6923F0040315438A692A43426055
:1043D000846149684163036230BD0000002C0140E4
:1043E00030B5026A036A23F01003036243688469EC
:1043F0000D6824F4E64444EA05248D6822F0200286
:1044000042EA05120B4DA8420ED1CD6822F080027F
:1044100042EA05124D6923F4406343EA85038D693E
:1044200022F0400243EA8503436084614968816366
:10443000026230BD002C014030B5036A026A22F4EA
:10444000807202624268C46923F4007324F0730529
:104450000C682C438D6843EA05230C4DA8420ED10D
:10446000CD6823F4006343EA05234D6922F44052EA
:1044700042EA05128D6923F4806342EA0512426024
:10448000C4614968C163036230BD0000002C014073
:1044900030B5046A026A22F4805202624268C3693B
:1044A0000D6823F4E64343EA05238D6824F40054A1
:1044B00044EA0534064DA84204D14D6922F48042F5
:1044C00042EA85124260C36149680164046230BDFA
:1044D000002C014010B5036A046A24F00104046250
:1044E000846924F0F00444EA021423F00A020A4327
:1044F0008461026210BD10B5036A046A24F01004DE
:104500000462846923F0A00324F4704444EA023274
:1045100043EA01118261016210BD10B5406A0021B9
:10452000C185C184FEF7D3FC10BD01680C3151E890
:10453000002F22F4907241E80023002BF5D101688E
:10454000143151E8002F22F0010241E80023002B32
:10455000F5D1016B012909D101680C3151E8002F17
:1045600022F0100241E80023002BF5D1202180F831
:10457000421000210163704708B590F842102229CB
:1045800001D0022008BD82684FF480539A4201D1C5
:10459000016921B1816A9A421BD04AB10AE00268DE
:1045A000816A5268C2F308020A80816A891C08E0A5
:1045B000026972B10268526802F07F020A70816A71
:1045C000491C8162C18D491E0904090CC18503D0B3
:1045D0001BE002685268F1E70168CA6822F0200215
:1045E000CA600168CA6822F48072CA6001684A69B8
:1045F00022F001024A61202180F84210002141632B
:10460000026B012A03D0FEF747FE002008BD0163BC
:1046100001680C3151E8002F22F0100241E800231C
:10462000002BF5D101680A68D20602D50A684968EC
:104630000091818DFEF74AFCE7E7000070B5044663
:1046400000680169E26821F4405111430161216968
:10465000A0680843616908432168CA6841F20C6395
:104660009A430243CA6020684169A26921F44071FB
:10467000114341611E492068884202D1FDF784FE42
:1046800001E0FDF771FE00EBC00101EB0012606874
:1046900064218000B2FBF0F3B3FBF1F36FF0180676
:1046A0007343B2FBF0F5B2FBF0F605EB8305322362
:1046B00003EB0515B5FBF1F5B6FBF1F605F0F005DA
:1046C00005EB0615B2FBF0F6B2FBF0F0B0FBF1F033
:1046D0006FF01802504306EB800003EB0010B0FBB4
:1046E000F1F0216800F00F002844886070BD0000E0
:1046F0000038014081628285C28500214164222107
:1047000080F84210016921B10168CA6842F48072E0
:10471000CA6001684A6942F001024A610068C168E2
:1047200041F02001C160002070472DE9F843984610
:1047300017460D460446089E24E0701C22D0FDF763
:1047400017FCA0EB0800B0421AD8CEB12068C168AF
:10475000490717D5802D15D0402D13D00168C943C6
:1047600009070FD401680025406800902046FFF734
:10477000DCFE0820606484F840500120BDE8F88326
:104780000320FBE72068006835EA000004D0002021
:10479000B842D2D00020F1E70120F9E730B595B05A
:1047A0006846FCF7BFFE0022134611466C460CE03B
:1047B00004EBC1052D79012D02D0022D02D002E0BB
:1047C000012200E00123491CC9B28142F0D31AB191
:1047D00013B1012015B030BD0020FBE72DE9F047F3
:1047E00096B0FFF7E1F901250021082323A208462E
:1047F0000095FFF786FB02A8FCF794FE061E09D081
:104800004FF0000430D90DF1080A4FF008084FF0BE
:10481000100907E008231DA2102100200095FFF7D2
:1048200070FB21E009EB0410C7B2CDE9008501233C
:10483000621C39460020FFF72DFB082316A23946DB
:1048400018460095FFF75DFBCDE900850AEBC40033
:104850000123027939461020FFF71CFB641CE4B2E7
:10486000B44201D2032CDDD3FFF740FA40F6B83052
:10487000FDF7C0F916B0BDE8F0870000466C617323
:10488000682043617264733A000000004E6F206339
:1048900061726473210000003A000000FCF74ABB1B
:1048A0000448082101700021817101214172FBF748
:1048B000E5BF00001C000020034804210170002116
:1048C000C170FCF799BC00001C0000202DE9F04FDE
:1048D000FF4C0546401E22780027012695B04FF078
:1048E00008084FF004094FF0030A4FF4FA6B81B245
:1048F0000D2A4DD2DFE802F00716343C5D6F874C7D
:10490000C8FFEDECEB00082D09D00C2D40D184F848
:1049100000A0A77015B0BDE8F04FFCF72DB82670C9
:1049200067700DE02846FEF7E8FD012805D002215A
:10493000022804D0102D08D012E0667000E06170EB
:1049400015B0BDE8F04FFCF7A1BC6078012801D09C
:1049500002281DD1217015B0BDE8F04FFCF7FEBB59
:10496000082D15D1277015B0BDE8F04FFCF7E2BA5D
:104970006846FCF7D7FD801CB0FBFAF0C1B2012DF0
:1049800009D0032D0CD0082D02D12770FCF7D2FAE4
:1049900015B0BDE8F08FA0780028F9D0401E04E0E3
:1049A000A078491E8842F3DA401CA070FBF7E4FFB0
:1049B000EEE72846FEF7A1FD012808D00228CFD156
:1049C0000620207015B0BDE8F04FFCF77DBA052039
:1049D0002070277110E02846FEF78FFDDFF8F08287
:1049E000014608F12008FF280BD02079042808D2BE
:1049F00008F80010401C207115B0BDE8F04FFCF71E
:104A000055BB102D04D0082DC2D184F800904BE086
:104A100020790428BCD101A8FCF7A0FD0020414664
:104A200001AA0D5C135C303B9D4220D0FFF7BCF81F
:104A300000210823A7A208460096FFF762FA082380
:104A4000A7A2102100200096FFF75BFAFFF74EF9AE
:104A50004FF47A70FDF7CEF800F00CFB277180B1AF
:104A600000F0FAFD84F80090FCF7C6FB90E7401CCC
:104A7000C0B20428D5D3E7720021012000F046FE21
:104A800086E7FCF713FB83E72846FEF736FD401E5A
:104A9000042801D8A071ECE1102D0AD0082D87D18F
:104AA00084F800906772E77015B0BDE8F04FFCF72E
:104AB000A3BBA0790528D9D2DFE800F0040D1115B9
:104AC0000300EDE709202070E771277228E0D7E1A5
:104AD000A2E153E00FE00A2020706782E8E00B209B
:104AE000207067829BE10C202070A77015B0BDE894
:104AF000F04FFCF7A9B82846FEF7FFFC744A2832AD
:104B0000171FFF2811D0E179042903D27854491CDA
:104B1000E17105E0217A042907D25054491C217221
:104B200015B0BDE8F04FFCF739BA102D23D1207A2B
:104B300004289BD10020395C135C994205D0FFF713
:104B400033F8082368A2009688E1401CC0B204280C
:104B5000F1D3FFF729F8002001AA395C3031115454
:104B6000401CC0B20428F8D31046FCF75FFD0823B0
:104B700061A2009672E1082D78D009E7072801D8D4
:104B8000618295E0102DF6D1FFF70EF80021082381
:104B90005DA208460096FFF7B4F908235DA2102134
:104BA00000200096FFF7ADF908235EA23021002017
:104BB0000096FFF7A6F908235EA238210020009690
:104BC000FFF79FF9FFF792F8FEF7BAFCC5B2322063
:104BD000FDF710F8102D02D0082DF5D168E0FEF792
:104BE000E3FF0021082348A208460096FFF789F951
:104BF000082353A2102100200096FFF782F9FFF747
:104C000075F8FDF7B5F9054642F21077FBF704FD9C
:104C100040B1FDF7ADF9401BB84256D86420FCF70F
:104C2000E9FFF3E708234BA2202100200096FFF7BD
:104C300068F9FFF75BF80120FBF7D7FC002845D1A6
:104C400009E010210020FFF75CF9FFF74FF8584604
:104C5000FCF7D0FF2CE0FEF7A7FF0021082340A2BD
:104C600008460096FFF74DF9082300E0FFE03FA259
:104C7000102100200096FFF744F9082329A23021D3
:104C800000200096FFF73DF908232AA238210020D2
:104C90000096FFF736F9FFF729F800BFFEF750FC42
:104CA000C5B23220FCF7A6FF102D06D0082DF5D195
:104CB00015B0BDE8F04FFCF77FB8FEF775FF08238D
:104CC000002127A20846009658E06FE086E0000029
:104CD0001C00002050494E2056657269667900001C
:104CE0004661696C6564210050494E204D69736DC1
:104CF000617463682100000050494E204368616E72
:104D000067656421000000005374657020312F3204
:104D100000000000506C6163652066696E67657213
:104D20002E2E2E004B455931363A436F6E6669720E
:104D30006D0000004B4559383A43616E63656C0065
:104D400057616974696E672066696E6765722E2E99
:104D50002E00000052656164696E672E2E2E0000E1
:104D60005374657020322F3200000000506C616374
:104D70006520616761696E2E2E2E0000FFF7C1F875
:104D80000823AFF24402102100200096FFF7B9F883
:104D9000FEF7ACFFFDF7ECF84FEA0005FBF73CFC33
:104DA00070B1FDF7E5F8401BB84205D9FEF7FCFEEF
:104DB000082352A2009644E76420FCF71BFFEDE7AE
:104DC0000823AFF27002202100200096FFF799F827
:104DD000FEF78CFF0220FBF708FC28B1FEF7E4FE8B
:104DE000082349A200962CE7FBF776FC28B1FEF7D2
:104DF000DBFE082348A2009623E7618A0120FBF727
:104E000009FD0546FEF7D0FE4FF0080300960DB1F0
:104E100046A223E049A221E0072805D8618215B007
:104E2000BDE8F04FFBF78ABE102D7FF4A4AEFEF76D
:104E3000BBFE0021082345A208460096FFF761F853
:104E4000FEF754FF0121608AFBF7B0FB0546FEF731
:104E5000ABFE4FF00803009685B13FA21021002061
:104E6000FFF74FF8FEF742FF5846FCF7C3FE84F801
:104E7000008015B0BDE8F04FFBF700BD3AA2EDE7AA
:104E800001A8FCF74FFB811CB1FBFAF1C9B2012D5F
:104E90000BD0022D0ED0032D13D0082D7FF488AD3A
:104EA00084F80080FBF7EAFC72E5A0780028FBD0CC
:104EB000401E04E0A078491E8842F5DA401CA0702C
:104EC00019E0A17801EB4101C9B2814213D201A8D6
:104ED00050F83100FCF74EFBFEF766FE082326A2D1
:104EE000102100200096FFF70CF8FEF7FFFE40F2BD
:104EF000DC50FCF77FFEFBF7A7FE49E554696D65C2
:104F00006F7574210000000047656E436861722070
:104F10004661696C656421005265674D6F64656C1C
:104F2000204661696C6564210000000053746F7253
:104F300065204661696C656421000000456E726FF2
:104F40006C6C2053756363657373210044656C65F5
:104F500074696E672E2E2E0044656C65746520465C
:104F600061696C656421000044656C65746520535B
:104F70007563636573732100436172642044656CDB
:104F80006574656421000000FEB5294CA07B0028F3
:104F90003CD00025274AA573284601AE115C303964
:104FA0003154401CC0B20428F8D302A8FCF7D6FA4A
:104FB000002002A9335C0A5C303A934227D0E07BA0
:104FC000401CE073FEF7F0FD0126002108231AA221
:104FD00008460096FEF795FF08231AA2102100202C
:104FE0000096FEF78EFFFEF781FE64230C2217A1C8
:104FF0001A48FEF7D3F9E07B032802D300F02CFB1C
:10500000E573657320210B48FBF77CF9FEBD401C5E
:10501000C0B20428CED3E573E5720021012000F070
:1050200075FB642311220EA10C48FEF7B7F9E8E7DF
:105030001C00002048070020554152542050494E82
:10504000000000004661696C6564210050494E20F3
:105050006572726F72210D0A0000000018010020B5
:10506000556E6C6F636B2073756363657373210D8D
:105070000A00000070B5FCF77BFF0B4C4EF6602277
:105080000025E169411A914200D9E572E17A491C93
:10509000C9B2E172E061032904D300F0DDFAE572E0
:1050A000012070BD002070BD1C0000202DE9FC41D6
:1050B0002A4D06460F46A87A40B1294944F61F609A
:1050C0000968486300212648FDF7C8FE0122510304
:1050D0002448FCF748FF0124AC72FCF749FF6861E3
:1050E00000F09AFA00F0DAFAFEF75EFD00210823DC
:1050F0001DA208460094FEF704FF26B1012E06D03B
:10510000022E23D10BE008231BA2009402E0082307
:105110001CA2009418210020FEF7F3FE16E00823DD
:105120001BA2182100200094FEF7EBFE08231CA20E
:10513000282100200094FEF7E4FE0820CDE90004B9
:1051400003233A4628212020FEF7A4FEFEF7CEFDD9
:10515000FCF70EFFA861BDE8FC8100001C000020E8
:10516000D0000020000C014020202057656C636FA8
:105170006D65212020200000556E6C6F636B3A2016
:105180004E464300556E6C6F636B3A2050494E009B
:10519000556E6C6F636B3A2046696E6765720000EE
:1051A00049443A0009490020084A0870487088704C
:1051B000C870087148718872014620325054491CE9
:1051C000C9B20429FAD300F003B800001C00002083
:1051D00010B500210448FDF7F3FD034944F61F60B4
:1051E0000968486310BD0000D000002010B50421FC
:1051F0000548FDF7E5FD04494FF4FA700968886336
:1052000002490020487410BDD00000201C0000207E
:10521000074810B500214173817320210548FBF731
:1052200071F8BDE81040012202490348FEF726B894
:105230001C00002048070020180100202DE9F0473D
:10524000AD4C98B0A07A20B118B0BDE8F04700F09E
:10525000A1B9FFF799FE2078072814D00026012570
:10526000022813D04FF47A7A062879D0042878D00F
:105270000528FCD0082806D169462620FEF7CBFE7B
:10528000002800D0667218B0BDE8F08703A9262078
:10529000FEF7C1FE0028F6D102A8FEF77CFE00282A
:1052A000F1D102989DF80B1000BA20F0FF000843DE
:1052B0006178FCF7CFF80746FEF776FCE7B1012FDF
:1052C00050D0022F4FF0080300954FD08BA2002141
:1052D0000846FEF716FE08238AA23021002000951A
:1052E000FEF70FFEFEF702FD4FF4FA60FCF782FCBA
:1052F0002670FBF71FFEC6E70021082384A208469C
:105300000095FEF7FEFD082386A2102100200095DF
:10531000FEF7F7FD0827CDE900759DF80820022368
:1053200010211820FEF788FDCDE900759DF80920B1
:10533000022310212820FEF77FFDCDE900759DF89E
:105340000A20022310213820FEF776FDCDE90075F2
:105350009DF80B20022310214820FEF76DFDBAE7CF
:1053600006E06EE0082370A20095B0E770A2AEE7F9
:10537000FEF71AFC0021A846082371A208460095F2
:10538000FEF7BFFD082373A2102100200095FEF751
:10539000B8FD08235BA2302100200095FEF7B1FD87
:1053A000FEF7A4FCFCF7E4FD0746042542F2107961
:1053B0000BE000BFFEF7C4F8C0B2082813D0FBF71B
:1053C0002BF9A0B16420FCF715FCFCF7D1FDC11B43
:1053D0004945EFD3207B401CC0B22073032827D35C
:1053E00000F03AF926732570FBF706FF4BE702A998
:1053F00001A8FBF72BFAF0B1207B401C2073FEF7CD
:10540000D3FB00214746082356A20846CDF800806A
:10541000FEF777FD082356A2102100200097FEF723
:1054200070FDFEF763FC5046FCF7E4FB207BD5E7FC
:10543000FBF74AFD27E7E6722673BDF80410022049
:1054400053E016A92620FEF7E6FD08B166711AE7BB
:1054500060790028CAD115A8FEF79DFD0028C5D1A6
:10546000159800BA20F0FF079DF85700074301A8E0
:10547000FCF758F8002101AA14E000BF52F83130BF
:10548000BB4206D102EBC10C9CF804C0BCF1010F79
:1054900027D0BB4204D102EBC1031B79022B27D0DA
:1054A000491CC9B28142E9D36571FEF77DFB002139
:1054B000082333A208460095FEF723FD082333A2F4
:1054C000102100200095FEF71CFDFEF70FFC504652
:1054D000FCF790FBFFF7CEFD002887D000F0BCF86A
:1054E000D1E665710021E672084600F00FF9CAE6C0
:1054F0006571FFF7D5F9C6E61C0000204572726F92
:10550000722100004B4559383A4261636B0000003C
:10551000526567697374657220537563636573734D
:105520002100000049443A0046756C6C21000000DF
:10553000416C72656164792045786973742100005B
:105540005363616E2046696E6765727072696E742E
:1055500000000000506C6163652066696E676572CB
:105560002E2E2E0046696E6765727072696E740029
:10557000566572696679204661696C656421000030
:105580004E46432056657269667900004661696C33
:10559000656421002DE9F047FCF7EAFC1C4C054648
:1055A00040F6B83760690026281A4FF00108B84263
:1055B00015D3656100F030F8814600F06FF8607C2B
:1055C000B9F5FA7F06D950B95A2000F08DF884F861
:1055D000118004E018B1002000F086F86674A0691C
:1055E000281AB84212D300224FF400510948FCF7A0
:1055F000BAFC07490020267120310E54401CC0B26D
:105600000428FAD3FFF758F984F80580BDE8F0873D
:105610001C000020000C014070B5002425460D48F8
:10562000FCF7FEF90A210B48FCF75CF90948FCF786
:105630009BF804440748FCF753FA0220FCF7DAFA17
:105640006D1CEDB2142DEAD31420B4FBF0F080B23F
:1056500070BD00004800002000B591B007A1684669
:10566000FAF7C6FD6846FAF7E9FD82B26423694697
:105670000948FDF793FE11B000BD00005741524E9E
:10568000494E473A20556E6C6F636B206661696CBA
:105690006564210D0A0000001801002010B50446C1
:1056A00000211048FDF78CFBB4F5487F02D244F688
:1056B0001F6012E0B4F5C86F02D24FF47A500CE0CC
:1056C000B4F5166F02D242F6E06006E0B4F5486F1A
:1056D00002D241F2707000E000200249096848637C
:1056E00010BD0000D0000020B42800D9B4204FF431
:1056F000FA614843B421B0FBF1F0034900F5FA70B8
:1057000080B2096888637047D0000020FFF7CEBCE4
:105710000148FDF7DDBB0000180100200148FDF73E
:10572000D7BB000060010020FEE70907090E002832
:1057300004DB00F1E02080F80014704700F00F0057
:1057400000F1E02080F8141D70470000FCF71EFCFB
:10575000FEF784FDFEF7D8F8FEF76CF9FEF7FEF9C8
:10576000FEF7AAF8FEF78AF9FEF7DCF900224FF4FB
:1057700000511748FCF7F7FBFEF742FAFBF7A2FED1
:10578000FFF710FDFFF744FDFFF730FDFFF726F8A8
:10579000FFF704F810B1FFF78FF801E0FFF77EF88C
:1057A000FEF72EFCFAF74DFF0A4D00BFFDF7C8FECD
:1057B000040005D02878844202D02046FFF786F8FE
:1057C0002C70FFF73BFD3220FCF714FAEEE70000E7
:1057D000000C01400000002001020203040506073E
:1057E00008090A0B0C0D0E0F10100102020304052C
:1057F000060708090A0B0C0D0E0F10100000000020
:105800000000000001020304060708090000000070
:10581000010203040000000000000000002F00004F
:1058200000000700070000147F147F1400242A7F63
:105830002A120062640813230036495522500000E2
:105840000503000000001C224100000041221C0052
:105850000014083E08140008083E0808000000A0D4
:1058600060000008080808080000606000000020D0
:1058700010080402003E5149453E0000427F4000AE
:10588000004261514946002141454B310018141234
:105890007F10002745454539003C4A494930000101
:1058A0007109050300364949493600064949291E50
:1058B00000003636000000005636000000081422B2
:1058C00041000014141414140000412214080002B2
:1058D0000151090600324959513E007C1211127CD7
:1058E000007F49494936003E41414122007F414104
:1058F000221C007F49494941007F09090901003EF6
:105900004149497A007F0808087F0000417F410033
:10591000002040413F01007F08142241007F4040A9
:105920004040007F020C027F007F0408107F003E91
:105930004141413E007F09090906003E4151215E77
:10594000007F091929460046494949310001017F74
:105950000101003F4040403F001F2040201F003F0A
:105960004038403F006314081463000708700807BC
:1059700000615149454300007F41410000552A55CF
:105980002A55000041417F0000040201020400404A
:10599000404040400000010204000020545454786C
:1059A000007F48444438003844444420003844448C
:1059B000487F00385454541800087E09010200182A
:1059C000A4A4A47C007F080404780000447D400067
:1059D000004080847D00007F102844000000417F4B
:1059E0004000007C04180478007C08040478003827
:1059F0004444443800FC242424180018242418FCAF
:105A0000007C0804040800485454542000043F4417
:105A10004020003C4040207C001C2040201C003CDA
:105A20004030403C004428102844001CA0A0A07C2A
:105A3000004464544C441414141414140000000062
:105A400000000000000000000000FC00000000005A
:105A500002000000000C020C020000000000000028
:105A600090D0BCD0BC900003000300001824FE447A
:105A70008C000302070201001824D8B04C800003F8
:105A800000010201C038E438E00001020201020214
:105A9000080600000000000000000000000000F800
:105AA0000402000000010204000204F800000004E7
:105AB000020100009060F86090000000010000000A
:105AC0002020FC2020000000010000000000000059
:105AD0000000080600000000202020202000000018
